{"abi":[{"inputs":[{"internalType":"string","name":"_nameTournament","type":"string"},{"internalType":"string","name":"_date","type":"string"},{"internalType":"string","name":"_hour","type":"string"},{"internalType":"string","name":"_platform","type":"string"},{"internalType":"uint256","name":"_registrationFees","type":"uint256"}],"name":"createTournament","outputs":[],"stateMutability":"nonpayable","type":"function"},{"inputs":[{"internalType":"uint256","name":"","type":"uint256"}],"name":"deployedTournament","outputs":[{"internalType":"address","name":"","type":"address"}],"stateMutability":"view","type":"function"},{"inputs":[],"name":"getDeployedTournaments","outputs":[{"internalType":"address[]","name":"","type":"address[]"}],"stateMutability":"view","type":"function"}],"devdoc":{"kind":"dev","methods":{},"version":1},"evm":{"assembly":"    /* \"PoHGames.sol\":366:1185  contract PoHGames{... */\n  mstore(0x40, 0x80)\n  callvalue\n  dup1\n  iszero\n  tag_1\n  jumpi\n  0x00\n  dup1\n  revert\ntag_1:\n  pop\n  dataSize(sub_0)\n  dup1\n  dataOffset(sub_0)\n  0x00\n  codecopy\n  0x00\n  return\nstop\n\nsub_0: assembly {\n        /* \"PoHGames.sol\":366:1185  contract PoHGames{... */\n      mstore(0x40, 0x80)\n      callvalue\n      dup1\n      iszero\n      tag_1\n      jumpi\n      0x00\n      dup1\n      revert\n    tag_1:\n      pop\n      jumpi(tag_2, lt(calldatasize, 0x04))\n      shr(0xe0, calldataload(0x00))\n      dup1\n      0x2e9e1e93\n      eq\n      tag_3\n      jumpi\n      dup1\n      0xb69626fe\n      eq\n      tag_4\n      jumpi\n      dup1\n      0xdac622b5\n      eq\n      tag_5\n      jumpi\n    tag_2:\n      0x00\n      dup1\n      revert\n        /* \"PoHGames.sol\":1065:1182  function getDeployedTournaments () public view returns (address[] memory){... */\n    tag_3:\n      tag_6\n      tag_7\n      jump\t// in\n    tag_6:\n      mload(0x40)\n      tag_8\n      swap2\n      swap1\n      tag_9\n      jump\t// in\n    tag_8:\n      mload(0x40)\n      dup1\n      swap2\n      sub\n      swap1\n      return\n        /* \"PoHGames.sol\":710:1057  function createTournament (string memory _nameTournament, string memory _date, string memory _hour, string memory _platform, uint _registrationFees) public {... */\n    tag_4:\n      tag_10\n      0x04\n      dup1\n      calldatasize\n      sub\n      dup2\n      add\n      swap1\n      tag_11\n      swap2\n      swap1\n      tag_12\n      jump\t// in\n    tag_11:\n      tag_13\n      jump\t// in\n    tag_10:\n      stop\n        /* \"PoHGames.sol\":390:425  address[] public deployedTournament */\n    tag_5:\n      tag_14\n      0x04\n      dup1\n      calldatasize\n      sub\n      dup2\n      add\n      swap1\n      tag_15\n      swap2\n      swap1\n      tag_16\n      jump\t// in\n    tag_15:\n      tag_17\n      jump\t// in\n    tag_14:\n      mload(0x40)\n      tag_18\n      swap2\n      swap1\n      tag_19\n      jump\t// in\n    tag_18:\n      mload(0x40)\n      dup1\n      swap2\n      sub\n      swap1\n      return\n        /* \"PoHGames.sol\":1065:1182  function getDeployedTournaments () public view returns (address[] memory){... */\n    tag_7:\n        /* \"PoHGames.sol\":1121:1137  address[] memory */\n      0x60\n        /* \"PoHGames.sol\":1156:1174  deployedTournament */\n      0x00\n        /* \"PoHGames.sol\":1149:1174  return deployedTournament */\n      dup1\n      sload\n      dup1\n      0x20\n      mul\n      0x20\n      add\n      mload(0x40)\n      swap1\n      dup2\n      add\n      0x40\n      mstore\n      dup1\n      swap3\n      swap2\n      swap1\n      dup2\n      dup2\n      mstore\n      0x20\n      add\n      dup3\n      dup1\n      sload\n      dup1\n      iszero\n      tag_21\n      jumpi\n      0x20\n      mul\n      dup3\n      add\n      swap2\n      swap1\n      0x00\n      mstore\n      keccak256(0x00, 0x20)\n      swap1\n    tag_22:\n      dup2\n      0x00\n      swap1\n      sload\n      swap1\n      0x0100\n      exp\n      swap1\n      div\n      0xffffffffffffffffffffffffffffffffffffffff\n      and\n      0xffffffffffffffffffffffffffffffffffffffff\n      and\n      dup2\n      mstore\n      0x20\n      add\n      swap1\n      0x01\n      add\n      swap1\n      dup1\n      dup4\n      gt\n      tag_22\n      jumpi\n    tag_21:\n      pop\n      pop\n      pop\n      pop\n      pop\n      swap1\n      pop\n        /* \"PoHGames.sol\":1065:1182  function getDeployedTournaments () public view returns (address[] memory){... */\n      swap1\n      jump\t// out\n        /* \"PoHGames.sol\":710:1057  function createTournament (string memory _nameTournament, string memory _date, string memory _hour, string memory _platform, uint _registrationFees) public {... */\n    tag_13:\n        /* \"PoHGames.sol\":877:898  address newTournament */\n      0x00\n        /* \"PoHGames.sol\":927:942  _nameTournament */\n      dup6\n        /* \"PoHGames.sol\":944:949  _date */\n      dup6\n        /* \"PoHGames.sol\":951:956  _hour */\n      dup6\n        /* \"PoHGames.sol\":958:967  _platform */\n      dup6\n        /* \"PoHGames.sol\":969:979  msg.sender */\n      caller\n        /* \"PoHGames.sol\":981:998  _registrationFees */\n      dup7\n        /* \"PoHGames.sol\":909:999  new TournamentPoH(_nameTournament, _date, _hour, _platform, msg.sender, _registrationFees) */\n      mload(0x40)\n      tag_24\n      swap1\n      tag_25\n      jump\t// in\n    tag_24:\n      tag_26\n      swap7\n      swap6\n      swap5\n      swap4\n      swap3\n      swap2\n      swap1\n      tag_27\n      jump\t// in\n    tag_26:\n      mload(0x40)\n      dup1\n      swap2\n      sub\n      swap1\n      0x00\n      create\n      dup1\n      iszero\n      dup1\n      iszero\n      tag_28\n      jumpi\n      returndatasize\n      0x00\n      dup1\n      returndatacopy\n      revert(0x00, returndatasize)\n    tag_28:\n      pop\n        /* \"PoHGames.sol\":877:1000  address newTournament = address(new TournamentPoH(_nameTournament, _date, _hour, _platform, msg.sender, _registrationFees)) */\n      swap1\n      pop\n        /* \"PoHGames.sol\":1011:1029  deployedTournament */\n      0x00\n        /* \"PoHGames.sol\":1035:1048  newTournament */\n      dup2\n        /* \"PoHGames.sol\":1011:1049  deployedTournament.push(newTournament) */\n      swap1\n      dup1\n      0x01\n      dup2\n      sload\n      add\n      dup1\n      dup3\n      sstore\n      dup1\n      swap2\n      pop\n      pop\n      0x01\n      swap1\n      sub\n      swap1\n      0x00\n      mstore\n      keccak256(0x00, 0x20)\n      add\n      0x00\n      swap1\n      swap2\n      swap1\n      swap2\n      swap1\n      swap2\n      0x0100\n      exp\n      dup2\n      sload\n      dup2\n      0xffffffffffffffffffffffffffffffffffffffff\n      mul\n      not\n      and\n      swap1\n      dup4\n      0xffffffffffffffffffffffffffffffffffffffff\n      and\n      mul\n      or\n      swap1\n      sstore\n      pop\n        /* \"PoHGames.sol\":866:1057  {... */\n      pop\n        /* \"PoHGames.sol\":710:1057  function createTournament (string memory _nameTournament, string memory _date, string memory _hour, string memory _platform, uint _registrationFees) public {... */\n      pop\n      pop\n      pop\n      pop\n      pop\n      jump\t// out\n        /* \"PoHGames.sol\":390:425  address[] public deployedTournament */\n    tag_17:\n      0x00\n      dup2\n      dup2\n      sload\n      dup2\n      lt\n      tag_30\n      jumpi\n      0x00\n      dup1\n      revert\n    tag_30:\n      swap1\n      0x00\n      mstore\n      keccak256(0x00, 0x20)\n      add\n      0x00\n      swap2\n      pop\n      sload\n      swap1\n      0x0100\n      exp\n      swap1\n      div\n      0xffffffffffffffffffffffffffffffffffffffff\n      and\n      dup2\n      jump\t// out\n    tag_25:\n      dataSize(sub_0)\n      dup1\n      dataOffset(sub_0)\n      dup4\n      codecopy\n      add\n      swap1\n      jump\t// out\n        /* \"#utility.yul\":7:121   */\n    tag_32:\n        /* \"#utility.yul\":74:80   */\n      0x00\n        /* \"#utility.yul\":108:113   */\n      dup2\n        /* \"#utility.yul\":102:114   */\n      mload\n        /* \"#utility.yul\":92:114   */\n      swap1\n      pop\n        /* \"#utility.yul\":7:121   */\n      swap2\n      swap1\n      pop\n      jump\t// out\n        /* \"#utility.yul\":127:311   */\n    tag_33:\n        /* \"#utility.yul\":226:237   */\n      0x00\n        /* \"#utility.yul\":260:266   */\n      dup3\n        /* \"#utility.yul\":255:258   */\n      dup3\n        /* \"#utility.yul\":248:267   */\n      mstore\n        /* \"#utility.yul\":300:304   */\n      0x20\n        /* \"#utility.yul\":295:298   */\n      dup3\n        /* \"#utility.yul\":291:305   */\n      add\n        /* \"#utility.yul\":276:305   */\n      swap1\n      pop\n        /* \"#utility.yul\":127:311   */\n      swap3\n      swap2\n      pop\n      pop\n      jump\t// out\n        /* \"#utility.yul\":317:449   */\n    tag_34:\n        /* \"#utility.yul\":384:388   */\n      0x00\n        /* \"#utility.yul\":407:410   */\n      dup2\n        /* \"#utility.yul\":399:410   */\n      swap1\n      pop\n        /* \"#utility.yul\":437:441   */\n      0x20\n        /* \"#utility.yul\":432:435   */\n      dup3\n        /* \"#utility.yul\":428:442   */\n      add\n        /* \"#utility.yul\":420:442   */\n      swap1\n      pop\n        /* \"#utility.yul\":317:449   */\n      swap2\n      swap1\n      pop\n      jump\t// out\n        /* \"#utility.yul\":455:581   */\n    tag_35:\n        /* \"#utility.yul\":492:499   */\n      0x00\n        /* \"#utility.yul\":532:574   */\n      0xffffffffffffffffffffffffffffffffffffffff\n        /* \"#utility.yul\":525:530   */\n      dup3\n        /* \"#utility.yul\":521:575   */\n      and\n        /* \"#utility.yul\":510:575   */\n      swap1\n      pop\n        /* \"#utility.yul\":455:581   */\n      swap2\n      swap1\n      pop\n      jump\t// out\n        /* \"#utility.yul\":587:683   */\n    tag_36:\n        /* \"#utility.yul\":624:631   */\n      0x00\n        /* \"#utility.yul\":653:677   */\n      tag_69\n        /* \"#utility.yul\":671:676   */\n      dup3\n        /* \"#utility.yul\":653:677   */\n      tag_35\n      jump\t// in\n    tag_69:\n        /* \"#utility.yul\":642:677   */\n      swap1\n      pop\n        /* \"#utility.yul\":587:683   */\n      swap2\n      swap1\n      pop\n      jump\t// out\n        /* \"#utility.yul\":689:797   */\n    tag_37:\n        /* \"#utility.yul\":766:790   */\n      tag_71\n        /* \"#utility.yul\":784:789   */\n      dup2\n        /* \"#utility.yul\":766:790   */\n      tag_36\n      jump\t// in\n    tag_71:\n        /* \"#utility.yul\":761:764   */\n      dup3\n        /* \"#utility.yul\":754:791   */\n      mstore\n        /* \"#utility.yul\":689:797   */\n      pop\n      pop\n      jump\t// out\n        /* \"#utility.yul\":803:982   */\n    tag_38:\n        /* \"#utility.yul\":872:882   */\n      0x00\n        /* \"#utility.yul\":893:939   */\n      tag_73\n        /* \"#utility.yul\":935:938   */\n      dup4\n        /* \"#utility.yul\":927:933   */\n      dup4\n        /* \"#utility.yul\":893:939   */\n      tag_37\n      jump\t// in\n    tag_73:\n        /* \"#utility.yul\":971:975   */\n      0x20\n        /* \"#utility.yul\":966:969   */\n      dup4\n        /* \"#utility.yul\":962:976   */\n      add\n        /* \"#utility.yul\":948:976   */\n      swap1\n      pop\n        /* \"#utility.yul\":803:982   */\n      swap3\n      swap2\n      pop\n      pop\n      jump\t// out\n        /* \"#utility.yul\":988:1101   */\n    tag_39:\n        /* \"#utility.yul\":1058:1062   */\n      0x00\n        /* \"#utility.yul\":1090:1094   */\n      0x20\n        /* \"#utility.yul\":1085:1088   */\n      dup3\n        /* \"#utility.yul\":1081:1095   */\n      add\n        /* \"#utility.yul\":1073:1095   */\n      swap1\n      pop\n        /* \"#utility.yul\":988:1101   */\n      swap2\n      swap1\n      pop\n      jump\t// out\n        /* \"#utility.yul\":1137:1869   */\n    tag_40:\n        /* \"#utility.yul\":1256:1259   */\n      0x00\n        /* \"#utility.yul\":1285:1339   */\n      tag_76\n        /* \"#utility.yul\":1333:1338   */\n      dup3\n        /* \"#utility.yul\":1285:1339   */\n      tag_32\n      jump\t// in\n    tag_76:\n        /* \"#utility.yul\":1355:1441   */\n      tag_77\n        /* \"#utility.yul\":1434:1440   */\n      dup2\n        /* \"#utility.yul\":1429:1432   */\n      dup6\n        /* \"#utility.yul\":1355:1441   */\n      tag_33\n      jump\t// in\n    tag_77:\n        /* \"#utility.yul\":1348:1441   */\n      swap4\n      pop\n        /* \"#utility.yul\":1465:1521   */\n      tag_78\n        /* \"#utility.yul\":1515:1520   */\n      dup4\n        /* \"#utility.yul\":1465:1521   */\n      tag_34\n      jump\t// in\n    tag_78:\n        /* \"#utility.yul\":1544:1551   */\n      dup1\n        /* \"#utility.yul\":1575:1576   */\n      0x00\n        /* \"#utility.yul\":1560:1844   */\n    tag_79:\n        /* \"#utility.yul\":1585:1591   */\n      dup4\n        /* \"#utility.yul\":1582:1583   */\n      dup2\n        /* \"#utility.yul\":1579:1592   */\n      lt\n        /* \"#utility.yul\":1560:1844   */\n      iszero\n      tag_81\n      jumpi\n        /* \"#utility.yul\":1661:1667   */\n      dup2\n        /* \"#utility.yul\":1655:1668   */\n      mload\n        /* \"#utility.yul\":1688:1751   */\n      tag_82\n        /* \"#utility.yul\":1747:1750   */\n      dup9\n        /* \"#utility.yul\":1732:1745   */\n      dup3\n        /* \"#utility.yul\":1688:1751   */\n      tag_38\n      jump\t// in\n    tag_82:\n        /* \"#utility.yul\":1681:1751   */\n      swap8\n      pop\n        /* \"#utility.yul\":1774:1834   */\n      tag_83\n        /* \"#utility.yul\":1827:1833   */\n      dup4\n        /* \"#utility.yul\":1774:1834   */\n      tag_39\n      jump\t// in\n    tag_83:\n        /* \"#utility.yul\":1764:1834   */\n      swap3\n      pop\n        /* \"#utility.yul\":1620:1844   */\n      pop\n        /* \"#utility.yul\":1607:1608   */\n      0x01\n        /* \"#utility.yul\":1604:1605   */\n      dup2\n        /* \"#utility.yul\":1600:1609   */\n      add\n        /* \"#utility.yul\":1595:1609   */\n      swap1\n      pop\n        /* \"#utility.yul\":1560:1844   */\n      jump(tag_79)\n    tag_81:\n        /* \"#utility.yul\":1564:1578   */\n      pop\n        /* \"#utility.yul\":1860:1863   */\n      dup6\n        /* \"#utility.yul\":1853:1863   */\n      swap4\n      pop\n        /* \"#utility.yul\":1261:1869   */\n      pop\n      pop\n      pop\n        /* \"#utility.yul\":1137:1869   */\n      swap3\n      swap2\n      pop\n      pop\n      jump\t// out\n        /* \"#utility.yul\":1875:2248   */\n    tag_9:\n        /* \"#utility.yul\":2018:2022   */\n      0x00\n        /* \"#utility.yul\":2056:2058   */\n      0x20\n        /* \"#utility.yul\":2045:2054   */\n      dup3\n        /* \"#utility.yul\":2041:2059   */\n      add\n        /* \"#utility.yul\":2033:2059   */\n      swap1\n      pop\n        /* \"#utility.yul\":2105:2114   */\n      dup2\n        /* \"#utility.yul\":2099:2103   */\n      dup2\n        /* \"#utility.yul\":2095:2115   */\n      sub\n        /* \"#utility.yul\":2091:2092   */\n      0x00\n        /* \"#utility.yul\":2080:2089   */\n      dup4\n        /* \"#utility.yul\":2076:2093   */\n      add\n        /* \"#utility.yul\":2069:2116   */\n      mstore\n        /* \"#utility.yul\":2133:2241   */\n      tag_85\n        /* \"#utility.yul\":2236:2240   */\n      dup2\n        /* \"#utility.yul\":2227:2233   */\n      dup5\n        /* \"#utility.yul\":2133:2241   */\n      tag_40\n      jump\t// in\n    tag_85:\n        /* \"#utility.yul\":2125:2241   */\n      swap1\n      pop\n        /* \"#utility.yul\":1875:2248   */\n      swap3\n      swap2\n      pop\n      pop\n      jump\t// out\n        /* \"#utility.yul\":2254:2329   */\n    tag_41:\n        /* \"#utility.yul\":2287:2293   */\n      0x00\n        /* \"#utility.yul\":2320:2322   */\n      0x40\n        /* \"#utility.yul\":2314:2323   */\n      mload\n        /* \"#utility.yul\":2304:2323   */\n      swap1\n      pop\n        /* \"#utility.yul\":2254:2329   */\n      swap1\n      jump\t// out\n        /* \"#utility.yul\":2335:2452   */\n    tag_42:\n        /* \"#utility.yul\":2444:2445   */\n      0x00\n        /* \"#utility.yul\":2441:2442   */\n      dup1\n        /* \"#utility.yul\":2434:2446   */\n      revert\n        /* \"#utility.yul\":2458:2575   */\n    tag_43:\n        /* \"#utility.yul\":2567:2568   */\n      0x00\n        /* \"#utility.yul\":2564:2565   */\n      dup1\n        /* \"#utility.yul\":2557:2569   */\n      revert\n        /* \"#utility.yul\":2581:2698   */\n    tag_44:\n        /* \"#utility.yul\":2690:2691   */\n      0x00\n        /* \"#utility.yul\":2687:2688   */\n      dup1\n        /* \"#utility.yul\":2680:2692   */\n      revert\n        /* \"#utility.yul\":2704:2821   */\n    tag_45:\n        /* \"#utility.yul\":2813:2814   */\n      0x00\n        /* \"#utility.yul\":2810:2811   */\n      dup1\n        /* \"#utility.yul\":2803:2815   */\n      revert\n        /* \"#utility.yul\":2827:2929   */\n    tag_46:\n        /* \"#utility.yul\":2868:2874   */\n      0x00\n        /* \"#utility.yul\":2919:2921   */\n      0x1f\n        /* \"#utility.yul\":2915:2922   */\n      not\n        /* \"#utility.yul\":2910:2912   */\n      0x1f\n        /* \"#utility.yul\":2903:2908   */\n      dup4\n        /* \"#utility.yul\":2899:2913   */\n      add\n        /* \"#utility.yul\":2895:2923   */\n      and\n        /* \"#utility.yul\":2885:2923   */\n      swap1\n      pop\n        /* \"#utility.yul\":2827:2929   */\n      swap2\n      swap1\n      pop\n      jump\t// out\n        /* \"#utility.yul\":2935:3115   */\n    tag_47:\n        /* \"#utility.yul\":2983:3060   */\n      0x4e487b7100000000000000000000000000000000000000000000000000000000\n        /* \"#utility.yul\":2980:2981   */\n      0x00\n        /* \"#utility.yul\":2973:3061   */\n      mstore\n        /* \"#utility.yul\":3080:3084   */\n      0x41\n        /* \"#utility.yul\":3077:3078   */\n      0x04\n        /* \"#utility.yul\":3070:3085   */\n      mstore\n        /* \"#utility.yul\":3104:3108   */\n      0x24\n        /* \"#utility.yul\":3101:3102   */\n      0x00\n        /* \"#utility.yul\":3094:3109   */\n      revert\n        /* \"#utility.yul\":3121:3402   */\n    tag_48:\n        /* \"#utility.yul\":3204:3231   */\n      tag_94\n        /* \"#utility.yul\":3226:3230   */\n      dup3\n        /* \"#utility.yul\":3204:3231   */\n      tag_46\n      jump\t// in\n    tag_94:\n        /* \"#utility.yul\":3196:3202   */\n      dup2\n        /* \"#utility.yul\":3192:3232   */\n      add\n        /* \"#utility.yul\":3334:3340   */\n      dup2\n        /* \"#utility.yul\":3322:3332   */\n      dup2\n        /* \"#utility.yul\":3319:3341   */\n      lt\n        /* \"#utility.yul\":3298:3316   */\n      0xffffffffffffffff\n        /* \"#utility.yul\":3286:3296   */\n      dup3\n        /* \"#utility.yul\":3283:3317   */\n      gt\n        /* \"#utility.yul\":3280:3342   */\n      or\n        /* \"#utility.yul\":3277:3365   */\n      iszero\n      tag_95\n      jumpi\n        /* \"#utility.yul\":3345:3363   */\n      tag_96\n      tag_47\n      jump\t// in\n    tag_96:\n        /* \"#utility.yul\":3277:3365   */\n    tag_95:\n        /* \"#utility.yul\":3385:3395   */\n      dup1\n        /* \"#utility.yul\":3381:3383   */\n      0x40\n        /* \"#utility.yul\":3374:3396   */\n      mstore\n        /* \"#utility.yul\":3164:3402   */\n      pop\n        /* \"#utility.yul\":3121:3402   */\n      pop\n      pop\n      jump\t// out\n        /* \"#utility.yul\":3408:3537   */\n    tag_49:\n        /* \"#utility.yul\":3442:3448   */\n      0x00\n        /* \"#utility.yul\":3469:3489   */\n      tag_98\n      tag_41\n      jump\t// in\n    tag_98:\n        /* \"#utility.yul\":3459:3489   */\n      swap1\n      pop\n        /* \"#utility.yul\":3498:3531   */\n      tag_99\n        /* \"#utility.yul\":3526:3530   */\n      dup3\n        /* \"#utility.yul\":3518:3524   */\n      dup3\n        /* \"#utility.yul\":3498:3531   */\n      tag_48\n      jump\t// in\n    tag_99:\n        /* \"#utility.yul\":3408:3537   */\n      swap2\n      swap1\n      pop\n      jump\t// out\n        /* \"#utility.yul\":3543:3851   */\n    tag_50:\n        /* \"#utility.yul\":3605:3609   */\n      0x00\n        /* \"#utility.yul\":3695:3713   */\n      0xffffffffffffffff\n        /* \"#utility.yul\":3687:3693   */\n      dup3\n        /* \"#utility.yul\":3684:3714   */\n      gt\n        /* \"#utility.yul\":3681:3737   */\n      iszero\n      tag_101\n      jumpi\n        /* \"#utility.yul\":3717:3735   */\n      tag_102\n      tag_47\n      jump\t// in\n    tag_102:\n        /* \"#utility.yul\":3681:3737   */\n    tag_101:\n        /* \"#utility.yul\":3755:3784   */\n      tag_103\n        /* \"#utility.yul\":3777:3783   */\n      dup3\n        /* \"#utility.yul\":3755:3784   */\n      tag_46\n      jump\t// in\n    tag_103:\n        /* \"#utility.yul\":3747:3784   */\n      swap1\n      pop\n        /* \"#utility.yul\":3839:3843   */\n      0x20\n        /* \"#utility.yul\":3833:3837   */\n      dup2\n        /* \"#utility.yul\":3829:3844   */\n      add\n        /* \"#utility.yul\":3821:3844   */\n      swap1\n      pop\n        /* \"#utility.yul\":3543:3851   */\n      swap2\n      swap1\n      pop\n      jump\t// out\n        /* \"#utility.yul\":3857:4003   */\n    tag_51:\n        /* \"#utility.yul\":3954:3960   */\n      dup3\n        /* \"#utility.yul\":3949:3952   */\n      dup2\n        /* \"#utility.yul\":3944:3947   */\n      dup4\n        /* \"#utility.yul\":3931:3961   */\n      calldatacopy\n        /* \"#utility.yul\":3995:3996   */\n      0x00\n        /* \"#utility.yul\":3986:3992   */\n      dup4\n        /* \"#utility.yul\":3981:3984   */\n      dup4\n        /* \"#utility.yul\":3977:3993   */\n      add\n        /* \"#utility.yul\":3970:3997   */\n      mstore\n        /* \"#utility.yul\":3857:4003   */\n      pop\n      pop\n      pop\n      jump\t// out\n        /* \"#utility.yul\":4009:4434   */\n    tag_52:\n        /* \"#utility.yul\":4087:4092   */\n      0x00\n        /* \"#utility.yul\":4112:4178   */\n      tag_106\n        /* \"#utility.yul\":4128:4177   */\n      tag_107\n        /* \"#utility.yul\":4170:4176   */\n      dup5\n        /* \"#utility.yul\":4128:4177   */\n      tag_50\n      jump\t// in\n    tag_107:\n        /* \"#utility.yul\":4112:4178   */\n      tag_49\n      jump\t// in\n    tag_106:\n        /* \"#utility.yul\":4103:4178   */\n      swap1\n      pop\n        /* \"#utility.yul\":4201:4207   */\n      dup3\n        /* \"#utility.yul\":4194:4199   */\n      dup2\n        /* \"#utility.yul\":4187:4208   */\n      mstore\n        /* \"#utility.yul\":4239:4243   */\n      0x20\n        /* \"#utility.yul\":4232:4237   */\n      dup2\n        /* \"#utility.yul\":4228:4244   */\n      add\n        /* \"#utility.yul\":4277:4280   */\n      dup5\n        /* \"#utility.yul\":4268:4274   */\n      dup5\n        /* \"#utility.yul\":4263:4266   */\n      dup5\n        /* \"#utility.yul\":4259:4275   */\n      add\n        /* \"#utility.yul\":4256:4281   */\n      gt\n        /* \"#utility.yul\":4253:4365   */\n      iszero\n      tag_108\n      jumpi\n        /* \"#utility.yul\":4284:4363   */\n      tag_109\n      tag_45\n      jump\t// in\n    tag_109:\n        /* \"#utility.yul\":4253:4365   */\n    tag_108:\n        /* \"#utility.yul\":4374:4428   */\n      tag_110\n        /* \"#utility.yul\":4421:4427   */\n      dup5\n        /* \"#utility.yul\":4416:4419   */\n      dup3\n        /* \"#utility.yul\":4411:4414   */\n      dup6\n        /* \"#utility.yul\":4374:4428   */\n      tag_51\n      jump\t// in\n    tag_110:\n        /* \"#utility.yul\":4093:4434   */\n      pop\n        /* \"#utility.yul\":4009:4434   */\n      swap4\n      swap3\n      pop\n      pop\n      pop\n      jump\t// out\n        /* \"#utility.yul\":4454:4794   */\n    tag_53:\n        /* \"#utility.yul\":4510:4515   */\n      0x00\n        /* \"#utility.yul\":4559:4562   */\n      dup3\n        /* \"#utility.yul\":4552:4556   */\n      0x1f\n        /* \"#utility.yul\":4544:4550   */\n      dup4\n        /* \"#utility.yul\":4540:4557   */\n      add\n        /* \"#utility.yul\":4536:4563   */\n      slt\n        /* \"#utility.yul\":4526:4648   */\n      tag_112\n      jumpi\n        /* \"#utility.yul\":4567:4646   */\n      tag_113\n      tag_44\n      jump\t// in\n    tag_113:\n        /* \"#utility.yul\":4526:4648   */\n    tag_112:\n        /* \"#utility.yul\":4684:4690   */\n      dup2\n        /* \"#utility.yul\":4671:4691   */\n      calldataload\n        /* \"#utility.yul\":4709:4788   */\n      tag_114\n        /* \"#utility.yul\":4784:4787   */\n      dup5\n        /* \"#utility.yul\":4776:4782   */\n      dup3\n        /* \"#utility.yul\":4769:4773   */\n      0x20\n        /* \"#utility.yul\":4761:4767   */\n      dup7\n        /* \"#utility.yul\":4757:4774   */\n      add\n        /* \"#utility.yul\":4709:4788   */\n      tag_52\n      jump\t// in\n    tag_114:\n        /* \"#utility.yul\":4700:4788   */\n      swap2\n      pop\n        /* \"#utility.yul\":4516:4794   */\n      pop\n        /* \"#utility.yul\":4454:4794   */\n      swap3\n      swap2\n      pop\n      pop\n      jump\t// out\n        /* \"#utility.yul\":4800:4877   */\n    tag_54:\n        /* \"#utility.yul\":4837:4844   */\n      0x00\n        /* \"#utility.yul\":4866:4871   */\n      dup2\n        /* \"#utility.yul\":4855:4871   */\n      swap1\n      pop\n        /* \"#utility.yul\":4800:4877   */\n      swap2\n      swap1\n      pop\n      jump\t// out\n        /* \"#utility.yul\":4883:5005   */\n    tag_55:\n        /* \"#utility.yul\":4956:4980   */\n      tag_117\n        /* \"#utility.yul\":4974:4979   */\n      dup2\n        /* \"#utility.yul\":4956:4980   */\n      tag_54\n      jump\t// in\n    tag_117:\n        /* \"#utility.yul\":4949:4954   */\n      dup2\n        /* \"#utility.yul\":4946:4981   */\n      eq\n        /* \"#utility.yul\":4936:4999   */\n      tag_118\n      jumpi\n        /* \"#utility.yul\":4995:4996   */\n      0x00\n        /* \"#utility.yul\":4992:4993   */\n      dup1\n        /* \"#utility.yul\":4985:4997   */\n      revert\n        /* \"#utility.yul\":4936:4999   */\n    tag_118:\n        /* \"#utility.yul\":4883:5005   */\n      pop\n      jump\t// out\n        /* \"#utility.yul\":5011:5150   */\n    tag_56:\n        /* \"#utility.yul\":5057:5062   */\n      0x00\n        /* \"#utility.yul\":5095:5101   */\n      dup2\n        /* \"#utility.yul\":5082:5102   */\n      calldataload\n        /* \"#utility.yul\":5073:5102   */\n      swap1\n      pop\n        /* \"#utility.yul\":5111:5144   */\n      tag_120\n        /* \"#utility.yul\":5138:5143   */\n      dup2\n        /* \"#utility.yul\":5111:5144   */\n      tag_55\n      jump\t// in\n    tag_120:\n        /* \"#utility.yul\":5011:5150   */\n      swap3\n      swap2\n      pop\n      pop\n      jump\t// out\n        /* \"#utility.yul\":5156:6787   */\n    tag_12:\n        /* \"#utility.yul\":5291:5297   */\n      0x00\n        /* \"#utility.yul\":5299:5305   */\n      dup1\n        /* \"#utility.yul\":5307:5313   */\n      0x00\n        /* \"#utility.yul\":5315:5321   */\n      dup1\n        /* \"#utility.yul\":5323:5329   */\n      0x00\n        /* \"#utility.yul\":5372:5375   */\n      0xa0\n        /* \"#utility.yul\":5360:5369   */\n      dup7\n        /* \"#utility.yul\":5351:5358   */\n      dup9\n        /* \"#utility.yul\":5347:5370   */\n      sub\n        /* \"#utility.yul\":5343:5376   */\n      slt\n        /* \"#utility.yul\":5340:5460   */\n      iszero\n      tag_122\n      jumpi\n        /* \"#utility.yul\":5379:5458   */\n      tag_123\n      tag_42\n      jump\t// in\n    tag_123:\n        /* \"#utility.yul\":5340:5460   */\n    tag_122:\n        /* \"#utility.yul\":5527:5528   */\n      0x00\n        /* \"#utility.yul\":5516:5525   */\n      dup7\n        /* \"#utility.yul\":5512:5529   */\n      add\n        /* \"#utility.yul\":5499:5530   */\n      calldataload\n        /* \"#utility.yul\":5557:5575   */\n      0xffffffffffffffff\n        /* \"#utility.yul\":5549:5555   */\n      dup2\n        /* \"#utility.yul\":5546:5576   */\n      gt\n        /* \"#utility.yul\":5543:5660   */\n      iszero\n      tag_124\n      jumpi\n        /* \"#utility.yul\":5579:5658   */\n      tag_125\n      tag_43\n      jump\t// in\n    tag_125:\n        /* \"#utility.yul\":5543:5660   */\n    tag_124:\n        /* \"#utility.yul\":5684:5747   */\n      tag_126\n        /* \"#utility.yul\":5739:5746   */\n      dup9\n        /* \"#utility.yul\":5730:5736   */\n      dup3\n        /* \"#utility.yul\":5719:5728   */\n      dup10\n        /* \"#utility.yul\":5715:5737   */\n      add\n        /* \"#utility.yul\":5684:5747   */\n      tag_53\n      jump\t// in\n    tag_126:\n        /* \"#utility.yul\":5674:5747   */\n      swap6\n      pop\n        /* \"#utility.yul\":5470:5757   */\n      pop\n        /* \"#utility.yul\":5824:5826   */\n      0x20\n        /* \"#utility.yul\":5813:5822   */\n      dup7\n        /* \"#utility.yul\":5809:5827   */\n      add\n        /* \"#utility.yul\":5796:5828   */\n      calldataload\n        /* \"#utility.yul\":5855:5873   */\n      0xffffffffffffffff\n        /* \"#utility.yul\":5847:5853   */\n      dup2\n        /* \"#utility.yul\":5844:5874   */\n      gt\n        /* \"#utility.yul\":5841:5958   */\n      iszero\n      tag_127\n      jumpi\n        /* \"#utility.yul\":5877:5956   */\n      tag_128\n      tag_43\n      jump\t// in\n    tag_128:\n        /* \"#utility.yul\":5841:5958   */\n    tag_127:\n        /* \"#utility.yul\":5982:6045   */\n      tag_129\n        /* \"#utility.yul\":6037:6044   */\n      dup9\n        /* \"#utility.yul\":6028:6034   */\n      dup3\n        /* \"#utility.yul\":6017:6026   */\n      dup10\n        /* \"#utility.yul\":6013:6035   */\n      add\n        /* \"#utility.yul\":5982:6045   */\n      tag_53\n      jump\t// in\n    tag_129:\n        /* \"#utility.yul\":5972:6045   */\n      swap5\n      pop\n        /* \"#utility.yul\":5767:6055   */\n      pop\n        /* \"#utility.yul\":6122:6124   */\n      0x40\n        /* \"#utility.yul\":6111:6120   */\n      dup7\n        /* \"#utility.yul\":6107:6125   */\n      add\n        /* \"#utility.yul\":6094:6126   */\n      calldataload\n        /* \"#utility.yul\":6153:6171   */\n      0xffffffffffffffff\n        /* \"#utility.yul\":6145:6151   */\n      dup2\n        /* \"#utility.yul\":6142:6172   */\n      gt\n        /* \"#utility.yul\":6139:6256   */\n      iszero\n      tag_130\n      jumpi\n        /* \"#utility.yul\":6175:6254   */\n      tag_131\n      tag_43\n      jump\t// in\n    tag_131:\n        /* \"#utility.yul\":6139:6256   */\n    tag_130:\n        /* \"#utility.yul\":6280:6343   */\n      tag_132\n        /* \"#utility.yul\":6335:6342   */\n      dup9\n        /* \"#utility.yul\":6326:6332   */\n      dup3\n        /* \"#utility.yul\":6315:6324   */\n      dup10\n        /* \"#utility.yul\":6311:6333   */\n      add\n        /* \"#utility.yul\":6280:6343   */\n      tag_53\n      jump\t// in\n    tag_132:\n        /* \"#utility.yul\":6270:6343   */\n      swap4\n      pop\n        /* \"#utility.yul\":6065:6353   */\n      pop\n        /* \"#utility.yul\":6420:6422   */\n      0x60\n        /* \"#utility.yul\":6409:6418   */\n      dup7\n        /* \"#utility.yul\":6405:6423   */\n      add\n        /* \"#utility.yul\":6392:6424   */\n      calldataload\n        /* \"#utility.yul\":6451:6469   */\n      0xffffffffffffffff\n        /* \"#utility.yul\":6443:6449   */\n      dup2\n        /* \"#utility.yul\":6440:6470   */\n      gt\n        /* \"#utility.yul\":6437:6554   */\n      iszero\n      tag_133\n      jumpi\n        /* \"#utility.yul\":6473:6552   */\n      tag_134\n      tag_43\n      jump\t// in\n    tag_134:\n        /* \"#utility.yul\":6437:6554   */\n    tag_133:\n        /* \"#utility.yul\":6578:6641   */\n      tag_135\n        /* \"#utility.yul\":6633:6640   */\n      dup9\n        /* \"#utility.yul\":6624:6630   */\n      dup3\n        /* \"#utility.yul\":6613:6622   */\n      dup10\n        /* \"#utility.yul\":6609:6631   */\n      add\n        /* \"#utility.yul\":6578:6641   */\n      tag_53\n      jump\t// in\n    tag_135:\n        /* \"#utility.yul\":6568:6641   */\n      swap3\n      pop\n        /* \"#utility.yul\":6363:6651   */\n      pop\n        /* \"#utility.yul\":6690:6693   */\n      0x80\n        /* \"#utility.yul\":6717:6770   */\n      tag_136\n        /* \"#utility.yul\":6762:6769   */\n      dup9\n        /* \"#utility.yul\":6753:6759   */\n      dup3\n        /* \"#utility.yul\":6742:6751   */\n      dup10\n        /* \"#utility.yul\":6738:6760   */\n      add\n        /* \"#utility.yul\":6717:6770   */\n      tag_56\n      jump\t// in\n    tag_136:\n        /* \"#utility.yul\":6707:6770   */\n      swap2\n      pop\n        /* \"#utility.yul\":6661:6780   */\n      pop\n        /* \"#utility.yul\":5156:6787   */\n      swap3\n      swap6\n      pop\n      swap3\n      swap6\n      swap1\n      swap4\n      pop\n      jump\t// out\n        /* \"#utility.yul\":6793:7122   */\n    tag_16:\n        /* \"#utility.yul\":6852:6858   */\n      0x00\n        /* \"#utility.yul\":6901:6903   */\n      0x20\n        /* \"#utility.yul\":6889:6898   */\n      dup3\n        /* \"#utility.yul\":6880:6887   */\n      dup5\n        /* \"#utility.yul\":6876:6899   */\n      sub\n        /* \"#utility.yul\":6872:6904   */\n      slt\n        /* \"#utility.yul\":6869:6988   */\n      iszero\n      tag_138\n      jumpi\n        /* \"#utility.yul\":6907:6986   */\n      tag_139\n      tag_42\n      jump\t// in\n    tag_139:\n        /* \"#utility.yul\":6869:6988   */\n    tag_138:\n        /* \"#utility.yul\":7027:7028   */\n      0x00\n        /* \"#utility.yul\":7052:7105   */\n      tag_140\n        /* \"#utility.yul\":7097:7104   */\n      dup5\n        /* \"#utility.yul\":7088:7094   */\n      dup3\n        /* \"#utility.yul\":7077:7086   */\n      dup6\n        /* \"#utility.yul\":7073:7095   */\n      add\n        /* \"#utility.yul\":7052:7105   */\n      tag_56\n      jump\t// in\n    tag_140:\n        /* \"#utility.yul\":7042:7105   */\n      swap2\n      pop\n        /* \"#utility.yul\":6998:7115   */\n      pop\n        /* \"#utility.yul\":6793:7122   */\n      swap3\n      swap2\n      pop\n      pop\n      jump\t// out\n        /* \"#utility.yul\":7128:7246   */\n    tag_57:\n        /* \"#utility.yul\":7215:7239   */\n      tag_142\n        /* \"#utility.yul\":7233:7238   */\n      dup2\n        /* \"#utility.yul\":7215:7239   */\n      tag_36\n      jump\t// in\n    tag_142:\n        /* \"#utility.yul\":7210:7213   */\n      dup3\n        /* \"#utility.yul\":7203:7240   */\n      mstore\n        /* \"#utility.yul\":7128:7246   */\n      pop\n      pop\n      jump\t// out\n        /* \"#utility.yul\":7252:7474   */\n    tag_19:\n        /* \"#utility.yul\":7345:7349   */\n      0x00\n        /* \"#utility.yul\":7383:7385   */\n      0x20\n        /* \"#utility.yul\":7372:7381   */\n      dup3\n        /* \"#utility.yul\":7368:7386   */\n      add\n        /* \"#utility.yul\":7360:7386   */\n      swap1\n      pop\n        /* \"#utility.yul\":7396:7467   */\n      tag_144\n        /* \"#utility.yul\":7464:7465   */\n      0x00\n        /* \"#utility.yul\":7453:7462   */\n      dup4\n        /* \"#utility.yul\":7449:7466   */\n      add\n        /* \"#utility.yul\":7440:7446   */\n      dup5\n        /* \"#utility.yul\":7396:7467   */\n      tag_57\n      jump\t// in\n    tag_144:\n        /* \"#utility.yul\":7252:7474   */\n      swap3\n      swap2\n      pop\n      pop\n      jump\t// out\n        /* \"#utility.yul\":7480:7579   */\n    tag_58:\n        /* \"#utility.yul\":7532:7538   */\n      0x00\n        /* \"#utility.yul\":7566:7571   */\n      dup2\n        /* \"#utility.yul\":7560:7572   */\n      mload\n        /* \"#utility.yul\":7550:7572   */\n      swap1\n      pop\n        /* \"#utility.yul\":7480:7579   */\n      swap2\n      swap1\n      pop\n      jump\t// out\n        /* \"#utility.yul\":7585:7754   */\n    tag_59:\n        /* \"#utility.yul\":7669:7680   */\n      0x00\n        /* \"#utility.yul\":7703:7709   */\n      dup3\n        /* \"#utility.yul\":7698:7701   */\n      dup3\n        /* \"#utility.yul\":7691:7710   */\n      mstore\n        /* \"#utility.yul\":7743:7747   */\n      0x20\n        /* \"#utility.yul\":7738:7741   */\n      dup3\n        /* \"#utility.yul\":7734:7748   */\n      add\n        /* \"#utility.yul\":7719:7748   */\n      swap1\n      pop\n        /* \"#utility.yul\":7585:7754   */\n      swap3\n      swap2\n      pop\n      pop\n      jump\t// out\n        /* \"#utility.yul\":7760:8006   */\n    tag_60:\n        /* \"#utility.yul\":7841:7842   */\n      0x00\n        /* \"#utility.yul\":7851:7964   */\n    tag_148:\n        /* \"#utility.yul\":7865:7871   */\n      dup4\n        /* \"#utility.yul\":7862:7863   */\n      dup2\n        /* \"#utility.yul\":7859:7872   */\n      lt\n        /* \"#utility.yul\":7851:7964   */\n      iszero\n      tag_150\n      jumpi\n        /* \"#utility.yul\":7950:7951   */\n      dup1\n        /* \"#utility.yul\":7945:7948   */\n      dup3\n        /* \"#utility.yul\":7941:7952   */\n      add\n        /* \"#utility.yul\":7935:7953   */\n      mload\n        /* \"#utility.yul\":7931:7932   */\n      dup2\n        /* \"#utility.yul\":7926:7929   */\n      dup5\n        /* \"#utility.yul\":7922:7933   */\n      add\n        /* \"#utility.yul\":7915:7954   */\n      mstore\n        /* \"#utility.yul\":7887:7889   */\n      0x20\n        /* \"#utility.yul\":7884:7885   */\n      dup2\n        /* \"#utility.yul\":7880:7890   */\n      add\n        /* \"#utility.yul\":7875:7890   */\n      swap1\n      pop\n        /* \"#utility.yul\":7851:7964   */\n      jump(tag_148)\n    tag_150:\n        /* \"#utility.yul\":7998:7999   */\n      0x00\n        /* \"#utility.yul\":7989:7995   */\n      dup5\n        /* \"#utility.yul\":7984:7987   */\n      dup5\n        /* \"#utility.yul\":7980:7996   */\n      add\n        /* \"#utility.yul\":7973:8000   */\n      mstore\n        /* \"#utility.yul\":7822:8006   */\n      pop\n        /* \"#utility.yul\":7760:8006   */\n      pop\n      pop\n      pop\n      jump\t// out\n        /* \"#utility.yul\":8012:8389   */\n    tag_61:\n        /* \"#utility.yul\":8100:8103   */\n      0x00\n        /* \"#utility.yul\":8128:8167   */\n      tag_152\n        /* \"#utility.yul\":8161:8166   */\n      dup3\n        /* \"#utility.yul\":8128:8167   */\n      tag_58\n      jump\t// in\n    tag_152:\n        /* \"#utility.yul\":8183:8254   */\n      tag_153\n        /* \"#utility.yul\":8247:8253   */\n      dup2\n        /* \"#utility.yul\":8242:8245   */\n      dup6\n        /* \"#utility.yul\":8183:8254   */\n      tag_59\n      jump\t// in\n    tag_153:\n        /* \"#utility.yul\":8176:8254   */\n      swap4\n      pop\n        /* \"#utility.yul\":8263:8328   */\n      tag_154\n        /* \"#utility.yul\":8321:8327   */\n      dup2\n        /* \"#utility.yul\":8316:8319   */\n      dup6\n        /* \"#utility.yul\":8309:8313   */\n      0x20\n        /* \"#utility.yul\":8302:8307   */\n      dup7\n        /* \"#utility.yul\":8298:8314   */\n      add\n        /* \"#utility.yul\":8263:8328   */\n      tag_60\n      jump\t// in\n    tag_154:\n        /* \"#utility.yul\":8353:8382   */\n      tag_155\n        /* \"#utility.yul\":8375:8381   */\n      dup2\n        /* \"#utility.yul\":8353:8382   */\n      tag_46\n      jump\t// in\n    tag_155:\n        /* \"#utility.yul\":8348:8351   */\n      dup5\n        /* \"#utility.yul\":8344:8383   */\n      add\n        /* \"#utility.yul\":8337:8383   */\n      swap2\n      pop\n        /* \"#utility.yul\":8104:8389   */\n      pop\n        /* \"#utility.yul\":8012:8389   */\n      swap3\n      swap2\n      pop\n      pop\n      jump\t// out\n        /* \"#utility.yul\":8395:8513   */\n    tag_62:\n        /* \"#utility.yul\":8482:8506   */\n      tag_157\n        /* \"#utility.yul\":8500:8505   */\n      dup2\n        /* \"#utility.yul\":8482:8506   */\n      tag_54\n      jump\t// in\n    tag_157:\n        /* \"#utility.yul\":8477:8480   */\n      dup3\n        /* \"#utility.yul\":8470:8507   */\n      mstore\n        /* \"#utility.yul\":8395:8513   */\n      pop\n      pop\n      jump\t// out\n        /* \"#utility.yul\":8519:9658   */\n    tag_27:\n        /* \"#utility.yul\":8832:8836   */\n      0x00\n        /* \"#utility.yul\":8870:8873   */\n      0xc0\n        /* \"#utility.yul\":8859:8868   */\n      dup3\n        /* \"#utility.yul\":8855:8874   */\n      add\n        /* \"#utility.yul\":8847:8874   */\n      swap1\n      pop\n        /* \"#utility.yul\":8920:8929   */\n      dup2\n        /* \"#utility.yul\":8914:8918   */\n      dup2\n        /* \"#utility.yul\":8910:8930   */\n      sub\n        /* \"#utility.yul\":8906:8907   */\n      0x00\n        /* \"#utility.yul\":8895:8904   */\n      dup4\n        /* \"#utility.yul\":8891:8908   */\n      add\n        /* \"#utility.yul\":8884:8931   */\n      mstore\n        /* \"#utility.yul\":8948:9026   */\n      tag_159\n        /* \"#utility.yul\":9021:9025   */\n      dup2\n        /* \"#utility.yul\":9012:9018   */\n      dup10\n        /* \"#utility.yul\":8948:9026   */\n      tag_61\n      jump\t// in\n    tag_159:\n        /* \"#utility.yul\":8940:9026   */\n      swap1\n      pop\n        /* \"#utility.yul\":9073:9082   */\n      dup2\n        /* \"#utility.yul\":9067:9071   */\n      dup2\n        /* \"#utility.yul\":9063:9083   */\n      sub\n        /* \"#utility.yul\":9058:9060   */\n      0x20\n        /* \"#utility.yul\":9047:9056   */\n      dup4\n        /* \"#utility.yul\":9043:9061   */\n      add\n        /* \"#utility.yul\":9036:9084   */\n      mstore\n        /* \"#utility.yul\":9101:9179   */\n      tag_160\n        /* \"#utility.yul\":9174:9178   */\n      dup2\n        /* \"#utility.yul\":9165:9171   */\n      dup9\n        /* \"#utility.yul\":9101:9179   */\n      tag_61\n      jump\t// in\n    tag_160:\n        /* \"#utility.yul\":9093:9179   */\n      swap1\n      pop\n        /* \"#utility.yul\":9226:9235   */\n      dup2\n        /* \"#utility.yul\":9220:9224   */\n      dup2\n        /* \"#utility.yul\":9216:9236   */\n      sub\n        /* \"#utility.yul\":9211:9213   */\n      0x40\n        /* \"#utility.yul\":9200:9209   */\n      dup4\n        /* \"#utility.yul\":9196:9214   */\n      add\n        /* \"#utility.yul\":9189:9237   */\n      mstore\n        /* \"#utility.yul\":9254:9332   */\n      tag_161\n        /* \"#utility.yul\":9327:9331   */\n      dup2\n        /* \"#utility.yul\":9318:9324   */\n      dup8\n        /* \"#utility.yul\":9254:9332   */\n      tag_61\n      jump\t// in\n    tag_161:\n        /* \"#utility.yul\":9246:9332   */\n      swap1\n      pop\n        /* \"#utility.yul\":9379:9388   */\n      dup2\n        /* \"#utility.yul\":9373:9377   */\n      dup2\n        /* \"#utility.yul\":9369:9389   */\n      sub\n        /* \"#utility.yul\":9364:9366   */\n      0x60\n        /* \"#utility.yul\":9353:9362   */\n      dup4\n        /* \"#utility.yul\":9349:9367   */\n      add\n        /* \"#utility.yul\":9342:9390   */\n      mstore\n        /* \"#utility.yul\":9407:9485   */\n      tag_162\n        /* \"#utility.yul\":9480:9484   */\n      dup2\n        /* \"#utility.yul\":9471:9477   */\n      dup7\n        /* \"#utility.yul\":9407:9485   */\n      tag_61\n      jump\t// in\n    tag_162:\n        /* \"#utility.yul\":9399:9485   */\n      swap1\n      pop\n        /* \"#utility.yul\":9495:9568   */\n      tag_163\n        /* \"#utility.yul\":9563:9566   */\n      0x80\n        /* \"#utility.yul\":9552:9561   */\n      dup4\n        /* \"#utility.yul\":9548:9567   */\n      add\n        /* \"#utility.yul\":9539:9545   */\n      dup6\n        /* \"#utility.yul\":9495:9568   */\n      tag_57\n      jump\t// in\n    tag_163:\n        /* \"#utility.yul\":9578:9651   */\n      tag_164\n        /* \"#utility.yul\":9646:9649   */\n      0xa0\n        /* \"#utility.yul\":9635:9644   */\n      dup4\n        /* \"#utility.yul\":9631:9650   */\n      add\n        /* \"#utility.yul\":9622:9628   */\n      dup5\n        /* \"#utility.yul\":9578:9651   */\n      tag_62\n      jump\t// in\n    tag_164:\n        /* \"#utility.yul\":8519:9658   */\n      swap8\n      swap7\n      pop\n      pop\n      pop\n      pop\n      pop\n      pop\n      pop\n      jump\t// out\n    stop\n\n    sub_0: assembly {\n            /* \"PoHGames.sol\":1208:6707  contract TournamentPoH{... */\n          mstore(0x40, 0x80)\n            /* \"PoHGames.sol\":1722:1764  0xC5E9dDebb09Cd64DfaCab4011A0D5cEDaf7c9BDb */\n          0xc5e9ddebb09cd64dfacab4011a0d5cedaf7c9bdb\n            /* \"PoHGames.sol\":1665:1765  IProofOfHumanity private PoH =... */\n          0x0a\n          exp(0x0100, 0x00)\n          dup2\n          sload\n          dup2\n          0xffffffffffffffffffffffffffffffffffffffff\n          mul\n          not\n          and\n          swap1\n          dup4\n          0xffffffffffffffffffffffffffffffffffffffff\n          and\n          mul\n          or\n          swap1\n          sstore\n          pop\n            /* \"PoHGames.sol\":2295:2770  constructor (string memory _nameTournament, string memory _date, string memory _hour, string memory _platform, address _manager, uint _registrationFees) {... */\n          callvalue\n          dup1\n          iszero\n          tag_1\n          jumpi\n          0x00\n          dup1\n          revert\n        tag_1:\n          pop\n          mload(0x40)\n          sub(codesize, bytecodeSize)\n          dup1\n          bytecodeSize\n          dup4\n          codecopy\n          dup2\n          dup2\n          add\n          0x40\n          mstore\n          dup2\n          add\n          swap1\n          tag_2\n          swap2\n          swap1\n          tag_3\n          jump\t// in\n        tag_2:\n            /* \"PoHGames.sol\":2484:2499  _nameTournament */\n          dup6\n            /* \"PoHGames.sol\":2459:2466  request */\n          0x00\n            /* \"PoHGames.sol\":2459:2481  request.nameTournament */\n          0x02\n          add\n            /* \"PoHGames.sol\":2459:2499  request.nameTournament = _nameTournament */\n          swap1\n          dup2\n          tag_6\n          swap2\n          swap1\n          tag_7\n          jump\t// in\n        tag_6:\n          pop\n            /* \"PoHGames.sol\":2525:2530  _date */\n          dup5\n            /* \"PoHGames.sol\":2510:2517  request */\n          0x00\n            /* \"PoHGames.sol\":2510:2522  request.date */\n          0x03\n          add\n            /* \"PoHGames.sol\":2510:2530  request.date = _date */\n          swap1\n          dup2\n          tag_8\n          swap2\n          swap1\n          tag_7\n          jump\t// in\n        tag_8:\n          pop\n            /* \"PoHGames.sol\":2557:2562  _hour */\n          dup4\n            /* \"PoHGames.sol\":2542:2549  request */\n          0x00\n            /* \"PoHGames.sol\":2542:2554  request.hour */\n          0x04\n          add\n            /* \"PoHGames.sol\":2542:2562  request.hour = _hour */\n          swap1\n          dup2\n          tag_9\n          swap2\n          swap1\n          tag_7\n          jump\t// in\n        tag_9:\n          pop\n            /* \"PoHGames.sol\":2592:2601  _platform */\n          dup3\n            /* \"PoHGames.sol\":2573:2580  request */\n          0x00\n            /* \"PoHGames.sol\":2573:2589  request.platform */\n          0x05\n          add\n            /* \"PoHGames.sol\":2573:2601  request.platform = _platform */\n          swap1\n          dup2\n          tag_10\n          swap2\n          swap1\n          tag_7\n          jump\t// in\n        tag_10:\n          pop\n            /* \"PoHGames.sol\":2630:2638  _manager */\n          dup2\n            /* \"PoHGames.sol\":2612:2619  request */\n          0x00\n            /* \"PoHGames.sol\":2612:2627  request.manager */\n          dup1\n          add\n          0x00\n            /* \"PoHGames.sol\":2612:2638  request.manager = _manager */\n          0x0100\n          exp\n          dup2\n          sload\n          dup2\n          0xffffffffffffffffffffffffffffffffffffffff\n          mul\n          not\n          and\n          swap1\n          dup4\n          0xffffffffffffffffffffffffffffffffffffffff\n          and\n          mul\n          or\n          swap1\n          sstore\n          pop\n            /* \"PoHGames.sol\":2676:2693  _registrationFees */\n          dup1\n            /* \"PoHGames.sol\":2649:2656  request */\n          0x00\n            /* \"PoHGames.sol\":2649:2673  request.registrationFees */\n          0x01\n          add\n            /* \"PoHGames.sol\":2649:2693  request.registrationFees = _registrationFees */\n          dup2\n          swap1\n          sstore\n          pop\n            /* \"PoHGames.sol\":2295:2770  constructor (string memory _nameTournament, string memory _date, string memory _hour, string memory _platform, address _manager, uint _registrationFees) {... */\n          pop\n          pop\n          pop\n          pop\n          pop\n          pop\n            /* \"PoHGames.sol\":1208:6707  contract TournamentPoH{... */\n          jump(tag_11)\n            /* \"#utility.yul\":7:82   */\n        tag_12:\n            /* \"#utility.yul\":40:46   */\n          0x00\n            /* \"#utility.yul\":73:75   */\n          0x40\n            /* \"#utility.yul\":67:76   */\n          mload\n            /* \"#utility.yul\":57:76   */\n          swap1\n          pop\n            /* \"#utility.yul\":7:82   */\n          swap1\n          jump\t// out\n            /* \"#utility.yul\":88:205   */\n        tag_13:\n            /* \"#utility.yul\":197:198   */\n          0x00\n            /* \"#utility.yul\":194:195   */\n          dup1\n            /* \"#utility.yul\":187:199   */\n          revert\n            /* \"#utility.yul\":211:328   */\n        tag_14:\n            /* \"#utility.yul\":320:321   */\n          0x00\n            /* \"#utility.yul\":317:318   */\n          dup1\n            /* \"#utility.yul\":310:322   */\n          revert\n            /* \"#utility.yul\":334:451   */\n        tag_15:\n            /* \"#utility.yul\":443:444   */\n          0x00\n            /* \"#utility.yul\":440:441   */\n          dup1\n            /* \"#utility.yul\":433:445   */\n          revert\n            /* \"#utility.yul\":457:574   */\n        tag_16:\n            /* \"#utility.yul\":566:567   */\n          0x00\n            /* \"#utility.yul\":563:564   */\n          dup1\n            /* \"#utility.yul\":556:568   */\n          revert\n            /* \"#utility.yul\":580:682   */\n        tag_17:\n            /* \"#utility.yul\":621:627   */\n          0x00\n            /* \"#utility.yul\":672:674   */\n          0x1f\n            /* \"#utility.yul\":668:675   */\n          not\n            /* \"#utility.yul\":663:665   */\n          0x1f\n            /* \"#utility.yul\":656:661   */\n          dup4\n            /* \"#utility.yul\":652:666   */\n          add\n            /* \"#utility.yul\":648:676   */\n          and\n            /* \"#utility.yul\":638:676   */\n          swap1\n          pop\n            /* \"#utility.yul\":580:682   */\n          swap2\n          swap1\n          pop\n          jump\t// out\n            /* \"#utility.yul\":688:868   */\n        tag_18:\n            /* \"#utility.yul\":736:813   */\n          0x4e487b7100000000000000000000000000000000000000000000000000000000\n            /* \"#utility.yul\":733:734   */\n          0x00\n            /* \"#utility.yul\":726:814   */\n          mstore\n            /* \"#utility.yul\":833:837   */\n          0x41\n            /* \"#utility.yul\":830:831   */\n          0x04\n            /* \"#utility.yul\":823:838   */\n          mstore\n            /* \"#utility.yul\":857:861   */\n          0x24\n            /* \"#utility.yul\":854:855   */\n          0x00\n            /* \"#utility.yul\":847:862   */\n          revert\n            /* \"#utility.yul\":874:1155   */\n        tag_19:\n            /* \"#utility.yul\":957:984   */\n          tag_59\n            /* \"#utility.yul\":979:983   */\n          dup3\n            /* \"#utility.yul\":957:984   */\n          tag_17\n          jump\t// in\n        tag_59:\n            /* \"#utility.yul\":949:955   */\n          dup2\n            /* \"#utility.yul\":945:985   */\n          add\n            /* \"#utility.yul\":1087:1093   */\n          dup2\n            /* \"#utility.yul\":1075:1085   */\n          dup2\n            /* \"#utility.yul\":1072:1094   */\n          lt\n            /* \"#utility.yul\":1051:1069   */\n          0xffffffffffffffff\n            /* \"#utility.yul\":1039:1049   */\n          dup3\n            /* \"#utility.yul\":1036:1070   */\n          gt\n            /* \"#utility.yul\":1033:1095   */\n          or\n            /* \"#utility.yul\":1030:1118   */\n          iszero\n          tag_60\n          jumpi\n            /* \"#utility.yul\":1098:1116   */\n          tag_61\n          tag_18\n          jump\t// in\n        tag_61:\n            /* \"#utility.yul\":1030:1118   */\n        tag_60:\n            /* \"#utility.yul\":1138:1148   */\n          dup1\n            /* \"#utility.yul\":1134:1136   */\n          0x40\n            /* \"#utility.yul\":1127:1149   */\n          mstore\n            /* \"#utility.yul\":917:1155   */\n          pop\n            /* \"#utility.yul\":874:1155   */\n          pop\n          pop\n          jump\t// out\n            /* \"#utility.yul\":1161:1290   */\n        tag_20:\n            /* \"#utility.yul\":1195:1201   */\n          0x00\n            /* \"#utility.yul\":1222:1242   */\n          tag_63\n          tag_12\n          jump\t// in\n        tag_63:\n            /* \"#utility.yul\":1212:1242   */\n          swap1\n          pop\n            /* \"#utility.yul\":1251:1284   */\n          tag_64\n            /* \"#utility.yul\":1279:1283   */\n          dup3\n            /* \"#utility.yul\":1271:1277   */\n          dup3\n            /* \"#utility.yul\":1251:1284   */\n          tag_19\n          jump\t// in\n        tag_64:\n            /* \"#utility.yul\":1161:1290   */\n          swap2\n          swap1\n          pop\n          jump\t// out\n            /* \"#utility.yul\":1296:1604   */\n        tag_21:\n            /* \"#utility.yul\":1358:1362   */\n          0x00\n            /* \"#utility.yul\":1448:1466   */\n          0xffffffffffffffff\n            /* \"#utility.yul\":1440:1446   */\n          dup3\n            /* \"#utility.yul\":1437:1467   */\n          gt\n            /* \"#utility.yul\":1434:1490   */\n          iszero\n          tag_66\n          jumpi\n            /* \"#utility.yul\":1470:1488   */\n          tag_67\n          tag_18\n          jump\t// in\n        tag_67:\n            /* \"#utility.yul\":1434:1490   */\n        tag_66:\n            /* \"#utility.yul\":1508:1537   */\n          tag_68\n            /* \"#utility.yul\":1530:1536   */\n          dup3\n            /* \"#utility.yul\":1508:1537   */\n          tag_17\n          jump\t// in\n        tag_68:\n            /* \"#utility.yul\":1500:1537   */\n          swap1\n          pop\n            /* \"#utility.yul\":1592:1596   */\n          0x20\n            /* \"#utility.yul\":1586:1590   */\n          dup2\n            /* \"#utility.yul\":1582:1597   */\n          add\n            /* \"#utility.yul\":1574:1597   */\n          swap1\n          pop\n            /* \"#utility.yul\":1296:1604   */\n          swap2\n          swap1\n          pop\n          jump\t// out\n            /* \"#utility.yul\":1610:1856   */\n        tag_22:\n            /* \"#utility.yul\":1691:1692   */\n          0x00\n            /* \"#utility.yul\":1701:1814   */\n        tag_70:\n            /* \"#utility.yul\":1715:1721   */\n          dup4\n            /* \"#utility.yul\":1712:1713   */\n          dup2\n            /* \"#utility.yul\":1709:1722   */\n          lt\n            /* \"#utility.yul\":1701:1814   */\n          iszero\n          tag_72\n          jumpi\n            /* \"#utility.yul\":1800:1801   */\n          dup1\n            /* \"#utility.yul\":1795:1798   */\n          dup3\n            /* \"#utility.yul\":1791:1802   */\n          add\n            /* \"#utility.yul\":1785:1803   */\n          mload\n            /* \"#utility.yul\":1781:1782   */\n          dup2\n            /* \"#utility.yul\":1776:1779   */\n          dup5\n            /* \"#utility.yul\":1772:1783   */\n          add\n            /* \"#utility.yul\":1765:1804   */\n          mstore\n            /* \"#utility.yul\":1737:1739   */\n          0x20\n            /* \"#utility.yul\":1734:1735   */\n          dup2\n            /* \"#utility.yul\":1730:1740   */\n          add\n            /* \"#utility.yul\":1725:1740   */\n          swap1\n          pop\n            /* \"#utility.yul\":1701:1814   */\n          jump(tag_70)\n        tag_72:\n            /* \"#utility.yul\":1848:1849   */\n          0x00\n            /* \"#utility.yul\":1839:1845   */\n          dup5\n            /* \"#utility.yul\":1834:1837   */\n          dup5\n            /* \"#utility.yul\":1830:1846   */\n          add\n            /* \"#utility.yul\":1823:1850   */\n          mstore\n            /* \"#utility.yul\":1672:1856   */\n          pop\n            /* \"#utility.yul\":1610:1856   */\n          pop\n          pop\n          pop\n          jump\t// out\n            /* \"#utility.yul\":1862:2296   */\n        tag_23:\n            /* \"#utility.yul\":1951:1956   */\n          0x00\n            /* \"#utility.yul\":1976:2042   */\n          tag_74\n            /* \"#utility.yul\":1992:2041   */\n          tag_75\n            /* \"#utility.yul\":2034:2040   */\n          dup5\n            /* \"#utility.yul\":1992:2041   */\n          tag_21\n          jump\t// in\n        tag_75:\n            /* \"#utility.yul\":1976:2042   */\n          tag_20\n          jump\t// in\n        tag_74:\n            /* \"#utility.yul\":1967:2042   */\n          swap1\n          pop\n            /* \"#utility.yul\":2065:2071   */\n          dup3\n            /* \"#utility.yul\":2058:2063   */\n          dup2\n            /* \"#utility.yul\":2051:2072   */\n          mstore\n            /* \"#utility.yul\":2103:2107   */\n          0x20\n            /* \"#utility.yul\":2096:2101   */\n          dup2\n            /* \"#utility.yul\":2092:2108   */\n          add\n            /* \"#utility.yul\":2141:2144   */\n          dup5\n            /* \"#utility.yul\":2132:2138   */\n          dup5\n            /* \"#utility.yul\":2127:2130   */\n          dup5\n            /* \"#utility.yul\":2123:2139   */\n          add\n            /* \"#utility.yul\":2120:2145   */\n          gt\n            /* \"#utility.yul\":2117:2229   */\n          iszero\n          tag_76\n          jumpi\n            /* \"#utility.yul\":2148:2227   */\n          tag_77\n          tag_16\n          jump\t// in\n        tag_77:\n            /* \"#utility.yul\":2117:2229   */\n        tag_76:\n            /* \"#utility.yul\":2238:2290   */\n          tag_78\n            /* \"#utility.yul\":2283:2289   */\n          dup5\n            /* \"#utility.yul\":2278:2281   */\n          dup3\n            /* \"#utility.yul\":2273:2276   */\n          dup6\n            /* \"#utility.yul\":2238:2290   */\n          tag_22\n          jump\t// in\n        tag_78:\n            /* \"#utility.yul\":1957:2296   */\n          pop\n            /* \"#utility.yul\":1862:2296   */\n          swap4\n          swap3\n          pop\n          pop\n          pop\n          jump\t// out\n            /* \"#utility.yul\":2316:2671   */\n        tag_24:\n            /* \"#utility.yul\":2383:2388   */\n          0x00\n            /* \"#utility.yul\":2432:2435   */\n          dup3\n            /* \"#utility.yul\":2425:2429   */\n          0x1f\n            /* \"#utility.yul\":2417:2423   */\n          dup4\n            /* \"#utility.yul\":2413:2430   */\n          add\n            /* \"#utility.yul\":2409:2436   */\n          slt\n            /* \"#utility.yul\":2399:2521   */\n          tag_80\n          jumpi\n            /* \"#utility.yul\":2440:2519   */\n          tag_81\n          tag_15\n          jump\t// in\n        tag_81:\n            /* \"#utility.yul\":2399:2521   */\n        tag_80:\n            /* \"#utility.yul\":2550:2556   */\n          dup2\n            /* \"#utility.yul\":2544:2557   */\n          mload\n            /* \"#utility.yul\":2575:2665   */\n          tag_82\n            /* \"#utility.yul\":2661:2664   */\n          dup5\n            /* \"#utility.yul\":2653:2659   */\n          dup3\n            /* \"#utility.yul\":2646:2650   */\n          0x20\n            /* \"#utility.yul\":2638:2644   */\n          dup7\n            /* \"#utility.yul\":2634:2651   */\n          add\n            /* \"#utility.yul\":2575:2665   */\n          tag_23\n          jump\t// in\n        tag_82:\n            /* \"#utility.yul\":2566:2665   */\n          swap2\n          pop\n            /* \"#utility.yul\":2389:2671   */\n          pop\n            /* \"#utility.yul\":2316:2671   */\n          swap3\n          swap2\n          pop\n          pop\n          jump\t// out\n            /* \"#utility.yul\":2677:2803   */\n        tag_25:\n            /* \"#utility.yul\":2714:2721   */\n          0x00\n            /* \"#utility.yul\":2754:2796   */\n          0xffffffffffffffffffffffffffffffffffffffff\n            /* \"#utility.yul\":2747:2752   */\n          dup3\n            /* \"#utility.yul\":2743:2797   */\n          and\n            /* \"#utility.yul\":2732:2797   */\n          swap1\n          pop\n            /* \"#utility.yul\":2677:2803   */\n          swap2\n          swap1\n          pop\n          jump\t// out\n            /* \"#utility.yul\":2809:2905   */\n        tag_26:\n            /* \"#utility.yul\":2846:2853   */\n          0x00\n            /* \"#utility.yul\":2875:2899   */\n          tag_85\n            /* \"#utility.yul\":2893:2898   */\n          dup3\n            /* \"#utility.yul\":2875:2899   */\n          tag_25\n          jump\t// in\n        tag_85:\n            /* \"#utility.yul\":2864:2899   */\n          swap1\n          pop\n            /* \"#utility.yul\":2809:2905   */\n          swap2\n          swap1\n          pop\n          jump\t// out\n            /* \"#utility.yul\":2911:3033   */\n        tag_27:\n            /* \"#utility.yul\":2984:3008   */\n          tag_87\n            /* \"#utility.yul\":3002:3007   */\n          dup2\n            /* \"#utility.yul\":2984:3008   */\n          tag_26\n          jump\t// in\n        tag_87:\n            /* \"#utility.yul\":2977:2982   */\n          dup2\n            /* \"#utility.yul\":2974:3009   */\n          eq\n            /* \"#utility.yul\":2964:3027   */\n          tag_88\n          jumpi\n            /* \"#utility.yul\":3023:3024   */\n          0x00\n            /* \"#utility.yul\":3020:3021   */\n          dup1\n            /* \"#utility.yul\":3013:3025   */\n          revert\n            /* \"#utility.yul\":2964:3027   */\n        tag_88:\n            /* \"#utility.yul\":2911:3033   */\n          pop\n          jump\t// out\n            /* \"#utility.yul\":3039:3182   */\n        tag_28:\n            /* \"#utility.yul\":3096:3101   */\n          0x00\n            /* \"#utility.yul\":3127:3133   */\n          dup2\n            /* \"#utility.yul\":3121:3134   */\n          mload\n            /* \"#utility.yul\":3112:3134   */\n          swap1\n          pop\n            /* \"#utility.yul\":3143:3176   */\n          tag_90\n            /* \"#utility.yul\":3170:3175   */\n          dup2\n            /* \"#utility.yul\":3143:3176   */\n          tag_27\n          jump\t// in\n        tag_90:\n            /* \"#utility.yul\":3039:3182   */\n          swap3\n          swap2\n          pop\n          pop\n          jump\t// out\n            /* \"#utility.yul\":3188:3265   */\n        tag_29:\n            /* \"#utility.yul\":3225:3232   */\n          0x00\n            /* \"#utility.yul\":3254:3259   */\n          dup2\n            /* \"#utility.yul\":3243:3259   */\n          swap1\n          pop\n            /* \"#utility.yul\":3188:3265   */\n          swap2\n          swap1\n          pop\n          jump\t// out\n            /* \"#utility.yul\":3271:3393   */\n        tag_30:\n            /* \"#utility.yul\":3344:3368   */\n          tag_93\n            /* \"#utility.yul\":3362:3367   */\n          dup2\n            /* \"#utility.yul\":3344:3368   */\n          tag_29\n          jump\t// in\n        tag_93:\n            /* \"#utility.yul\":3337:3342   */\n          dup2\n            /* \"#utility.yul\":3334:3369   */\n          eq\n            /* \"#utility.yul\":3324:3387   */\n          tag_94\n          jumpi\n            /* \"#utility.yul\":3383:3384   */\n          0x00\n            /* \"#utility.yul\":3380:3381   */\n          dup1\n            /* \"#utility.yul\":3373:3385   */\n          revert\n            /* \"#utility.yul\":3324:3387   */\n        tag_94:\n            /* \"#utility.yul\":3271:3393   */\n          pop\n          jump\t// out\n            /* \"#utility.yul\":3399:3542   */\n        tag_31:\n            /* \"#utility.yul\":3456:3461   */\n          0x00\n            /* \"#utility.yul\":3487:3493   */\n          dup2\n            /* \"#utility.yul\":3481:3494   */\n          mload\n            /* \"#utility.yul\":3472:3494   */\n          swap1\n          pop\n            /* \"#utility.yul\":3503:3536   */\n          tag_96\n            /* \"#utility.yul\":3530:3535   */\n          dup2\n            /* \"#utility.yul\":3503:3536   */\n          tag_30\n          jump\t// in\n        tag_96:\n            /* \"#utility.yul\":3399:3542   */\n          swap3\n          swap2\n          pop\n          pop\n          jump\t// out\n            /* \"#utility.yul\":3548:5374   */\n        tag_3:\n            /* \"#utility.yul\":3703:3709   */\n          0x00\n            /* \"#utility.yul\":3711:3717   */\n          dup1\n            /* \"#utility.yul\":3719:3725   */\n          0x00\n            /* \"#utility.yul\":3727:3733   */\n          dup1\n            /* \"#utility.yul\":3735:3741   */\n          0x00\n            /* \"#utility.yul\":3743:3749   */\n          dup1\n            /* \"#utility.yul\":3792:3795   */\n          0xc0\n            /* \"#utility.yul\":3780:3789   */\n          dup8\n            /* \"#utility.yul\":3771:3778   */\n          dup10\n            /* \"#utility.yul\":3767:3790   */\n          sub\n            /* \"#utility.yul\":3763:3796   */\n          slt\n            /* \"#utility.yul\":3760:3880   */\n          iszero\n          tag_98\n          jumpi\n            /* \"#utility.yul\":3799:3878   */\n          tag_99\n          tag_13\n          jump\t// in\n        tag_99:\n            /* \"#utility.yul\":3760:3880   */\n        tag_98:\n            /* \"#utility.yul\":3940:3941   */\n          0x00\n            /* \"#utility.yul\":3929:3938   */\n          dup8\n            /* \"#utility.yul\":3925:3942   */\n          add\n            /* \"#utility.yul\":3919:3943   */\n          mload\n            /* \"#utility.yul\":3970:3988   */\n          0xffffffffffffffff\n            /* \"#utility.yul\":3962:3968   */\n          dup2\n            /* \"#utility.yul\":3959:3989   */\n          gt\n            /* \"#utility.yul\":3956:4073   */\n          iszero\n          tag_100\n          jumpi\n            /* \"#utility.yul\":3992:4071   */\n          tag_101\n          tag_14\n          jump\t// in\n        tag_101:\n            /* \"#utility.yul\":3956:4073   */\n        tag_100:\n            /* \"#utility.yul\":4097:4171   */\n          tag_102\n            /* \"#utility.yul\":4163:4170   */\n          dup10\n            /* \"#utility.yul\":4154:4160   */\n          dup3\n            /* \"#utility.yul\":4143:4152   */\n          dup11\n            /* \"#utility.yul\":4139:4161   */\n          add\n            /* \"#utility.yul\":4097:4171   */\n          tag_24\n          jump\t// in\n        tag_102:\n            /* \"#utility.yul\":4087:4171   */\n          swap7\n          pop\n            /* \"#utility.yul\":3890:4181   */\n          pop\n            /* \"#utility.yul\":4241:4243   */\n          0x20\n            /* \"#utility.yul\":4230:4239   */\n          dup8\n            /* \"#utility.yul\":4226:4244   */\n          add\n            /* \"#utility.yul\":4220:4245   */\n          mload\n            /* \"#utility.yul\":4272:4290   */\n          0xffffffffffffffff\n            /* \"#utility.yul\":4264:4270   */\n          dup2\n            /* \"#utility.yul\":4261:4291   */\n          gt\n            /* \"#utility.yul\":4258:4375   */\n          iszero\n          tag_103\n          jumpi\n            /* \"#utility.yul\":4294:4373   */\n          tag_104\n          tag_14\n          jump\t// in\n        tag_104:\n            /* \"#utility.yul\":4258:4375   */\n        tag_103:\n            /* \"#utility.yul\":4399:4473   */\n          tag_105\n            /* \"#utility.yul\":4465:4472   */\n          dup10\n            /* \"#utility.yul\":4456:4462   */\n          dup3\n            /* \"#utility.yul\":4445:4454   */\n          dup11\n            /* \"#utility.yul\":4441:4463   */\n          add\n            /* \"#utility.yul\":4399:4473   */\n          tag_24\n          jump\t// in\n        tag_105:\n            /* \"#utility.yul\":4389:4473   */\n          swap6\n          pop\n            /* \"#utility.yul\":4191:4483   */\n          pop\n            /* \"#utility.yul\":4543:4545   */\n          0x40\n            /* \"#utility.yul\":4532:4541   */\n          dup8\n            /* \"#utility.yul\":4528:4546   */\n          add\n            /* \"#utility.yul\":4522:4547   */\n          mload\n            /* \"#utility.yul\":4574:4592   */\n          0xffffffffffffffff\n            /* \"#utility.yul\":4566:4572   */\n          dup2\n            /* \"#utility.yul\":4563:4593   */\n          gt\n            /* \"#utility.yul\":4560:4677   */\n          iszero\n          tag_106\n          jumpi\n            /* \"#utility.yul\":4596:4675   */\n          tag_107\n          tag_14\n          jump\t// in\n        tag_107:\n            /* \"#utility.yul\":4560:4677   */\n        tag_106:\n            /* \"#utility.yul\":4701:4775   */\n          tag_108\n            /* \"#utility.yul\":4767:4774   */\n          dup10\n            /* \"#utility.yul\":4758:4764   */\n          dup3\n            /* \"#utility.yul\":4747:4756   */\n          dup11\n            /* \"#utility.yul\":4743:4765   */\n          add\n            /* \"#utility.yul\":4701:4775   */\n          tag_24\n          jump\t// in\n        tag_108:\n            /* \"#utility.yul\":4691:4775   */\n          swap5\n          pop\n            /* \"#utility.yul\":4493:4785   */\n          pop\n            /* \"#utility.yul\":4845:4847   */\n          0x60\n            /* \"#utility.yul\":4834:4843   */\n          dup8\n            /* \"#utility.yul\":4830:4848   */\n          add\n            /* \"#utility.yul\":4824:4849   */\n          mload\n            /* \"#utility.yul\":4876:4894   */\n          0xffffffffffffffff\n            /* \"#utility.yul\":4868:4874   */\n          dup2\n            /* \"#utility.yul\":4865:4895   */\n          gt\n            /* \"#utility.yul\":4862:4979   */\n          iszero\n          tag_109\n          jumpi\n            /* \"#utility.yul\":4898:4977   */\n          tag_110\n          tag_14\n          jump\t// in\n        tag_110:\n            /* \"#utility.yul\":4862:4979   */\n        tag_109:\n            /* \"#utility.yul\":5003:5077   */\n          tag_111\n            /* \"#utility.yul\":5069:5076   */\n          dup10\n            /* \"#utility.yul\":5060:5066   */\n          dup3\n            /* \"#utility.yul\":5049:5058   */\n          dup11\n            /* \"#utility.yul\":5045:5067   */\n          add\n            /* \"#utility.yul\":5003:5077   */\n          tag_24\n          jump\t// in\n        tag_111:\n            /* \"#utility.yul\":4993:5077   */\n          swap4\n          pop\n            /* \"#utility.yul\":4795:5087   */\n          pop\n            /* \"#utility.yul\":5126:5129   */\n          0x80\n            /* \"#utility.yul\":5153:5217   */\n          tag_112\n            /* \"#utility.yul\":5209:5216   */\n          dup10\n            /* \"#utility.yul\":5200:5206   */\n          dup3\n            /* \"#utility.yul\":5189:5198   */\n          dup11\n            /* \"#utility.yul\":5185:5207   */\n          add\n            /* \"#utility.yul\":5153:5217   */\n          tag_28\n          jump\t// in\n        tag_112:\n            /* \"#utility.yul\":5143:5217   */\n          swap3\n          pop\n            /* \"#utility.yul\":5097:5227   */\n          pop\n            /* \"#utility.yul\":5266:5269   */\n          0xa0\n            /* \"#utility.yul\":5293:5357   */\n          tag_113\n            /* \"#utility.yul\":5349:5356   */\n          dup10\n            /* \"#utility.yul\":5340:5346   */\n          dup3\n            /* \"#utility.yul\":5329:5338   */\n          dup11\n            /* \"#utility.yul\":5325:5347   */\n          add\n            /* \"#utility.yul\":5293:5357   */\n          tag_31\n          jump\t// in\n        tag_113:\n            /* \"#utility.yul\":5283:5357   */\n          swap2\n          pop\n            /* \"#utility.yul\":5237:5367   */\n          pop\n            /* \"#utility.yul\":3548:5374   */\n          swap3\n          swap6\n          pop\n          swap3\n          swap6\n          pop\n          swap3\n          swap6\n          jump\t// out\n            /* \"#utility.yul\":5380:5479   */\n        tag_32:\n            /* \"#utility.yul\":5432:5438   */\n          0x00\n            /* \"#utility.yul\":5466:5471   */\n          dup2\n            /* \"#utility.yul\":5460:5472   */\n          mload\n            /* \"#utility.yul\":5450:5472   */\n          swap1\n          pop\n            /* \"#utility.yul\":5380:5479   */\n          swap2\n          swap1\n          pop\n          jump\t// out\n            /* \"#utility.yul\":5485:5665   */\n        tag_33:\n            /* \"#utility.yul\":5533:5610   */\n          0x4e487b7100000000000000000000000000000000000000000000000000000000\n            /* \"#utility.yul\":5530:5531   */\n          0x00\n            /* \"#utility.yul\":5523:5611   */\n          mstore\n            /* \"#utility.yul\":5630:5634   */\n          0x22\n            /* \"#utility.yul\":5627:5628   */\n          0x04\n            /* \"#utility.yul\":5620:5635   */\n          mstore\n            /* \"#utility.yul\":5654:5658   */\n          0x24\n            /* \"#utility.yul\":5651:5652   */\n          0x00\n            /* \"#utility.yul\":5644:5659   */\n          revert\n            /* \"#utility.yul\":5671:5991   */\n        tag_34:\n            /* \"#utility.yul\":5715:5721   */\n          0x00\n            /* \"#utility.yul\":5752:5753   */\n          0x02\n            /* \"#utility.yul\":5746:5750   */\n          dup3\n            /* \"#utility.yul\":5742:5754   */\n          div\n            /* \"#utility.yul\":5732:5754   */\n          swap1\n          pop\n            /* \"#utility.yul\":5799:5800   */\n          0x01\n            /* \"#utility.yul\":5793:5797   */\n          dup3\n            /* \"#utility.yul\":5789:5801   */\n          and\n            /* \"#utility.yul\":5820:5838   */\n          dup1\n            /* \"#utility.yul\":5810:5891   */\n          tag_117\n          jumpi\n            /* \"#utility.yul\":5876:5880   */\n          0x7f\n            /* \"#utility.yul\":5868:5874   */\n          dup3\n            /* \"#utility.yul\":5864:5881   */\n          and\n            /* \"#utility.yul\":5854:5881   */\n          swap2\n          pop\n            /* \"#utility.yul\":5810:5891   */\n        tag_117:\n            /* \"#utility.yul\":5938:5940   */\n          0x20\n            /* \"#utility.yul\":5930:5936   */\n          dup3\n            /* \"#utility.yul\":5927:5941   */\n          lt\n            /* \"#utility.yul\":5907:5925   */\n          dup2\n            /* \"#utility.yul\":5904:5942   */\n          sub\n            /* \"#utility.yul\":5901:5985   */\n          tag_118\n          jumpi\n            /* \"#utility.yul\":5957:5975   */\n          tag_119\n          tag_33\n          jump\t// in\n        tag_119:\n            /* \"#utility.yul\":5901:5985   */\n        tag_118:\n            /* \"#utility.yul\":5722:5991   */\n          pop\n            /* \"#utility.yul\":5671:5991   */\n          swap2\n          swap1\n          pop\n          jump\t// out\n            /* \"#utility.yul\":5997:6138   */\n        tag_35:\n            /* \"#utility.yul\":6046:6050   */\n          0x00\n            /* \"#utility.yul\":6069:6072   */\n          dup2\n            /* \"#utility.yul\":6061:6072   */\n          swap1\n          pop\n            /* \"#utility.yul\":6092:6095   */\n          dup2\n            /* \"#utility.yul\":6089:6090   */\n          0x00\n            /* \"#utility.yul\":6082:6096   */\n          mstore\n            /* \"#utility.yul\":6126:6130   */\n          0x20\n            /* \"#utility.yul\":6123:6124   */\n          0x00\n            /* \"#utility.yul\":6113:6131   */\n          keccak256\n            /* \"#utility.yul\":6105:6131   */\n          swap1\n          pop\n            /* \"#utility.yul\":5997:6138   */\n          swap2\n          swap1\n          pop\n          jump\t// out\n            /* \"#utility.yul\":6144:6237   */\n        tag_36:\n            /* \"#utility.yul\":6181:6187   */\n          0x00\n            /* \"#utility.yul\":6228:6230   */\n          0x20\n            /* \"#utility.yul\":6223:6225   */\n          0x1f\n            /* \"#utility.yul\":6216:6221   */\n          dup4\n            /* \"#utility.yul\":6212:6226   */\n          add\n            /* \"#utility.yul\":6208:6231   */\n          div\n            /* \"#utility.yul\":6198:6231   */\n          swap1\n          pop\n            /* \"#utility.yul\":6144:6237   */\n          swap2\n          swap1\n          pop\n          jump\t// out\n            /* \"#utility.yul\":6243:6350   */\n        tag_37:\n            /* \"#utility.yul\":6287:6295   */\n          0x00\n            /* \"#utility.yul\":6337:6342   */\n          dup3\n            /* \"#utility.yul\":6331:6335   */\n          dup3\n            /* \"#utility.yul\":6327:6343   */\n          shl\n            /* \"#utility.yul\":6306:6343   */\n          swap1\n          pop\n            /* \"#utility.yul\":6243:6350   */\n          swap3\n          swap2\n          pop\n          pop\n          jump\t// out\n            /* \"#utility.yul\":6356:6749   */\n        tag_38:\n            /* \"#utility.yul\":6425:6431   */\n          0x00\n            /* \"#utility.yul\":6475:6476   */\n          0x08\n            /* \"#utility.yul\":6463:6473   */\n          dup4\n            /* \"#utility.yul\":6459:6477   */\n          mul\n            /* \"#utility.yul\":6498:6595   */\n          tag_124\n            /* \"#utility.yul\":6528:6594   */\n          0xffffffffffffffffffffffffffffffffffffffffffffffffffffffffffffffff\n            /* \"#utility.yul\":6517:6526   */\n          dup3\n            /* \"#utility.yul\":6498:6595   */\n          tag_37\n          jump\t// in\n        tag_124:\n            /* \"#utility.yul\":6616:6655   */\n          tag_125\n            /* \"#utility.yul\":6646:6654   */\n          dup7\n            /* \"#utility.yul\":6635:6644   */\n          dup4\n            /* \"#utility.yul\":6616:6655   */\n          tag_37\n          jump\t// in\n        tag_125:\n            /* \"#utility.yul\":6604:6655   */\n          swap6\n          pop\n            /* \"#utility.yul\":6688:6692   */\n          dup1\n            /* \"#utility.yul\":6684:6693   */\n          not\n            /* \"#utility.yul\":6677:6682   */\n          dup5\n            /* \"#utility.yul\":6673:6694   */\n          and\n            /* \"#utility.yul\":6664:6694   */\n          swap4\n          pop\n            /* \"#utility.yul\":6737:6741   */\n          dup1\n            /* \"#utility.yul\":6727:6735   */\n          dup7\n            /* \"#utility.yul\":6723:6742   */\n          and\n            /* \"#utility.yul\":6716:6721   */\n          dup5\n            /* \"#utility.yul\":6713:6743   */\n          or\n            /* \"#utility.yul\":6703:6743   */\n          swap3\n          pop\n            /* \"#utility.yul\":6432:6749   */\n          pop\n          pop\n            /* \"#utility.yul\":6356:6749   */\n          swap4\n          swap3\n          pop\n          pop\n          pop\n          jump\t// out\n            /* \"#utility.yul\":6755:6815   */\n        tag_39:\n            /* \"#utility.yul\":6783:6786   */\n          0x00\n            /* \"#utility.yul\":6804:6809   */\n          dup2\n            /* \"#utility.yul\":6797:6809   */\n          swap1\n          pop\n            /* \"#utility.yul\":6755:6815   */\n          swap2\n          swap1\n          pop\n          jump\t// out\n            /* \"#utility.yul\":6821:6963   */\n        tag_40:\n            /* \"#utility.yul\":6871:6880   */\n          0x00\n            /* \"#utility.yul\":6904:6957   */\n          tag_128\n            /* \"#utility.yul\":6922:6956   */\n          tag_129\n            /* \"#utility.yul\":6931:6955   */\n          tag_130\n            /* \"#utility.yul\":6949:6954   */\n          dup5\n            /* \"#utility.yul\":6931:6955   */\n          tag_29\n          jump\t// in\n        tag_130:\n            /* \"#utility.yul\":6922:6956   */\n          tag_39\n          jump\t// in\n        tag_129:\n            /* \"#utility.yul\":6904:6957   */\n          tag_29\n          jump\t// in\n        tag_128:\n            /* \"#utility.yul\":6891:6957   */\n          swap1\n          pop\n            /* \"#utility.yul\":6821:6963   */\n          swap2\n          swap1\n          pop\n          jump\t// out\n            /* \"#utility.yul\":6969:7044   */\n        tag_41:\n            /* \"#utility.yul\":7012:7015   */\n          0x00\n            /* \"#utility.yul\":7033:7038   */\n          dup2\n            /* \"#utility.yul\":7026:7038   */\n          swap1\n          pop\n            /* \"#utility.yul\":6969:7044   */\n          swap2\n          swap1\n          pop\n          jump\t// out\n            /* \"#utility.yul\":7050:7319   */\n        tag_42:\n            /* \"#utility.yul\":7160:7199   */\n          tag_133\n            /* \"#utility.yul\":7191:7198   */\n          dup4\n            /* \"#utility.yul\":7160:7199   */\n          tag_40\n          jump\t// in\n        tag_133:\n            /* \"#utility.yul\":7221:7312   */\n          tag_134\n            /* \"#utility.yul\":7270:7311   */\n          tag_135\n            /* \"#utility.yul\":7294:7310   */\n          dup3\n            /* \"#utility.yul\":7270:7311   */\n          tag_41\n          jump\t// in\n        tag_135:\n            /* \"#utility.yul\":7262:7268   */\n          dup5\n            /* \"#utility.yul\":7255:7259   */\n          dup5\n            /* \"#utility.yul\":7249:7260   */\n          sload\n            /* \"#utility.yul\":7221:7312   */\n          tag_38\n          jump\t// in\n        tag_134:\n            /* \"#utility.yul\":7215:7219   */\n          dup3\n            /* \"#utility.yul\":7208:7313   */\n          sstore\n            /* \"#utility.yul\":7126:7319   */\n          pop\n            /* \"#utility.yul\":7050:7319   */\n          pop\n          pop\n          pop\n          jump\t// out\n            /* \"#utility.yul\":7325:7398   */\n        tag_43:\n            /* \"#utility.yul\":7370:7373   */\n          0x00\n            /* \"#utility.yul\":7325:7398   */\n          swap1\n          jump\t// out\n            /* \"#utility.yul\":7404:7593   */\n        tag_44:\n            /* \"#utility.yul\":7481:7513   */\n          tag_138\n          tag_43\n          jump\t// in\n        tag_138:\n            /* \"#utility.yul\":7522:7587   */\n          tag_139\n            /* \"#utility.yul\":7580:7586   */\n          dup2\n            /* \"#utility.yul\":7572:7578   */\n          dup5\n            /* \"#utility.yul\":7566:7570   */\n          dup5\n            /* \"#utility.yul\":7522:7587   */\n          tag_42\n          jump\t// in\n        tag_139:\n            /* \"#utility.yul\":7457:7593   */\n          pop\n            /* \"#utility.yul\":7404:7593   */\n          pop\n          pop\n          jump\t// out\n            /* \"#utility.yul\":7599:7785   */\n        tag_45:\n            /* \"#utility.yul\":7659:7779   */\n        tag_141:\n            /* \"#utility.yul\":7676:7679   */\n          dup2\n            /* \"#utility.yul\":7669:7674   */\n          dup2\n            /* \"#utility.yul\":7666:7680   */\n          lt\n            /* \"#utility.yul\":7659:7779   */\n          iszero\n          tag_143\n          jumpi\n            /* \"#utility.yul\":7730:7769   */\n          tag_144\n            /* \"#utility.yul\":7767:7768   */\n          0x00\n            /* \"#utility.yul\":7760:7765   */\n          dup3\n            /* \"#utility.yul\":7730:7769   */\n          tag_44\n          jump\t// in\n        tag_144:\n            /* \"#utility.yul\":7703:7704   */\n          0x01\n            /* \"#utility.yul\":7696:7701   */\n          dup2\n            /* \"#utility.yul\":7692:7705   */\n          add\n            /* \"#utility.yul\":7683:7705   */\n          swap1\n          pop\n            /* \"#utility.yul\":7659:7779   */\n          jump(tag_141)\n        tag_143:\n            /* \"#utility.yul\":7599:7785   */\n          pop\n          pop\n          jump\t// out\n            /* \"#utility.yul\":7791:8334   */\n        tag_46:\n            /* \"#utility.yul\":7892:7894   */\n          0x1f\n            /* \"#utility.yul\":7887:7890   */\n          dup3\n            /* \"#utility.yul\":7884:7895   */\n          gt\n            /* \"#utility.yul\":7881:8327   */\n          iszero\n          tag_146\n          jumpi\n            /* \"#utility.yul\":7926:7964   */\n          tag_147\n            /* \"#utility.yul\":7958:7963   */\n          dup2\n            /* \"#utility.yul\":7926:7964   */\n          tag_35\n          jump\t// in\n        tag_147:\n            /* \"#utility.yul\":8010:8039   */\n          tag_148\n            /* \"#utility.yul\":8028:8038   */\n          dup5\n            /* \"#utility.yul\":8010:8039   */\n          tag_36\n          jump\t// in\n        tag_148:\n            /* \"#utility.yul\":8000:8008   */\n          dup2\n            /* \"#utility.yul\":7996:8040   */\n          add\n            /* \"#utility.yul\":8193:8195   */\n          0x20\n            /* \"#utility.yul\":8181:8191   */\n          dup6\n            /* \"#utility.yul\":8178:8196   */\n          lt\n            /* \"#utility.yul\":8175:8224   */\n          iszero\n          tag_149\n          jumpi\n            /* \"#utility.yul\":8214:8222   */\n          dup2\n            /* \"#utility.yul\":8199:8222   */\n          swap1\n          pop\n            /* \"#utility.yul\":8175:8224   */\n        tag_149:\n            /* \"#utility.yul\":8237:8317   */\n          tag_150\n            /* \"#utility.yul\":8293:8315   */\n          tag_151\n            /* \"#utility.yul\":8311:8314   */\n          dup6\n            /* \"#utility.yul\":8293:8315   */\n          tag_36\n          jump\t// in\n        tag_151:\n            /* \"#utility.yul\":8283:8291   */\n          dup4\n            /* \"#utility.yul\":8279:8316   */\n          add\n            /* \"#utility.yul\":8266:8277   */\n          dup3\n            /* \"#utility.yul\":8237:8317   */\n          tag_45\n          jump\t// in\n        tag_150:\n            /* \"#utility.yul\":7896:8327   */\n          pop\n          pop\n            /* \"#utility.yul\":7881:8327   */\n        tag_146:\n            /* \"#utility.yul\":7791:8334   */\n          pop\n          pop\n          pop\n          jump\t// out\n            /* \"#utility.yul\":8340:8457   */\n        tag_47:\n            /* \"#utility.yul\":8394:8402   */\n          0x00\n            /* \"#utility.yul\":8444:8449   */\n          dup3\n            /* \"#utility.yul\":8438:8442   */\n          dup3\n            /* \"#utility.yul\":8434:8450   */\n          shr\n            /* \"#utility.yul\":8413:8450   */\n          swap1\n          pop\n            /* \"#utility.yul\":8340:8457   */\n          swap3\n          swap2\n          pop\n          pop\n          jump\t// out\n            /* \"#utility.yul\":8463:8632   */\n        tag_48:\n            /* \"#utility.yul\":8507:8513   */\n          0x00\n            /* \"#utility.yul\":8540:8591   */\n          tag_154\n            /* \"#utility.yul\":8588:8589   */\n          0x00\n            /* \"#utility.yul\":8584:8590   */\n          not\n            /* \"#utility.yul\":8576:8581   */\n          dup5\n            /* \"#utility.yul\":8573:8574   */\n          0x08\n            /* \"#utility.yul\":8569:8582   */\n          mul\n            /* \"#utility.yul\":8540:8591   */\n          tag_47\n          jump\t// in\n        tag_154:\n            /* \"#utility.yul\":8536:8592   */\n          not\n            /* \"#utility.yul\":8621:8625   */\n          dup1\n            /* \"#utility.yul\":8615:8619   */\n          dup4\n            /* \"#utility.yul\":8611:8626   */\n          and\n            /* \"#utility.yul\":8601:8626   */\n          swap2\n          pop\n            /* \"#utility.yul\":8514:8632   */\n          pop\n            /* \"#utility.yul\":8463:8632   */\n          swap3\n          swap2\n          pop\n          pop\n          jump\t// out\n            /* \"#utility.yul\":8637:8932   */\n        tag_49:\n            /* \"#utility.yul\":8713:8717   */\n          0x00\n            /* \"#utility.yul\":8859:8888   */\n          tag_156\n            /* \"#utility.yul\":8884:8887   */\n          dup4\n            /* \"#utility.yul\":8878:8882   */\n          dup4\n            /* \"#utility.yul\":8859:8888   */\n          tag_48\n          jump\t// in\n        tag_156:\n            /* \"#utility.yul\":8851:8888   */\n          swap2\n          pop\n            /* \"#utility.yul\":8921:8924   */\n          dup3\n            /* \"#utility.yul\":8918:8919   */\n          0x02\n            /* \"#utility.yul\":8914:8925   */\n          mul\n            /* \"#utility.yul\":8908:8912   */\n          dup3\n            /* \"#utility.yul\":8905:8926   */\n          or\n            /* \"#utility.yul\":8897:8926   */\n          swap1\n          pop\n            /* \"#utility.yul\":8637:8932   */\n          swap3\n          swap2\n          pop\n          pop\n          jump\t// out\n            /* \"#utility.yul\":8937:10332   */\n        tag_7:\n            /* \"#utility.yul\":9054:9091   */\n          tag_158\n            /* \"#utility.yul\":9087:9090   */\n          dup3\n            /* \"#utility.yul\":9054:9091   */\n          tag_32\n          jump\t// in\n        tag_158:\n            /* \"#utility.yul\":9156:9174   */\n          0xffffffffffffffff\n            /* \"#utility.yul\":9148:9154   */\n          dup2\n            /* \"#utility.yul\":9145:9175   */\n          gt\n            /* \"#utility.yul\":9142:9198   */\n          iszero\n          tag_159\n          jumpi\n            /* \"#utility.yul\":9178:9196   */\n          tag_160\n          tag_18\n          jump\t// in\n        tag_160:\n            /* \"#utility.yul\":9142:9198   */\n        tag_159:\n            /* \"#utility.yul\":9222:9260   */\n          tag_161\n            /* \"#utility.yul\":9254:9258   */\n          dup3\n            /* \"#utility.yul\":9248:9259   */\n          sload\n            /* \"#utility.yul\":9222:9260   */\n          tag_34\n          jump\t// in\n        tag_161:\n            /* \"#utility.yul\":9307:9374   */\n          tag_162\n            /* \"#utility.yul\":9367:9373   */\n          dup3\n            /* \"#utility.yul\":9359:9365   */\n          dup3\n            /* \"#utility.yul\":9353:9357   */\n          dup6\n            /* \"#utility.yul\":9307:9374   */\n          tag_46\n          jump\t// in\n        tag_162:\n            /* \"#utility.yul\":9401:9402   */\n          0x00\n            /* \"#utility.yul\":9425:9429   */\n          0x20\n            /* \"#utility.yul\":9412:9429   */\n          swap1\n          pop\n            /* \"#utility.yul\":9457:9459   */\n          0x1f\n            /* \"#utility.yul\":9449:9455   */\n          dup4\n            /* \"#utility.yul\":9446:9460   */\n          gt\n            /* \"#utility.yul\":9474:9475   */\n          0x01\n            /* \"#utility.yul\":9469:10087   */\n          dup2\n          eq\n          tag_164\n          jumpi\n            /* \"#utility.yul\":10131:10132   */\n          0x00\n            /* \"#utility.yul\":10148:10154   */\n          dup5\n            /* \"#utility.yul\":10145:10222   */\n          iszero\n          tag_165\n          jumpi\n            /* \"#utility.yul\":10197:10206   */\n          dup3\n            /* \"#utility.yul\":10192:10195   */\n          dup8\n            /* \"#utility.yul\":10188:10207   */\n          add\n            /* \"#utility.yul\":10182:10208   */\n          mload\n            /* \"#utility.yul\":10173:10208   */\n          swap1\n          pop\n            /* \"#utility.yul\":10145:10222   */\n        tag_165:\n            /* \"#utility.yul\":10248:10315   */\n          tag_166\n            /* \"#utility.yul\":10308:10314   */\n          dup6\n            /* \"#utility.yul\":10301:10306   */\n          dup3\n            /* \"#utility.yul\":10248:10315   */\n          tag_49\n          jump\t// in\n        tag_166:\n            /* \"#utility.yul\":10242:10246   */\n          dup7\n            /* \"#utility.yul\":10235:10316   */\n          sstore\n            /* \"#utility.yul\":10104:10326   */\n          pop\n            /* \"#utility.yul\":9439:10326   */\n          jump(tag_163)\n            /* \"#utility.yul\":9469:10087   */\n        tag_164:\n            /* \"#utility.yul\":9521:9525   */\n          0x1f\n            /* \"#utility.yul\":9517:9526   */\n          not\n            /* \"#utility.yul\":9509:9515   */\n          dup5\n            /* \"#utility.yul\":9505:9527   */\n          and\n            /* \"#utility.yul\":9555:9592   */\n          tag_167\n            /* \"#utility.yul\":9587:9591   */\n          dup7\n            /* \"#utility.yul\":9555:9592   */\n          tag_35\n          jump\t// in\n        tag_167:\n            /* \"#utility.yul\":9614:9615   */\n          0x00\n            /* \"#utility.yul\":9628:9836   */\n        tag_168:\n            /* \"#utility.yul\":9642:9649   */\n          dup3\n            /* \"#utility.yul\":9639:9640   */\n          dup2\n            /* \"#utility.yul\":9636:9650   */\n          lt\n            /* \"#utility.yul\":9628:9836   */\n          iszero\n          tag_170\n          jumpi\n            /* \"#utility.yul\":9721:9730   */\n          dup5\n            /* \"#utility.yul\":9716:9719   */\n          dup10\n            /* \"#utility.yul\":9712:9731   */\n          add\n            /* \"#utility.yul\":9706:9732   */\n          mload\n            /* \"#utility.yul\":9698:9704   */\n          dup3\n            /* \"#utility.yul\":9691:9733   */\n          sstore\n            /* \"#utility.yul\":9772:9773   */\n          0x01\n            /* \"#utility.yul\":9764:9770   */\n          dup3\n            /* \"#utility.yul\":9760:9774   */\n          add\n            /* \"#utility.yul\":9750:9774   */\n          swap2\n          pop\n            /* \"#utility.yul\":9819:9821   */\n          0x20\n            /* \"#utility.yul\":9808:9817   */\n          dup6\n            /* \"#utility.yul\":9804:9822   */\n          add\n            /* \"#utility.yul\":9791:9822   */\n          swap5\n          pop\n            /* \"#utility.yul\":9665:9669   */\n          0x20\n            /* \"#utility.yul\":9662:9663   */\n          dup2\n            /* \"#utility.yul\":9658:9670   */\n          add\n            /* \"#utility.yul\":9653:9670   */\n          swap1\n          pop\n            /* \"#utility.yul\":9628:9836   */\n          jump(tag_168)\n        tag_170:\n            /* \"#utility.yul\":9864:9870   */\n          dup7\n            /* \"#utility.yul\":9855:9862   */\n          dup4\n            /* \"#utility.yul\":9852:9871   */\n          lt\n            /* \"#utility.yul\":9849:10028   */\n          iszero\n          tag_171\n          jumpi\n            /* \"#utility.yul\":9922:9931   */\n          dup5\n            /* \"#utility.yul\":9917:9920   */\n          dup10\n            /* \"#utility.yul\":9913:9932   */\n          add\n            /* \"#utility.yul\":9907:9933   */\n          mload\n            /* \"#utility.yul\":9965:10013   */\n          tag_172\n            /* \"#utility.yul\":10007:10011   */\n          0x1f\n            /* \"#utility.yul\":9999:10005   */\n          dup10\n            /* \"#utility.yul\":9995:10012   */\n          and\n            /* \"#utility.yul\":9984:9993   */\n          dup3\n            /* \"#utility.yul\":9965:10013   */\n          tag_48\n          jump\t// in\n        tag_172:\n            /* \"#utility.yul\":9957:9963   */\n          dup4\n            /* \"#utility.yul\":9950:10014   */\n          sstore\n            /* \"#utility.yul\":9872:10028   */\n          pop\n            /* \"#utility.yul\":9849:10028   */\n        tag_171:\n            /* \"#utility.yul\":10074:10075   */\n          0x01\n            /* \"#utility.yul\":10070:10071   */\n          0x02\n            /* \"#utility.yul\":10062:10068   */\n          dup9\n            /* \"#utility.yul\":10058:10072   */\n          mul\n            /* \"#utility.yul\":10054:10076   */\n          add\n            /* \"#utility.yul\":10048:10052   */\n          dup9\n            /* \"#utility.yul\":10041:10077   */\n          sstore\n            /* \"#utility.yul\":9476:10087   */\n          pop\n          pop\n          pop\n            /* \"#utility.yul\":9439:10326   */\n        tag_163:\n          pop\n            /* \"#utility.yul\":9029:10332   */\n          pop\n          pop\n          pop\n            /* \"#utility.yul\":8937:10332   */\n          pop\n          pop\n          jump\t// out\n            /* \"PoHGames.sol\":1208:6707  contract TournamentPoH{... */\n        tag_11:\n          dataSize(sub_0)\n          dup1\n          dataOffset(sub_0)\n          0x00\n          codecopy\n          0x00\n          return\n        stop\n\n        sub_0: assembly {\n                /* \"PoHGames.sol\":1208:6707  contract TournamentPoH{... */\n              mstore(0x40, 0x80)\n              jumpi(tag_1, lt(calldatasize, 0x04))\n              shr(0xe0, calldataload(0x00))\n              dup1\n              0x6f129a2a\n              gt\n              tag_11\n              jumpi\n              dup1\n              0x6f129a2a\n              eq\n              tag_6\n              jumpi\n              dup1\n              0x7cbaf0f9\n              eq\n              tag_7\n              jumpi\n              dup1\n              0x8ee1d304\n              eq\n              tag_8\n              jumpi\n              dup1\n              0x92666a28\n              eq\n              tag_9\n              jumpi\n              dup1\n              0xb59fa296\n              eq\n              tag_10\n              jumpi\n              jump(tag_1)\n            tag_11:\n              dup1\n              0x04f6fac4\n              eq\n              tag_2\n              jumpi\n              dup1\n              0x338cdca1\n              eq\n              tag_3\n              jumpi\n              dup1\n              0x4051ddac\n              eq\n              tag_4\n              jumpi\n              dup1\n              0x68bd3d44\n              eq\n              tag_5\n              jumpi\n            tag_1:\n              0x00\n              dup1\n              revert\n                /* \"PoHGames.sol\":5641:5750  function setRegistrationClose () payable external restricted{     ... */\n            tag_2:\n              tag_12\n              tag_13\n              jump\t// in\n            tag_12:\n              stop\n                /* \"PoHGames.sol\":1562:1584  Request public request */\n            tag_3:\n              callvalue\n              dup1\n              iszero\n              tag_14\n              jumpi\n              0x00\n              dup1\n              revert\n            tag_14:\n              pop\n              tag_15\n              tag_16\n              jump\t// in\n            tag_15:\n              mload(0x40)\n              tag_17\n              swap10\n              swap9\n              swap8\n              swap7\n              swap6\n              swap5\n              swap4\n              swap3\n              swap2\n              swap1\n              tag_18\n              jump\t// in\n            tag_17:\n              mload(0x40)\n              dup1\n              swap2\n              sub\n              swap1\n              return\n                /* \"PoHGames.sol\":6253:6704  function getSummary() public view returns(... */\n            tag_4:\n              callvalue\n              dup1\n              iszero\n              tag_19\n              jumpi\n              0x00\n              dup1\n              revert\n            tag_19:\n              pop\n              tag_20\n              tag_21\n              jump\t// in\n            tag_20:\n              mload(0x40)\n              tag_22\n              swap9\n              swap8\n              swap7\n              swap6\n              swap5\n              swap4\n              swap3\n              swap2\n              swap1\n              tag_23\n              jump\t// in\n            tag_22:\n              mload(0x40)\n              dup1\n              swap2\n              sub\n              swap1\n              return\n                /* \"PoHGames.sol\":6132:6245  function getGamers (address _address) public view returns(bool){... */\n            tag_5:\n              callvalue\n              dup1\n              iszero\n              tag_24\n              jumpi\n              0x00\n              dup1\n              revert\n            tag_24:\n              pop\n              tag_25\n              0x04\n              dup1\n              calldatasize\n              sub\n              dup2\n              add\n              swap1\n              tag_26\n              swap2\n              swap1\n              tag_27\n              jump\t// in\n            tag_26:\n              tag_28\n              jump\t// in\n            tag_25:\n              mload(0x40)\n              tag_29\n              swap2\n              swap1\n              tag_30\n              jump\t// in\n            tag_29:\n              mload(0x40)\n              dup1\n              swap2\n              sub\n              swap1\n              return\n                /* \"PoHGames.sol\":5882:5990  function getRegistrationClose () public view returns(bool) {     ... */\n            tag_6:\n              callvalue\n              dup1\n              iszero\n              tag_31\n              jumpi\n              0x00\n              dup1\n              revert\n            tag_31:\n              pop\n              tag_32\n              tag_33\n              jump\t// in\n            tag_32:\n              mload(0x40)\n              tag_34\n              swap2\n              swap1\n              tag_30\n              jump\t// in\n            tag_34:\n              mload(0x40)\n              dup1\n              swap2\n              sub\n              swap1\n              return\n                /* \"PoHGames.sol\":5453:5564  function getTournamentFinished () public view returns(bool){... */\n            tag_7:\n              callvalue\n              dup1\n              iszero\n              tag_35\n              jumpi\n              0x00\n              dup1\n              revert\n            tag_35:\n              pop\n              tag_36\n              tag_37\n              jump\t// in\n            tag_36:\n              mload(0x40)\n              tag_38\n              swap2\n              swap1\n              tag_30\n              jump\t// in\n            tag_38:\n              mload(0x40)\n              dup1\n              swap2\n              sub\n              swap1\n              return\n                /* \"PoHGames.sol\":3309:3919  function registration(string memory _newUserPlatform, uint _registrationFees) public payable isOpen {... */\n            tag_8:\n              tag_39\n              0x04\n              dup1\n              calldatasize\n              sub\n              dup2\n              add\n              swap1\n              tag_40\n              swap2\n              swap1\n              tag_41\n              jump\t// in\n            tag_40:\n              tag_42\n              jump\t// in\n            tag_39:\n              stop\n                /* \"PoHGames.sol\":4248:5144  function payWinnersBurner (address payable _first, address payable _second, address payable _third) external restricted {... */\n            tag_9:\n              callvalue\n              dup1\n              iszero\n              tag_43\n              jumpi\n              0x00\n              dup1\n              revert\n            tag_43:\n              pop\n              tag_44\n              0x04\n              dup1\n              calldatasize\n              sub\n              dup2\n              add\n              swap1\n              tag_45\n              swap2\n              swap1\n              tag_46\n              jump\t// in\n            tag_45:\n              tag_47\n              jump\t// in\n            tag_44:\n              stop\n                /* \"PoHGames.sol\":5234:5347  function getTournamentName () public view returns (string memory){... */\n            tag_10:\n              callvalue\n              dup1\n              iszero\n              tag_48\n              jumpi\n              0x00\n              dup1\n              revert\n            tag_48:\n              pop\n              tag_49\n              tag_50\n              jump\t// in\n            tag_49:\n              mload(0x40)\n              tag_51\n              swap2\n              swap1\n              tag_52\n              jump\t// in\n            tag_51:\n              mload(0x40)\n              dup1\n              swap2\n              sub\n              swap1\n              return\n                /* \"PoHGames.sol\":5641:5750  function setRegistrationClose () payable external restricted{     ... */\n            tag_13:\n                /* \"PoHGames.sol\":2833:2840  request */\n              0x00\n                /* \"PoHGames.sol\":2833:2848  request.manager */\n              dup1\n              add\n              0x00\n              swap1\n              sload\n              swap1\n              0x0100\n              exp\n              swap1\n              div\n              0xffffffffffffffffffffffffffffffffffffffff\n              and\n                /* \"PoHGames.sol\":2819:2848  msg.sender == request.manager */\n              0xffffffffffffffffffffffffffffffffffffffff\n              and\n                /* \"PoHGames.sol\":2819:2829  msg.sender */\n              caller\n                /* \"PoHGames.sol\":2819:2848  msg.sender == request.manager */\n              0xffffffffffffffffffffffffffffffffffffffff\n              and\n              eq\n                /* \"PoHGames.sol\":2810:2849  require (msg.sender == request.manager) */\n              tag_54\n              jumpi\n              0x00\n              dup1\n              revert\n            tag_54:\n                /* \"PoHGames.sol\":5738:5742  true */\n              0x01\n                /* \"PoHGames.sol\":5717:5724  request */\n              0x00\n                /* \"PoHGames.sol\":5717:5735  request.regisClose */\n              0x08\n              add\n              0x00\n                /* \"PoHGames.sol\":5717:5742  request.regisClose = true */\n              0x0100\n              exp\n              dup2\n              sload\n              dup2\n              0xff\n              mul\n              not\n              and\n              swap1\n              dup4\n              iszero\n              iszero\n              mul\n              or\n              swap1\n              sstore\n              pop\n                /* \"PoHGames.sol\":5641:5750  function setRegistrationClose () payable external restricted{     ... */\n              jump\t// out\n                /* \"PoHGames.sol\":1562:1584  Request public request */\n            tag_16:\n              0x00\n              dup1\n              0x00\n              add\n              0x00\n              swap1\n              sload\n              swap1\n              0x0100\n              exp\n              swap1\n              div\n              0xffffffffffffffffffffffffffffffffffffffff\n              and\n              swap1\n              dup1\n              0x01\n              add\n              sload\n              swap1\n              dup1\n              0x02\n              add\n              dup1\n              sload\n              tag_56\n              swap1\n              tag_57\n              jump\t// in\n            tag_56:\n              dup1\n              0x1f\n              add\n              0x20\n              dup1\n              swap2\n              div\n              mul\n              0x20\n              add\n              mload(0x40)\n              swap1\n              dup2\n              add\n              0x40\n              mstore\n              dup1\n              swap3\n              swap2\n              swap1\n              dup2\n              dup2\n              mstore\n              0x20\n              add\n              dup3\n              dup1\n              sload\n              tag_58\n              swap1\n              tag_57\n              jump\t// in\n            tag_58:\n              dup1\n              iszero\n              tag_59\n              jumpi\n              dup1\n              0x1f\n              lt\n              tag_60\n              jumpi\n              0x0100\n              dup1\n              dup4\n              sload\n              div\n              mul\n              dup4\n              mstore\n              swap2\n              0x20\n              add\n              swap2\n              jump(tag_59)\n            tag_60:\n              dup3\n              add\n              swap2\n              swap1\n              0x00\n              mstore\n              keccak256(0x00, 0x20)\n              swap1\n            tag_61:\n              dup2\n              sload\n              dup2\n              mstore\n              swap1\n              0x01\n              add\n              swap1\n              0x20\n              add\n              dup1\n              dup4\n              gt\n              tag_61\n              jumpi\n              dup3\n              swap1\n              sub\n              0x1f\n              and\n              dup3\n              add\n              swap2\n            tag_59:\n              pop\n              pop\n              pop\n              pop\n              pop\n              swap1\n              dup1\n              0x03\n              add\n              dup1\n              sload\n              tag_62\n              swap1\n              tag_57\n              jump\t// in\n            tag_62:\n              dup1\n              0x1f\n              add\n              0x20\n              dup1\n              swap2\n              div\n              mul\n              0x20\n              add\n              mload(0x40)\n              swap1\n              dup2\n              add\n              0x40\n              mstore\n              dup1\n              swap3\n              swap2\n              swap1\n              dup2\n              dup2\n              mstore\n              0x20\n              add\n              dup3\n              dup1\n              sload\n              tag_63\n              swap1\n              tag_57\n              jump\t// in\n            tag_63:\n              dup1\n              iszero\n              tag_64\n              jumpi\n              dup1\n              0x1f\n              lt\n              tag_65\n              jumpi\n              0x0100\n              dup1\n              dup4\n              sload\n              div\n              mul\n              dup4\n              mstore\n              swap2\n              0x20\n              add\n              swap2\n              jump(tag_64)\n            tag_65:\n              dup3\n              add\n              swap2\n              swap1\n              0x00\n              mstore\n              keccak256(0x00, 0x20)\n              swap1\n            tag_66:\n              dup2\n              sload\n              dup2\n              mstore\n              swap1\n              0x01\n              add\n              swap1\n              0x20\n              add\n              dup1\n              dup4\n              gt\n              tag_66\n              jumpi\n              dup3\n              swap1\n              sub\n              0x1f\n              and\n              dup3\n              add\n              swap2\n            tag_64:\n              pop\n              pop\n              pop\n              pop\n              pop\n              swap1\n              dup1\n              0x04\n              add\n              dup1\n              sload\n              tag_67\n              swap1\n              tag_57\n              jump\t// in\n            tag_67:\n              dup1\n              0x1f\n              add\n              0x20\n              dup1\n              swap2\n              div\n              mul\n              0x20\n              add\n              mload(0x40)\n              swap1\n              dup2\n              add\n              0x40\n              mstore\n              dup1\n              swap3\n              swap2\n              swap1\n              dup2\n              dup2\n              mstore\n              0x20\n              add\n              dup3\n              dup1\n              sload\n              tag_68\n              swap1\n              tag_57\n              jump\t// in\n            tag_68:\n              dup1\n              iszero\n              tag_69\n              jumpi\n              dup1\n              0x1f\n              lt\n              tag_70\n              jumpi\n              0x0100\n              dup1\n              dup4\n              sload\n              div\n              mul\n              dup4\n              mstore\n              swap2\n              0x20\n              add\n              swap2\n              jump(tag_69)\n            tag_70:\n              dup3\n              add\n              swap2\n              swap1\n              0x00\n              mstore\n              keccak256(0x00, 0x20)\n              swap1\n            tag_71:\n              dup2\n              sload\n              dup2\n              mstore\n              swap1\n              0x01\n              add\n              swap1\n              0x20\n              add\n              dup1\n              dup4\n              gt\n              tag_71\n              jumpi\n              dup3\n              swap1\n              sub\n              0x1f\n              and\n              dup3\n              add\n              swap2\n            tag_69:\n              pop\n              pop\n              pop\n              pop\n              pop\n              swap1\n              dup1\n              0x05\n              add\n              dup1\n              sload\n              tag_72\n              swap1\n              tag_57\n              jump\t// in\n            tag_72:\n              dup1\n              0x1f\n              add\n              0x20\n              dup1\n              swap2\n              div\n              mul\n              0x20\n              add\n              mload(0x40)\n              swap1\n              dup2\n              add\n              0x40\n              mstore\n              dup1\n              swap3\n              swap2\n              swap1\n              dup2\n              dup2\n              mstore\n              0x20\n              add\n              dup3\n              dup1\n              sload\n              tag_73\n              swap1\n              tag_57\n              jump\t// in\n            tag_73:\n              dup1\n              iszero\n              tag_74\n              jumpi\n              dup1\n              0x1f\n              lt\n              tag_75\n              jumpi\n              0x0100\n              dup1\n              dup4\n              sload\n              div\n              mul\n              dup4\n              mstore\n              swap2\n              0x20\n              add\n              swap2\n              jump(tag_74)\n            tag_75:\n              dup3\n              add\n              swap2\n              swap1\n              0x00\n              mstore\n              keccak256(0x00, 0x20)\n              swap1\n            tag_76:\n              dup2\n              sload\n              dup2\n              mstore\n              swap1\n              0x01\n              add\n              swap1\n              0x20\n              add\n              dup1\n              dup4\n              gt\n              tag_76\n              jumpi\n              dup3\n              swap1\n              sub\n              0x1f\n              and\n              dup3\n              add\n              swap2\n            tag_74:\n              pop\n              pop\n              pop\n              pop\n              pop\n              swap1\n              dup1\n              0x07\n              add\n              sload\n              swap1\n              dup1\n              0x08\n              add\n              0x00\n              swap1\n              sload\n              swap1\n              0x0100\n              exp\n              swap1\n              div\n              0xff\n              and\n              swap1\n              dup1\n              0x08\n              add\n              0x01\n              swap1\n              sload\n              swap1\n              0x0100\n              exp\n              swap1\n              div\n              0xff\n              and\n              swap1\n              pop\n              dup10\n              jump\t// out\n                /* \"PoHGames.sol\":6253:6704  function getSummary() public view returns(... */\n            tag_21:\n                /* \"PoHGames.sol\":6305:6312  address */\n              0x00\n                /* \"PoHGames.sol\":6314:6318  uint */\n              dup1\n                /* \"PoHGames.sol\":6320:6333  string memory */\n              0x60\n                /* \"PoHGames.sol\":6335:6348  string memory */\n              dup1\n                /* \"PoHGames.sol\":6350:6363  string memory */\n              0x60\n                /* \"PoHGames.sol\":6365:6378  string memory */\n              dup1\n                /* \"PoHGames.sol\":6380:6384  uint */\n              0x00\n                /* \"PoHGames.sol\":6386:6390  bool */\n              dup1\n                /* \"PoHGames.sol\":6434:6441  request */\n              0x00\n                /* \"PoHGames.sol\":6434:6449  request.manager */\n              dup1\n              add\n              0x00\n              swap1\n              sload\n              swap1\n              0x0100\n              exp\n              swap1\n              div\n              0xffffffffffffffffffffffffffffffffffffffff\n              and\n                /* \"PoHGames.sol\":6464:6471  request */\n              0x00\n                /* \"PoHGames.sol\":6464:6488  request.registrationFees */\n              0x01\n              add\n              sload\n                /* \"PoHGames.sol\":6503:6510  request */\n              0x00\n                /* \"PoHGames.sol\":6503:6525  request.nameTournament */\n              0x02\n              add\n                /* \"PoHGames.sol\":6540:6547  request */\n              0x00\n                /* \"PoHGames.sol\":6540:6552  request.date */\n              0x03\n              add\n                /* \"PoHGames.sol\":6567:6574  request */\n              0x00\n                /* \"PoHGames.sol\":6567:6579  request.hour */\n              0x04\n              add\n                /* \"PoHGames.sol\":6594:6601  request */\n              0x00\n                /* \"PoHGames.sol\":6594:6610  request.platform */\n              0x05\n              add\n                /* \"PoHGames.sol\":6625:6632  request */\n              0x00\n                /* \"PoHGames.sol\":6625:6644  request.gamersCount */\n              0x07\n              add\n              sload\n                /* \"PoHGames.sol\":6659:6666  request */\n              0x00\n                /* \"PoHGames.sol\":6659:6685  request.tournamentFinished */\n              0x08\n              add\n              0x01\n              swap1\n              sload\n              swap1\n              0x0100\n              exp\n              swap1\n              div\n              0xff\n              and\n                /* \"PoHGames.sol\":6413:6696  return(... */\n              dup6\n              dup1\n              sload\n              tag_78\n              swap1\n              tag_57\n              jump\t// in\n            tag_78:\n              dup1\n              0x1f\n              add\n              0x20\n              dup1\n              swap2\n              div\n              mul\n              0x20\n              add\n              mload(0x40)\n              swap1\n              dup2\n              add\n              0x40\n              mstore\n              dup1\n              swap3\n              swap2\n              swap1\n              dup2\n              dup2\n              mstore\n              0x20\n              add\n              dup3\n              dup1\n              sload\n              tag_79\n              swap1\n              tag_57\n              jump\t// in\n            tag_79:\n              dup1\n              iszero\n              tag_80\n              jumpi\n              dup1\n              0x1f\n              lt\n              tag_81\n              jumpi\n              0x0100\n              dup1\n              dup4\n              sload\n              div\n              mul\n              dup4\n              mstore\n              swap2\n              0x20\n              add\n              swap2\n              jump(tag_80)\n            tag_81:\n              dup3\n              add\n              swap2\n              swap1\n              0x00\n              mstore\n              keccak256(0x00, 0x20)\n              swap1\n            tag_82:\n              dup2\n              sload\n              dup2\n              mstore\n              swap1\n              0x01\n              add\n              swap1\n              0x20\n              add\n              dup1\n              dup4\n              gt\n              tag_82\n              jumpi\n              dup3\n              swap1\n              sub\n              0x1f\n              and\n              dup3\n              add\n              swap2\n            tag_80:\n              pop\n              pop\n              pop\n              pop\n              pop\n              swap6\n              pop\n              dup5\n              dup1\n              sload\n              tag_83\n              swap1\n              tag_57\n              jump\t// in\n            tag_83:\n              dup1\n              0x1f\n              add\n              0x20\n              dup1\n              swap2\n              div\n              mul\n              0x20\n              add\n              mload(0x40)\n              swap1\n              dup2\n              add\n              0x40\n              mstore\n              dup1\n              swap3\n              swap2\n              swap1\n              dup2\n              dup2\n              mstore\n              0x20\n              add\n              dup3\n              dup1\n              sload\n              tag_84\n              swap1\n              tag_57\n              jump\t// in\n            tag_84:\n              dup1\n              iszero\n              tag_85\n              jumpi\n              dup1\n              0x1f\n              lt\n              tag_86\n              jumpi\n              0x0100\n              dup1\n              dup4\n              sload\n              div\n              mul\n              dup4\n              mstore\n              swap2\n              0x20\n              add\n              swap2\n              jump(tag_85)\n            tag_86:\n              dup3\n              add\n              swap2\n              swap1\n              0x00\n              mstore\n              keccak256(0x00, 0x20)\n              swap1\n            tag_87:\n              dup2\n              sload\n              dup2\n              mstore\n              swap1\n              0x01\n              add\n              swap1\n              0x20\n              add\n              dup1\n              dup4\n              gt\n              tag_87\n              jumpi\n              dup3\n              swap1\n              sub\n              0x1f\n              and\n              dup3\n              add\n              swap2\n            tag_85:\n              pop\n              pop\n              pop\n              pop\n              pop\n              swap5\n              pop\n              dup4\n              dup1\n              sload\n              tag_88\n              swap1\n              tag_57\n              jump\t// in\n            tag_88:\n              dup1\n              0x1f\n              add\n              0x20\n              dup1\n              swap2\n              div\n              mul\n              0x20\n              add\n              mload(0x40)\n              swap1\n              dup2\n              add\n              0x40\n              mstore\n              dup1\n              swap3\n              swap2\n              swap1\n              dup2\n              dup2\n              mstore\n              0x20\n              add\n              dup3\n              dup1\n              sload\n              tag_89\n              swap1\n              tag_57\n              jump\t// in\n            tag_89:\n              dup1\n              iszero\n              tag_90\n              jumpi\n              dup1\n              0x1f\n              lt\n              tag_91\n              jumpi\n              0x0100\n              dup1\n              dup4\n              sload\n              div\n              mul\n              dup4\n              mstore\n              swap2\n              0x20\n              add\n              swap2\n              jump(tag_90)\n            tag_91:\n              dup3\n              add\n              swap2\n              swap1\n              0x00\n              mstore\n              keccak256(0x00, 0x20)\n              swap1\n            tag_92:\n              dup2\n              sload\n              dup2\n              mstore\n              swap1\n              0x01\n              add\n              swap1\n              0x20\n              add\n              dup1\n              dup4\n              gt\n              tag_92\n              jumpi\n              dup3\n              swap1\n              sub\n              0x1f\n              and\n              dup3\n              add\n              swap2\n            tag_90:\n              pop\n              pop\n              pop\n              pop\n              pop\n              swap4\n              pop\n              dup3\n              dup1\n              sload\n              tag_93\n              swap1\n              tag_57\n              jump\t// in\n            tag_93:\n              dup1\n              0x1f\n              add\n              0x20\n              dup1\n              swap2\n              div\n              mul\n              0x20\n              add\n              mload(0x40)\n              swap1\n              dup2\n              add\n              0x40\n              mstore\n              dup1\n              swap3\n              swap2\n              swap1\n              dup2\n              dup2\n              mstore\n              0x20\n              add\n              dup3\n              dup1\n              sload\n              tag_94\n              swap1\n              tag_57\n              jump\t// in\n            tag_94:\n              dup1\n              iszero\n              tag_95\n              jumpi\n              dup1\n              0x1f\n              lt\n              tag_96\n              jumpi\n              0x0100\n              dup1\n              dup4\n              sload\n              div\n              mul\n              dup4\n              mstore\n              swap2\n              0x20\n              add\n              swap2\n              jump(tag_95)\n            tag_96:\n              dup3\n              add\n              swap2\n              swap1\n              0x00\n              mstore\n              keccak256(0x00, 0x20)\n              swap1\n            tag_97:\n              dup2\n              sload\n              dup2\n              mstore\n              swap1\n              0x01\n              add\n              swap1\n              0x20\n              add\n              dup1\n              dup4\n              gt\n              tag_97\n              jumpi\n              dup3\n              swap1\n              sub\n              0x1f\n              and\n              dup3\n              add\n              swap2\n            tag_95:\n              pop\n              pop\n              pop\n              pop\n              pop\n              swap3\n              pop\n              swap8\n              pop\n              swap8\n              pop\n              swap8\n              pop\n              swap8\n              pop\n              swap8\n              pop\n              swap8\n              pop\n              swap8\n              pop\n              swap8\n              pop\n                /* \"PoHGames.sol\":6253:6704  function getSummary() public view returns(... */\n              swap1\n              swap2\n              swap3\n              swap4\n              swap5\n              swap6\n              swap7\n              swap8\n              jump\t// out\n                /* \"PoHGames.sol\":6132:6245  function getGamers (address _address) public view returns(bool){... */\n            tag_28:\n                /* \"PoHGames.sol\":6190:6194  bool */\n              0x00\n                /* \"PoHGames.sol\":6213:6220  request */\n              dup1\n                /* \"PoHGames.sol\":6213:6227  request.gamers */\n              0x06\n              add\n                /* \"PoHGames.sol\":6213:6237  request.gamers[_address] */\n              0x00\n                /* \"PoHGames.sol\":6228:6236  _address */\n              dup4\n                /* \"PoHGames.sol\":6213:6237  request.gamers[_address] */\n              0xffffffffffffffffffffffffffffffffffffffff\n              and\n              0xffffffffffffffffffffffffffffffffffffffff\n              and\n              dup2\n              mstore\n              0x20\n              add\n              swap1\n              dup2\n              mstore\n              0x20\n              add\n              0x00\n              keccak256\n              0x00\n              swap1\n              sload\n              swap1\n              0x0100\n              exp\n              swap1\n              div\n              0xff\n              and\n                /* \"PoHGames.sol\":6206:6237  return request.gamers[_address] */\n              swap1\n              pop\n                /* \"PoHGames.sol\":6132:6245  function getGamers (address _address) public view returns(bool){... */\n              swap2\n              swap1\n              pop\n              jump\t// out\n                /* \"PoHGames.sol\":5882:5990  function getRegistrationClose () public view returns(bool) {     ... */\n            tag_33:\n                /* \"PoHGames.sol\":5935:5939  bool */\n              0x00\n                /* \"PoHGames.sol\":5964:5971  request */\n              dup1\n                /* \"PoHGames.sol\":5964:5982  request.regisClose */\n              0x08\n              add\n              0x00\n              swap1\n              sload\n              swap1\n              0x0100\n              exp\n              swap1\n              div\n              0xff\n              and\n                /* \"PoHGames.sol\":5957:5982  return request.regisClose */\n              swap1\n              pop\n                /* \"PoHGames.sol\":5882:5990  function getRegistrationClose () public view returns(bool) {     ... */\n              swap1\n              jump\t// out\n                /* \"PoHGames.sol\":5453:5564  function getTournamentFinished () public view returns(bool){... */\n            tag_37:\n                /* \"PoHGames.sol\":5507:5511  bool */\n              0x00\n                /* \"PoHGames.sol\":5530:5537  request */\n              dup1\n                /* \"PoHGames.sol\":5530:5556  request.tournamentFinished */\n              0x08\n              add\n              0x01\n              swap1\n              sload\n              swap1\n              0x0100\n              exp\n              swap1\n              div\n              0xff\n              and\n                /* \"PoHGames.sol\":5523:5556  return request.tournamentFinished */\n              swap1\n              pop\n                /* \"PoHGames.sol\":5453:5564  function getTournamentFinished () public view returns(bool){... */\n              swap1\n              jump\t// out\n                /* \"PoHGames.sol\":3309:3919  function registration(string memory _newUserPlatform, uint _registrationFees) public payable isOpen {... */\n            tag_42:\n                /* \"PoHGames.sol\":2915:2922  request */\n              0x00\n                /* \"PoHGames.sol\":2915:2941  request.tournamentFinished */\n              0x08\n              add\n              0x01\n              swap1\n              sload\n              swap1\n              0x0100\n              exp\n              swap1\n              div\n              0xff\n              and\n                /* \"PoHGames.sol\":2914:2941  !request.tournamentFinished */\n              iszero\n                /* \"PoHGames.sol\":2905:2968  require (!request.tournamentFinished, \"The tournament is over\") */\n              tag_102\n              jumpi\n              mload(0x40)\n              0x08c379a000000000000000000000000000000000000000000000000000000000\n              dup2\n              mstore\n              0x04\n              add\n              tag_103\n              swap1\n              tag_104\n              jump\t// in\n            tag_103:\n              mload(0x40)\n              dup1\n              swap2\n              sub\n              swap1\n              revert\n            tag_102:\n                /* \"PoHGames.sol\":3588:3595  request */\n              0x00\n                /* \"PoHGames.sol\":3588:3612  request.registrationFees */\n              0x01\n              add\n              sload\n                /* \"PoHGames.sol\":3567:3584  _registrationFees */\n              dup2\n                /* \"PoHGames.sol\":3567:3612  _registrationFees == request.registrationFees */\n              eq\n                /* \"PoHGames.sol\":3558:3653  require (_registrationFees == request.registrationFees, \"Set value = registrationFees in wei\" ) */\n              tag_106\n              jumpi\n              mload(0x40)\n              0x08c379a000000000000000000000000000000000000000000000000000000000\n              dup2\n              mstore\n              0x04\n              add\n              tag_107\n              swap1\n              tag_108\n              jump\t// in\n            tag_107:\n              mload(0x40)\n              dup1\n              swap2\n              sub\n              swap1\n              revert\n            tag_106:\n                /* \"PoHGames.sol\":3674:3681  request */\n              0x00\n                /* \"PoHGames.sol\":3674:3688  request.gamers */\n              0x06\n              add\n                /* \"PoHGames.sol\":3674:3700  request.gamers[msg.sender] */\n              0x00\n                /* \"PoHGames.sol\":3689:3699  msg.sender */\n              caller\n                /* \"PoHGames.sol\":3674:3700  request.gamers[msg.sender] */\n              0xffffffffffffffffffffffffffffffffffffffff\n              and\n              0xffffffffffffffffffffffffffffffffffffffff\n              and\n              dup2\n              mstore\n              0x20\n              add\n              swap1\n              dup2\n              mstore\n              0x20\n              add\n              0x00\n              keccak256\n              0x00\n              swap1\n              sload\n              swap1\n              0x0100\n              exp\n              swap1\n              div\n              0xff\n              and\n                /* \"PoHGames.sol\":3673:3700  !request.gamers[msg.sender] */\n              iszero\n                /* \"PoHGames.sol\":3664:3722  require (!request.gamers[msg.sender], \"You are registred\") */\n              tag_109\n              jumpi\n              mload(0x40)\n              0x08c379a000000000000000000000000000000000000000000000000000000000\n              dup2\n              mstore\n              0x04\n              add\n              tag_110\n              swap1\n              tag_111\n              jump\t// in\n            tag_110:\n              mload(0x40)\n              dup1\n              swap2\n              sub\n              swap1\n              revert\n            tag_109:\n                /* \"PoHGames.sol\":3762:3766  true */\n              0x01\n                /* \"PoHGames.sol\":3733:3740  request */\n              0x00\n                /* \"PoHGames.sol\":3733:3747  request.gamers */\n              0x06\n              add\n                /* \"PoHGames.sol\":3733:3759  request.gamers[msg.sender] */\n              0x00\n                /* \"PoHGames.sol\":3748:3758  msg.sender */\n              caller\n                /* \"PoHGames.sol\":3733:3759  request.gamers[msg.sender] */\n              0xffffffffffffffffffffffffffffffffffffffff\n              and\n              0xffffffffffffffffffffffffffffffffffffffff\n              and\n              dup2\n              mstore\n              0x20\n              add\n              swap1\n              dup2\n              mstore\n              0x20\n              add\n              0x00\n              keccak256\n              0x00\n                /* \"PoHGames.sol\":3733:3766  request.gamers[msg.sender] = true */\n              0x0100\n              exp\n              dup2\n              sload\n              dup2\n              0xff\n              mul\n              not\n              and\n              swap1\n              dup4\n              iszero\n              iszero\n              mul\n              or\n              swap1\n              sstore\n              pop\n                /* \"PoHGames.sol\":3792:3877  storedPlatformUser(... */\n              0x0fe063f9d0b8f6d449c36cd6b457da071c72930d7b819a2c1418d40c5eb13154\n                /* \"PoHGames.sol\":3825:3841  _newUserPlatform */\n              dup3\n                /* \"PoHGames.sol\":3856:3866  msg.sender */\n              caller\n                /* \"PoHGames.sol\":3792:3877  storedPlatformUser(... */\n              mload(0x40)\n              tag_112\n              swap3\n              swap2\n              swap1\n              tag_113\n              jump\t// in\n            tag_112:\n              mload(0x40)\n              dup1\n              swap2\n              sub\n              swap1\n              log1\n                /* \"PoHGames.sol\":3890:3897  request */\n              0x00\n                /* \"PoHGames.sol\":3890:3909  request.gamersCount */\n              0x07\n              add\n              0x00\n                /* \"PoHGames.sol\":3890:3911  request.gamersCount++ */\n              dup2\n              sload\n              dup1\n              swap3\n              swap2\n              swap1\n              tag_114\n              swap1\n              tag_115\n              jump\t// in\n            tag_114:\n              swap2\n              swap1\n              pop\n              sstore\n              pop\n                /* \"PoHGames.sol\":3309:3919  function registration(string memory _newUserPlatform, uint _registrationFees) public payable isOpen {... */\n              pop\n              pop\n              jump\t// out\n                /* \"PoHGames.sol\":4248:5144  function payWinnersBurner (address payable _first, address payable _second, address payable _third) external restricted {... */\n            tag_47:\n                /* \"PoHGames.sol\":2833:2840  request */\n              0x00\n                /* \"PoHGames.sol\":2833:2848  request.manager */\n              dup1\n              add\n              0x00\n              swap1\n              sload\n              swap1\n              0x0100\n              exp\n              swap1\n              div\n              0xffffffffffffffffffffffffffffffffffffffff\n              and\n                /* \"PoHGames.sol\":2819:2848  msg.sender == request.manager */\n              0xffffffffffffffffffffffffffffffffffffffff\n              and\n                /* \"PoHGames.sol\":2819:2829  msg.sender */\n              caller\n                /* \"PoHGames.sol\":2819:2848  msg.sender == request.manager */\n              0xffffffffffffffffffffffffffffffffffffffff\n              and\n              eq\n                /* \"PoHGames.sol\":2810:2849  require (msg.sender == request.manager) */\n              tag_117\n              jumpi\n              0x00\n              dup1\n              revert\n            tag_117:\n                /* \"PoHGames.sol\":4387:4394  request */\n              0x00\n                /* \"PoHGames.sol\":4387:4401  request.gamers */\n              0x06\n              add\n                /* \"PoHGames.sol\":4387:4409  request.gamers[_first] */\n              0x00\n                /* \"PoHGames.sol\":4402:4408  _first */\n              dup5\n                /* \"PoHGames.sol\":4387:4409  request.gamers[_first] */\n              0xffffffffffffffffffffffffffffffffffffffff\n              and\n              0xffffffffffffffffffffffffffffffffffffffff\n              and\n              dup2\n              mstore\n              0x20\n              add\n              swap1\n              dup2\n              mstore\n              0x20\n              add\n              0x00\n              keccak256\n              0x00\n              swap1\n              sload\n              swap1\n              0x0100\n              exp\n              swap1\n              div\n              0xff\n              and\n                /* \"PoHGames.sol\":4379:4424  require(request.gamers[_first],\"Not a gamer\") */\n              tag_119\n              jumpi\n              mload(0x40)\n              0x08c379a000000000000000000000000000000000000000000000000000000000\n              dup2\n              mstore\n              0x04\n              add\n              tag_120\n              swap1\n              tag_121\n              jump\t// in\n            tag_120:\n              mload(0x40)\n              dup1\n              swap2\n              sub\n              swap1\n              revert\n            tag_119:\n                /* \"PoHGames.sol\":4443:4450  request */\n              0x00\n                /* \"PoHGames.sol\":4443:4457  request.gamers */\n              0x06\n              add\n                /* \"PoHGames.sol\":4443:4466  request.gamers[_second] */\n              0x00\n                /* \"PoHGames.sol\":4458:4465  _second */\n              dup4\n                /* \"PoHGames.sol\":4443:4466  request.gamers[_second] */\n              0xffffffffffffffffffffffffffffffffffffffff\n              and\n              0xffffffffffffffffffffffffffffffffffffffff\n              and\n              dup2\n              mstore\n              0x20\n              add\n              swap1\n              dup2\n              mstore\n              0x20\n              add\n              0x00\n              keccak256\n              0x00\n              swap1\n              sload\n              swap1\n              0x0100\n              exp\n              swap1\n              div\n              0xff\n              and\n                /* \"PoHGames.sol\":4435:4481  require(request.gamers[_second],\"Not a gamer\") */\n              tag_122\n              jumpi\n              mload(0x40)\n              0x08c379a000000000000000000000000000000000000000000000000000000000\n              dup2\n              mstore\n              0x04\n              add\n              tag_123\n              swap1\n              tag_121\n              jump\t// in\n            tag_123:\n              mload(0x40)\n              dup1\n              swap2\n              sub\n              swap1\n              revert\n            tag_122:\n                /* \"PoHGames.sol\":4500:4507  request */\n              0x00\n                /* \"PoHGames.sol\":4500:4514  request.gamers */\n              0x06\n              add\n                /* \"PoHGames.sol\":4500:4522  request.gamers[_third] */\n              0x00\n                /* \"PoHGames.sol\":4515:4521  _third */\n              dup3\n                /* \"PoHGames.sol\":4500:4522  request.gamers[_third] */\n              0xffffffffffffffffffffffffffffffffffffffff\n              and\n              0xffffffffffffffffffffffffffffffffffffffff\n              and\n              dup2\n              mstore\n              0x20\n              add\n              swap1\n              dup2\n              mstore\n              0x20\n              add\n              0x00\n              keccak256\n              0x00\n              swap1\n              sload\n              swap1\n              0x0100\n              exp\n              swap1\n              div\n              0xff\n              and\n                /* \"PoHGames.sol\":4492:4537  require(request.gamers[_third],\"Not a gamer\") */\n              tag_124\n              jumpi\n              mload(0x40)\n              0x08c379a000000000000000000000000000000000000000000000000000000000\n              dup2\n              mstore\n              0x04\n              add\n              tag_125\n              swap1\n              tag_121\n              jump\t// in\n            tag_125:\n              mload(0x40)\n              dup1\n              swap2\n              sub\n              swap1\n              revert\n            tag_124:\n                /* \"PoHGames.sol\":4550:4562  uint balance */\n              0x00\n                /* \"PoHGames.sol\":4565:4586  address(this).balance */\n              selfbalance\n                /* \"PoHGames.sol\":4550:4586  uint balance = address(this).balance */\n              swap1\n              pop\n                /* \"PoHGames.sol\":4597:4610  uint amount25 */\n              0x00\n                /* \"PoHGames.sol\":4624:4627  100 */\n              0x64\n                /* \"PoHGames.sol\":4621:4623  25 */\n              0x19\n                /* \"PoHGames.sol\":4613:4620  balance */\n              dup4\n                /* \"PoHGames.sol\":4613:4623  balance*25 */\n              tag_126\n              swap2\n              swap1\n              tag_127\n              jump\t// in\n            tag_126:\n                /* \"PoHGames.sol\":4613:4627  balance*25/100 */\n              tag_128\n              swap2\n              swap1\n              tag_129\n              jump\t// in\n            tag_128:\n                /* \"PoHGames.sol\":4597:4627  uint amount25 = balance*25/100 */\n              swap1\n              pop\n                /* \"PoHGames.sol\":4638:4651  uint amount15 */\n              0x00\n                /* \"PoHGames.sol\":4665:4668  100 */\n              0x64\n                /* \"PoHGames.sol\":4662:4664  15 */\n              0x0f\n                /* \"PoHGames.sol\":4654:4661  balance */\n              dup5\n                /* \"PoHGames.sol\":4654:4664  balance*15 */\n              tag_130\n              swap2\n              swap1\n              tag_127\n              jump\t// in\n            tag_130:\n                /* \"PoHGames.sol\":4654:4668  balance*15/100 */\n              tag_131\n              swap2\n              swap1\n              tag_129\n              jump\t// in\n            tag_131:\n                /* \"PoHGames.sol\":4638:4668  uint amount15 = balance*15/100 */\n              swap1\n              pop\n                /* \"PoHGames.sol\":4679:4692  uint amount10 */\n              0x00\n                /* \"PoHGames.sol\":4703:4705  10 */\n              0x0a\n                /* \"PoHGames.sol\":4695:4702  balance */\n              dup5\n                /* \"PoHGames.sol\":4695:4705  balance/10 */\n              tag_132\n              swap2\n              swap1\n              tag_129\n              jump\t// in\n            tag_132:\n                /* \"PoHGames.sol\":4679:4705  uint amount10 = balance/10 */\n              swap1\n              pop\n                /* \"PoHGames.sol\":4716:4729  uint amount50 */\n              0x00\n                /* \"PoHGames.sol\":4764:4772  amount10 */\n              dup2\n                /* \"PoHGames.sol\":4753:4761  amount15 */\n              dup4\n                /* \"PoHGames.sol\":4742:4750  amount25 */\n              dup6\n                /* \"PoHGames.sol\":4732:4739  balance */\n              dup8\n                /* \"PoHGames.sol\":4732:4750  balance - amount25 */\n              tag_133\n              swap2\n              swap1\n              tag_134\n              jump\t// in\n            tag_133:\n                /* \"PoHGames.sol\":4732:4761  balance - amount25 - amount15 */\n              tag_135\n              swap2\n              swap1\n              tag_134\n              jump\t// in\n            tag_135:\n                /* \"PoHGames.sol\":4732:4772  balance - amount25 - amount15 - amount10 */\n              tag_136\n              swap2\n              swap1\n              tag_134\n              jump\t// in\n            tag_136:\n                /* \"PoHGames.sol\":4716:4772  uint amount50 = balance - amount25 - amount15 - amount10 */\n              swap1\n              pop\n                /* \"PoHGames.sol\":4785:4791  _first */\n              dup8\n                /* \"PoHGames.sol\":4785:4800  _first.transfer */\n              0xffffffffffffffffffffffffffffffffffffffff\n              and\n                /* \"PoHGames.sol\":4785:4810  _first.transfer(amount25) */\n              0x08fc\n                /* \"PoHGames.sol\":4801:4809  amount25 */\n              dup6\n                /* \"PoHGames.sol\":4785:4810  _first.transfer(amount25) */\n              swap1\n              dup2\n              iszero\n              mul\n              swap1\n              mload(0x40)\n              0x00\n              mload(0x40)\n              dup1\n              dup4\n              sub\n              dup2\n              dup6\n              dup9\n              dup9\n              call\n              swap4\n              pop\n              pop\n              pop\n              pop\n              iszero\n              dup1\n              iszero\n              tag_138\n              jumpi\n              returndatasize\n              0x00\n              dup1\n              returndatacopy\n              revert(0x00, returndatasize)\n            tag_138:\n              pop\n                /* \"PoHGames.sol\":4821:4828  _second */\n              dup7\n                /* \"PoHGames.sol\":4821:4837  _second.transfer */\n              0xffffffffffffffffffffffffffffffffffffffff\n              and\n                /* \"PoHGames.sol\":4821:4847  _second.transfer(amount15) */\n              0x08fc\n                /* \"PoHGames.sol\":4838:4846  amount15 */\n              dup5\n                /* \"PoHGames.sol\":4821:4847  _second.transfer(amount15) */\n              swap1\n              dup2\n              iszero\n              mul\n              swap1\n              mload(0x40)\n              0x00\n              mload(0x40)\n              dup1\n              dup4\n              sub\n              dup2\n              dup6\n              dup9\n              dup9\n              call\n              swap4\n              pop\n              pop\n              pop\n              pop\n              iszero\n              dup1\n              iszero\n              tag_140\n              jumpi\n              returndatasize\n              0x00\n              dup1\n              returndatacopy\n              revert(0x00, returndatasize)\n            tag_140:\n              pop\n                /* \"PoHGames.sol\":4858:4864  _third */\n              dup6\n                /* \"PoHGames.sol\":4858:4873  _third.transfer */\n              0xffffffffffffffffffffffffffffffffffffffff\n              and\n                /* \"PoHGames.sol\":4858:4883  _third.transfer(amount10) */\n              0x08fc\n                /* \"PoHGames.sol\":4874:4882  amount10 */\n              dup4\n                /* \"PoHGames.sol\":4858:4883  _third.transfer(amount10) */\n              swap1\n              dup2\n              iszero\n              mul\n              swap1\n              mload(0x40)\n              0x00\n              mload(0x40)\n              dup1\n              dup4\n              sub\n              dup2\n              dup6\n              dup9\n              dup9\n              call\n              swap4\n              pop\n              pop\n              pop\n              pop\n              iszero\n              dup1\n              iszero\n              tag_142\n              jumpi\n              returndatasize\n              0x00\n              dup1\n              returndatacopy\n              revert(0x00, returndatasize)\n            tag_142:\n              pop\n                /* \"PoHGames.sol\":4968:4972  true */\n              0x01\n                /* \"PoHGames.sol\":4939:4946  request */\n              0x00\n                /* \"PoHGames.sol\":4939:4965  request.tournamentFinished */\n              0x08\n              add\n              0x01\n                /* \"PoHGames.sol\":4939:4972  request.tournamentFinished = true */\n              0x0100\n              exp\n              dup2\n              sload\n              dup2\n              0xff\n              mul\n              not\n              and\n              swap1\n              dup4\n              iszero\n              iszero\n              mul\n              or\n              swap1\n              sstore\n              pop\n                /* \"PoHGames.sol\":5044:5136  storedPlayersWind(... */\n              0x7511a34e9b3f23fe8e01fe2ab113d7906109124765d598f46d95220981280b87\n                /* \"PoHGames.sol\":5076:5082  _first */\n              dup9\n                /* \"PoHGames.sol\":5097:5104  _second */\n              dup9\n                /* \"PoHGames.sol\":5119:5125  _third */\n              dup9\n                /* \"PoHGames.sol\":5044:5136  storedPlayersWind(... */\n              mload(0x40)\n              tag_143\n              swap4\n              swap3\n              swap2\n              swap1\n              tag_144\n              jump\t// in\n            tag_143:\n              mload(0x40)\n              dup1\n              swap2\n              sub\n              swap1\n              log1\n                /* \"PoHGames.sol\":4368:5144  {... */\n              pop\n              pop\n              pop\n              pop\n              pop\n                /* \"PoHGames.sol\":4248:5144  function payWinnersBurner (address payable _first, address payable _second, address payable _third) external restricted {... */\n              pop\n              pop\n              pop\n              jump\t// out\n                /* \"PoHGames.sol\":5234:5347  function getTournamentName () public view returns (string memory){... */\n            tag_50:\n                /* \"PoHGames.sol\":5285:5298  string memory */\n              0x60\n                /* \"PoHGames.sol\":5317:5324  request */\n              0x00\n                /* \"PoHGames.sol\":5317:5339  request.nameTournament */\n              0x02\n              add\n                /* \"PoHGames.sol\":5310:5339  return request.nameTournament */\n              dup1\n              sload\n              tag_146\n              swap1\n              tag_57\n              jump\t// in\n            tag_146:\n              dup1\n              0x1f\n              add\n              0x20\n              dup1\n              swap2\n              div\n              mul\n              0x20\n              add\n              mload(0x40)\n              swap1\n              dup2\n              add\n              0x40\n              mstore\n              dup1\n              swap3\n              swap2\n              swap1\n              dup2\n              dup2\n              mstore\n              0x20\n              add\n              dup3\n              dup1\n              sload\n              tag_147\n              swap1\n              tag_57\n              jump\t// in\n            tag_147:\n              dup1\n              iszero\n              tag_148\n              jumpi\n              dup1\n              0x1f\n              lt\n              tag_149\n              jumpi\n              0x0100\n              dup1\n              dup4\n              sload\n              div\n              mul\n              dup4\n              mstore\n              swap2\n              0x20\n              add\n              swap2\n              jump(tag_148)\n            tag_149:\n              dup3\n              add\n              swap2\n              swap1\n              0x00\n              mstore\n              keccak256(0x00, 0x20)\n              swap1\n            tag_150:\n              dup2\n              sload\n              dup2\n              mstore\n              swap1\n              0x01\n              add\n              swap1\n              0x20\n              add\n              dup1\n              dup4\n              gt\n              tag_150\n              jumpi\n              dup3\n              swap1\n              sub\n              0x1f\n              and\n              dup3\n              add\n              swap2\n            tag_148:\n              pop\n              pop\n              pop\n              pop\n              pop\n              swap1\n              pop\n                /* \"PoHGames.sol\":5234:5347  function getTournamentName () public view returns (string memory){... */\n              swap1\n              jump\t// out\n                /* \"#utility.yul\":7:133   */\n            tag_151:\n                /* \"#utility.yul\":44:51   */\n              0x00\n                /* \"#utility.yul\":84:126   */\n              0xffffffffffffffffffffffffffffffffffffffff\n                /* \"#utility.yul\":77:82   */\n              dup3\n                /* \"#utility.yul\":73:127   */\n              and\n                /* \"#utility.yul\":62:127   */\n              swap1\n              pop\n                /* \"#utility.yul\":7:133   */\n              swap2\n              swap1\n              pop\n              jump\t// out\n                /* \"#utility.yul\":139:235   */\n            tag_152:\n                /* \"#utility.yul\":176:183   */\n              0x00\n                /* \"#utility.yul\":205:229   */\n              tag_201\n                /* \"#utility.yul\":223:228   */\n              dup3\n                /* \"#utility.yul\":205:229   */\n              tag_151\n              jump\t// in\n            tag_201:\n                /* \"#utility.yul\":194:229   */\n              swap1\n              pop\n                /* \"#utility.yul\":139:235   */\n              swap2\n              swap1\n              pop\n              jump\t// out\n                /* \"#utility.yul\":241:359   */\n            tag_153:\n                /* \"#utility.yul\":328:352   */\n              tag_203\n                /* \"#utility.yul\":346:351   */\n              dup2\n                /* \"#utility.yul\":328:352   */\n              tag_152\n              jump\t// in\n            tag_203:\n                /* \"#utility.yul\":323:326   */\n              dup3\n                /* \"#utility.yul\":316:353   */\n              mstore\n                /* \"#utility.yul\":241:359   */\n              pop\n              pop\n              jump\t// out\n                /* \"#utility.yul\":365:442   */\n            tag_154:\n                /* \"#utility.yul\":402:409   */\n              0x00\n                /* \"#utility.yul\":431:436   */\n              dup2\n                /* \"#utility.yul\":420:436   */\n              swap1\n              pop\n                /* \"#utility.yul\":365:442   */\n              swap2\n              swap1\n              pop\n              jump\t// out\n                /* \"#utility.yul\":448:566   */\n            tag_155:\n                /* \"#utility.yul\":535:559   */\n              tag_206\n                /* \"#utility.yul\":553:558   */\n              dup2\n                /* \"#utility.yul\":535:559   */\n              tag_154\n              jump\t// in\n            tag_206:\n                /* \"#utility.yul\":530:533   */\n              dup3\n                /* \"#utility.yul\":523:560   */\n              mstore\n                /* \"#utility.yul\":448:566   */\n              pop\n              pop\n              jump\t// out\n                /* \"#utility.yul\":572:671   */\n            tag_156:\n                /* \"#utility.yul\":624:630   */\n              0x00\n                /* \"#utility.yul\":658:663   */\n              dup2\n                /* \"#utility.yul\":652:664   */\n              mload\n                /* \"#utility.yul\":642:664   */\n              swap1\n              pop\n                /* \"#utility.yul\":572:671   */\n              swap2\n              swap1\n              pop\n              jump\t// out\n                /* \"#utility.yul\":677:846   */\n            tag_157:\n                /* \"#utility.yul\":761:772   */\n              0x00\n                /* \"#utility.yul\":795:801   */\n              dup3\n                /* \"#utility.yul\":790:793   */\n              dup3\n                /* \"#utility.yul\":783:802   */\n              mstore\n                /* \"#utility.yul\":835:839   */\n              0x20\n                /* \"#utility.yul\":830:833   */\n              dup3\n                /* \"#utility.yul\":826:840   */\n              add\n                /* \"#utility.yul\":811:840   */\n              swap1\n              pop\n                /* \"#utility.yul\":677:846   */\n              swap3\n              swap2\n              pop\n              pop\n              jump\t// out\n                /* \"#utility.yul\":852:1098   */\n            tag_158:\n                /* \"#utility.yul\":933:934   */\n              0x00\n                /* \"#utility.yul\":943:1056   */\n            tag_210:\n                /* \"#utility.yul\":957:963   */\n              dup4\n                /* \"#utility.yul\":954:955   */\n              dup2\n                /* \"#utility.yul\":951:964   */\n              lt\n                /* \"#utility.yul\":943:1056   */\n              iszero\n              tag_212\n              jumpi\n                /* \"#utility.yul\":1042:1043   */\n              dup1\n                /* \"#utility.yul\":1037:1040   */\n              dup3\n                /* \"#utility.yul\":1033:1044   */\n              add\n                /* \"#utility.yul\":1027:1045   */\n              mload\n                /* \"#utility.yul\":1023:1024   */\n              dup2\n                /* \"#utility.yul\":1018:1021   */\n              dup5\n                /* \"#utility.yul\":1014:1025   */\n              add\n                /* \"#utility.yul\":1007:1046   */\n              mstore\n                /* \"#utility.yul\":979:981   */\n              0x20\n                /* \"#utility.yul\":976:977   */\n              dup2\n                /* \"#utility.yul\":972:982   */\n              add\n                /* \"#utility.yul\":967:982   */\n              swap1\n              pop\n                /* \"#utility.yul\":943:1056   */\n              jump(tag_210)\n            tag_212:\n                /* \"#utility.yul\":1090:1091   */\n              0x00\n                /* \"#utility.yul\":1081:1087   */\n              dup5\n                /* \"#utility.yul\":1076:1079   */\n              dup5\n                /* \"#utility.yul\":1072:1088   */\n              add\n                /* \"#utility.yul\":1065:1092   */\n              mstore\n                /* \"#utility.yul\":914:1098   */\n              pop\n                /* \"#utility.yul\":852:1098   */\n              pop\n              pop\n              pop\n              jump\t// out\n                /* \"#utility.yul\":1104:1206   */\n            tag_159:\n                /* \"#utility.yul\":1145:1151   */\n              0x00\n                /* \"#utility.yul\":1196:1198   */\n              0x1f\n                /* \"#utility.yul\":1192:1199   */\n              not\n                /* \"#utility.yul\":1187:1189   */\n              0x1f\n                /* \"#utility.yul\":1180:1185   */\n              dup4\n                /* \"#utility.yul\":1176:1190   */\n              add\n                /* \"#utility.yul\":1172:1200   */\n              and\n                /* \"#utility.yul\":1162:1200   */\n              swap1\n              pop\n                /* \"#utility.yul\":1104:1206   */\n              swap2\n              swap1\n              pop\n              jump\t// out\n                /* \"#utility.yul\":1212:1589   */\n            tag_160:\n                /* \"#utility.yul\":1300:1303   */\n              0x00\n                /* \"#utility.yul\":1328:1367   */\n              tag_215\n                /* \"#utility.yul\":1361:1366   */\n              dup3\n                /* \"#utility.yul\":1328:1367   */\n              tag_156\n              jump\t// in\n            tag_215:\n                /* \"#utility.yul\":1383:1454   */\n              tag_216\n                /* \"#utility.yul\":1447:1453   */\n              dup2\n                /* \"#utility.yul\":1442:1445   */\n              dup6\n                /* \"#utility.yul\":1383:1454   */\n              tag_157\n              jump\t// in\n            tag_216:\n                /* \"#utility.yul\":1376:1454   */\n              swap4\n              pop\n                /* \"#utility.yul\":1463:1528   */\n              tag_217\n                /* \"#utility.yul\":1521:1527   */\n              dup2\n                /* \"#utility.yul\":1516:1519   */\n              dup6\n                /* \"#utility.yul\":1509:1513   */\n              0x20\n                /* \"#utility.yul\":1502:1507   */\n              dup7\n                /* \"#utility.yul\":1498:1514   */\n              add\n                /* \"#utility.yul\":1463:1528   */\n              tag_158\n              jump\t// in\n            tag_217:\n                /* \"#utility.yul\":1553:1582   */\n              tag_218\n                /* \"#utility.yul\":1575:1581   */\n              dup2\n                /* \"#utility.yul\":1553:1582   */\n              tag_159\n              jump\t// in\n            tag_218:\n                /* \"#utility.yul\":1548:1551   */\n              dup5\n                /* \"#utility.yul\":1544:1583   */\n              add\n                /* \"#utility.yul\":1537:1583   */\n              swap2\n              pop\n                /* \"#utility.yul\":1304:1589   */\n              pop\n                /* \"#utility.yul\":1212:1589   */\n              swap3\n              swap2\n              pop\n              pop\n              jump\t// out\n                /* \"#utility.yul\":1595:1685   */\n            tag_161:\n                /* \"#utility.yul\":1629:1636   */\n              0x00\n                /* \"#utility.yul\":1672:1677   */\n              dup2\n                /* \"#utility.yul\":1665:1678   */\n              iszero\n                /* \"#utility.yul\":1658:1679   */\n              iszero\n                /* \"#utility.yul\":1647:1679   */\n              swap1\n              pop\n                /* \"#utility.yul\":1595:1685   */\n              swap2\n              swap1\n              pop\n              jump\t// out\n                /* \"#utility.yul\":1691:1800   */\n            tag_162:\n                /* \"#utility.yul\":1772:1793   */\n              tag_221\n                /* \"#utility.yul\":1787:1792   */\n              dup2\n                /* \"#utility.yul\":1772:1793   */\n              tag_161\n              jump\t// in\n            tag_221:\n                /* \"#utility.yul\":1767:1770   */\n              dup3\n                /* \"#utility.yul\":1760:1794   */\n              mstore\n                /* \"#utility.yul\":1691:1800   */\n              pop\n              pop\n              jump\t// out\n                /* \"#utility.yul\":1806:3254   */\n            tag_18:\n                /* \"#utility.yul\":2191:2195   */\n              0x00\n                /* \"#utility.yul\":2229:2232   */\n              0x0120\n                /* \"#utility.yul\":2218:2227   */\n              dup3\n                /* \"#utility.yul\":2214:2233   */\n              add\n                /* \"#utility.yul\":2206:2233   */\n              swap1\n              pop\n                /* \"#utility.yul\":2243:2314   */\n              tag_223\n                /* \"#utility.yul\":2311:2312   */\n              0x00\n                /* \"#utility.yul\":2300:2309   */\n              dup4\n                /* \"#utility.yul\":2296:2313   */\n              add\n                /* \"#utility.yul\":2287:2293   */\n              dup13\n                /* \"#utility.yul\":2243:2314   */\n              tag_153\n              jump\t// in\n            tag_223:\n                /* \"#utility.yul\":2324:2396   */\n              tag_224\n                /* \"#utility.yul\":2392:2394   */\n              0x20\n                /* \"#utility.yul\":2381:2390   */\n              dup4\n                /* \"#utility.yul\":2377:2395   */\n              add\n                /* \"#utility.yul\":2368:2374   */\n              dup12\n                /* \"#utility.yul\":2324:2396   */\n              tag_155\n              jump\t// in\n            tag_224:\n                /* \"#utility.yul\":2443:2452   */\n              dup2\n                /* \"#utility.yul\":2437:2441   */\n              dup2\n                /* \"#utility.yul\":2433:2453   */\n              sub\n                /* \"#utility.yul\":2428:2430   */\n              0x40\n                /* \"#utility.yul\":2417:2426   */\n              dup4\n                /* \"#utility.yul\":2413:2431   */\n              add\n                /* \"#utility.yul\":2406:2454   */\n              mstore\n                /* \"#utility.yul\":2471:2549   */\n              tag_225\n                /* \"#utility.yul\":2544:2548   */\n              dup2\n                /* \"#utility.yul\":2535:2541   */\n              dup11\n                /* \"#utility.yul\":2471:2549   */\n              tag_160\n              jump\t// in\n            tag_225:\n                /* \"#utility.yul\":2463:2549   */\n              swap1\n              pop\n                /* \"#utility.yul\":2596:2605   */\n              dup2\n                /* \"#utility.yul\":2590:2594   */\n              dup2\n                /* \"#utility.yul\":2586:2606   */\n              sub\n                /* \"#utility.yul\":2581:2583   */\n              0x60\n                /* \"#utility.yul\":2570:2579   */\n              dup4\n                /* \"#utility.yul\":2566:2584   */\n              add\n                /* \"#utility.yul\":2559:2607   */\n              mstore\n                /* \"#utility.yul\":2624:2702   */\n              tag_226\n                /* \"#utility.yul\":2697:2701   */\n              dup2\n                /* \"#utility.yul\":2688:2694   */\n              dup10\n                /* \"#utility.yul\":2624:2702   */\n              tag_160\n              jump\t// in\n            tag_226:\n                /* \"#utility.yul\":2616:2702   */\n              swap1\n              pop\n                /* \"#utility.yul\":2750:2759   */\n              dup2\n                /* \"#utility.yul\":2744:2748   */\n              dup2\n                /* \"#utility.yul\":2740:2760   */\n              sub\n                /* \"#utility.yul\":2734:2737   */\n              0x80\n                /* \"#utility.yul\":2723:2732   */\n              dup4\n                /* \"#utility.yul\":2719:2738   */\n              add\n                /* \"#utility.yul\":2712:2761   */\n              mstore\n                /* \"#utility.yul\":2778:2856   */\n              tag_227\n                /* \"#utility.yul\":2851:2855   */\n              dup2\n                /* \"#utility.yul\":2842:2848   */\n              dup9\n                /* \"#utility.yul\":2778:2856   */\n              tag_160\n              jump\t// in\n            tag_227:\n                /* \"#utility.yul\":2770:2856   */\n              swap1\n              pop\n                /* \"#utility.yul\":2904:2913   */\n              dup2\n                /* \"#utility.yul\":2898:2902   */\n              dup2\n                /* \"#utility.yul\":2894:2914   */\n              sub\n                /* \"#utility.yul\":2888:2891   */\n              0xa0\n                /* \"#utility.yul\":2877:2886   */\n              dup4\n                /* \"#utility.yul\":2873:2892   */\n              add\n                /* \"#utility.yul\":2866:2915   */\n              mstore\n                /* \"#utility.yul\":2932:3010   */\n              tag_228\n                /* \"#utility.yul\":3005:3009   */\n              dup2\n                /* \"#utility.yul\":2996:3002   */\n              dup8\n                /* \"#utility.yul\":2932:3010   */\n              tag_160\n              jump\t// in\n            tag_228:\n                /* \"#utility.yul\":2924:3010   */\n              swap1\n              pop\n                /* \"#utility.yul\":3020:3093   */\n              tag_229\n                /* \"#utility.yul\":3088:3091   */\n              0xc0\n                /* \"#utility.yul\":3077:3086   */\n              dup4\n                /* \"#utility.yul\":3073:3092   */\n              add\n                /* \"#utility.yul\":3064:3070   */\n              dup7\n                /* \"#utility.yul\":3020:3093   */\n              tag_155\n              jump\t// in\n            tag_229:\n                /* \"#utility.yul\":3103:3170   */\n              tag_230\n                /* \"#utility.yul\":3165:3168   */\n              0xe0\n                /* \"#utility.yul\":3154:3163   */\n              dup4\n                /* \"#utility.yul\":3150:3169   */\n              add\n                /* \"#utility.yul\":3141:3147   */\n              dup6\n                /* \"#utility.yul\":3103:3170   */\n              tag_162\n              jump\t// in\n            tag_230:\n                /* \"#utility.yul\":3180:3247   */\n              tag_231\n                /* \"#utility.yul\":3242:3245   */\n              0x0100\n                /* \"#utility.yul\":3231:3240   */\n              dup4\n                /* \"#utility.yul\":3227:3246   */\n              add\n                /* \"#utility.yul\":3218:3224   */\n              dup5\n                /* \"#utility.yul\":3180:3247   */\n              tag_162\n              jump\t// in\n            tag_231:\n                /* \"#utility.yul\":1806:3254   */\n              swap11\n              swap10\n              pop\n              pop\n              pop\n              pop\n              pop\n              pop\n              pop\n              pop\n              pop\n              pop\n              jump\t// out\n                /* \"#utility.yul\":3260:4609   */\n            tag_23:\n                /* \"#utility.yul\":3623:3627   */\n              0x00\n                /* \"#utility.yul\":3661:3664   */\n              0x0100\n                /* \"#utility.yul\":3650:3659   */\n              dup3\n                /* \"#utility.yul\":3646:3665   */\n              add\n                /* \"#utility.yul\":3638:3665   */\n              swap1\n              pop\n                /* \"#utility.yul\":3675:3746   */\n              tag_233\n                /* \"#utility.yul\":3743:3744   */\n              0x00\n                /* \"#utility.yul\":3732:3741   */\n              dup4\n                /* \"#utility.yul\":3728:3745   */\n              add\n                /* \"#utility.yul\":3719:3725   */\n              dup12\n                /* \"#utility.yul\":3675:3746   */\n              tag_153\n              jump\t// in\n            tag_233:\n                /* \"#utility.yul\":3756:3828   */\n              tag_234\n                /* \"#utility.yul\":3824:3826   */\n              0x20\n                /* \"#utility.yul\":3813:3822   */\n              dup4\n                /* \"#utility.yul\":3809:3827   */\n              add\n                /* \"#utility.yul\":3800:3806   */\n              dup11\n                /* \"#utility.yul\":3756:3828   */\n              tag_155\n              jump\t// in\n            tag_234:\n                /* \"#utility.yul\":3875:3884   */\n              dup2\n                /* \"#utility.yul\":3869:3873   */\n              dup2\n                /* \"#utility.yul\":3865:3885   */\n              sub\n                /* \"#utility.yul\":3860:3862   */\n              0x40\n                /* \"#utility.yul\":3849:3858   */\n              dup4\n                /* \"#utility.yul\":3845:3863   */\n              add\n                /* \"#utility.yul\":3838:3886   */\n              mstore\n                /* \"#utility.yul\":3903:3981   */\n              tag_235\n                /* \"#utility.yul\":3976:3980   */\n              dup2\n                /* \"#utility.yul\":3967:3973   */\n              dup10\n                /* \"#utility.yul\":3903:3981   */\n              tag_160\n              jump\t// in\n            tag_235:\n                /* \"#utility.yul\":3895:3981   */\n              swap1\n              pop\n                /* \"#utility.yul\":4028:4037   */\n              dup2\n                /* \"#utility.yul\":4022:4026   */\n              dup2\n                /* \"#utility.yul\":4018:4038   */\n              sub\n                /* \"#utility.yul\":4013:4015   */\n              0x60\n                /* \"#utility.yul\":4002:4011   */\n              dup4\n                /* \"#utility.yul\":3998:4016   */\n              add\n                /* \"#utility.yul\":3991:4039   */\n              mstore\n                /* \"#utility.yul\":4056:4134   */\n              tag_236\n                /* \"#utility.yul\":4129:4133   */\n              dup2\n                /* \"#utility.yul\":4120:4126   */\n              dup9\n                /* \"#utility.yul\":4056:4134   */\n              tag_160\n              jump\t// in\n            tag_236:\n                /* \"#utility.yul\":4048:4134   */\n              swap1\n              pop\n                /* \"#utility.yul\":4182:4191   */\n              dup2\n                /* \"#utility.yul\":4176:4180   */\n              dup2\n                /* \"#utility.yul\":4172:4192   */\n              sub\n                /* \"#utility.yul\":4166:4169   */\n              0x80\n                /* \"#utility.yul\":4155:4164   */\n              dup4\n                /* \"#utility.yul\":4151:4170   */\n              add\n                /* \"#utility.yul\":4144:4193   */\n              mstore\n                /* \"#utility.yul\":4210:4288   */\n              tag_237\n                /* \"#utility.yul\":4283:4287   */\n              dup2\n                /* \"#utility.yul\":4274:4280   */\n              dup8\n                /* \"#utility.yul\":4210:4288   */\n              tag_160\n              jump\t// in\n            tag_237:\n                /* \"#utility.yul\":4202:4288   */\n              swap1\n              pop\n                /* \"#utility.yul\":4336:4345   */\n              dup2\n                /* \"#utility.yul\":4330:4334   */\n              dup2\n                /* \"#utility.yul\":4326:4346   */\n              sub\n                /* \"#utility.yul\":4320:4323   */\n              0xa0\n                /* \"#utility.yul\":4309:4318   */\n              dup4\n                /* \"#utility.yul\":4305:4324   */\n              add\n                /* \"#utility.yul\":4298:4347   */\n              mstore\n                /* \"#utility.yul\":4364:4442   */\n              tag_238\n                /* \"#utility.yul\":4437:4441   */\n              dup2\n                /* \"#utility.yul\":4428:4434   */\n              dup7\n                /* \"#utility.yul\":4364:4442   */\n              tag_160\n              jump\t// in\n            tag_238:\n                /* \"#utility.yul\":4356:4442   */\n              swap1\n              pop\n                /* \"#utility.yul\":4452:4525   */\n              tag_239\n                /* \"#utility.yul\":4520:4523   */\n              0xc0\n                /* \"#utility.yul\":4509:4518   */\n              dup4\n                /* \"#utility.yul\":4505:4524   */\n              add\n                /* \"#utility.yul\":4496:4502   */\n              dup6\n                /* \"#utility.yul\":4452:4525   */\n              tag_155\n              jump\t// in\n            tag_239:\n                /* \"#utility.yul\":4535:4602   */\n              tag_240\n                /* \"#utility.yul\":4597:4600   */\n              0xe0\n                /* \"#utility.yul\":4586:4595   */\n              dup4\n                /* \"#utility.yul\":4582:4601   */\n              add\n                /* \"#utility.yul\":4573:4579   */\n              dup5\n                /* \"#utility.yul\":4535:4602   */\n              tag_162\n              jump\t// in\n            tag_240:\n                /* \"#utility.yul\":3260:4609   */\n              swap10\n              swap9\n              pop\n              pop\n              pop\n              pop\n              pop\n              pop\n              pop\n              pop\n              pop\n              jump\t// out\n                /* \"#utility.yul\":4615:4690   */\n            tag_163:\n                /* \"#utility.yul\":4648:4654   */\n              0x00\n                /* \"#utility.yul\":4681:4683   */\n              0x40\n                /* \"#utility.yul\":4675:4684   */\n              mload\n                /* \"#utility.yul\":4665:4684   */\n              swap1\n              pop\n                /* \"#utility.yul\":4615:4690   */\n              swap1\n              jump\t// out\n                /* \"#utility.yul\":4696:4813   */\n            tag_164:\n                /* \"#utility.yul\":4805:4806   */\n              0x00\n                /* \"#utility.yul\":4802:4803   */\n              dup1\n                /* \"#utility.yul\":4795:4807   */\n              revert\n                /* \"#utility.yul\":4819:4936   */\n            tag_165:\n                /* \"#utility.yul\":4928:4929   */\n              0x00\n                /* \"#utility.yul\":4925:4926   */\n              dup1\n                /* \"#utility.yul\":4918:4930   */\n              revert\n                /* \"#utility.yul\":4942:5064   */\n            tag_166:\n                /* \"#utility.yul\":5015:5039   */\n              tag_245\n                /* \"#utility.yul\":5033:5038   */\n              dup2\n                /* \"#utility.yul\":5015:5039   */\n              tag_152\n              jump\t// in\n            tag_245:\n                /* \"#utility.yul\":5008:5013   */\n              dup2\n                /* \"#utility.yul\":5005:5040   */\n              eq\n                /* \"#utility.yul\":4995:5058   */\n              tag_246\n              jumpi\n                /* \"#utility.yul\":5054:5055   */\n              0x00\n                /* \"#utility.yul\":5051:5052   */\n              dup1\n                /* \"#utility.yul\":5044:5056   */\n              revert\n                /* \"#utility.yul\":4995:5058   */\n            tag_246:\n                /* \"#utility.yul\":4942:5064   */\n              pop\n              jump\t// out\n                /* \"#utility.yul\":5070:5209   */\n            tag_167:\n                /* \"#utility.yul\":5116:5121   */\n              0x00\n                /* \"#utility.yul\":5154:5160   */\n              dup2\n                /* \"#utility.yul\":5141:5161   */\n              calldataload\n                /* \"#utility.yul\":5132:5161   */\n              swap1\n              pop\n                /* \"#utility.yul\":5170:5203   */\n              tag_248\n                /* \"#utility.yul\":5197:5202   */\n              dup2\n                /* \"#utility.yul\":5170:5203   */\n              tag_166\n              jump\t// in\n            tag_248:\n                /* \"#utility.yul\":5070:5209   */\n              swap3\n              swap2\n              pop\n              pop\n              jump\t// out\n                /* \"#utility.yul\":5215:5544   */\n            tag_27:\n                /* \"#utility.yul\":5274:5280   */\n              0x00\n                /* \"#utility.yul\":5323:5325   */\n              0x20\n                /* \"#utility.yul\":5311:5320   */\n              dup3\n                /* \"#utility.yul\":5302:5309   */\n              dup5\n                /* \"#utility.yul\":5298:5321   */\n              sub\n                /* \"#utility.yul\":5294:5326   */\n              slt\n                /* \"#utility.yul\":5291:5410   */\n              iszero\n              tag_250\n              jumpi\n                /* \"#utility.yul\":5329:5408   */\n              tag_251\n              tag_164\n              jump\t// in\n            tag_251:\n                /* \"#utility.yul\":5291:5410   */\n            tag_250:\n                /* \"#utility.yul\":5449:5450   */\n              0x00\n                /* \"#utility.yul\":5474:5527   */\n              tag_252\n                /* \"#utility.yul\":5519:5526   */\n              dup5\n                /* \"#utility.yul\":5510:5516   */\n              dup3\n                /* \"#utility.yul\":5499:5508   */\n              dup6\n                /* \"#utility.yul\":5495:5517   */\n              add\n                /* \"#utility.yul\":5474:5527   */\n              tag_167\n              jump\t// in\n            tag_252:\n                /* \"#utility.yul\":5464:5527   */\n              swap2\n              pop\n                /* \"#utility.yul\":5420:5537   */\n              pop\n                /* \"#utility.yul\":5215:5544   */\n              swap3\n              swap2\n              pop\n              pop\n              jump\t// out\n                /* \"#utility.yul\":5550:5760   */\n            tag_30:\n                /* \"#utility.yul\":5637:5641   */\n              0x00\n                /* \"#utility.yul\":5675:5677   */\n              0x20\n                /* \"#utility.yul\":5664:5673   */\n              dup3\n                /* \"#utility.yul\":5660:5678   */\n              add\n                /* \"#utility.yul\":5652:5678   */\n              swap1\n              pop\n                /* \"#utility.yul\":5688:5753   */\n              tag_254\n                /* \"#utility.yul\":5750:5751   */\n              0x00\n                /* \"#utility.yul\":5739:5748   */\n              dup4\n                /* \"#utility.yul\":5735:5752   */\n              add\n                /* \"#utility.yul\":5726:5732   */\n              dup5\n                /* \"#utility.yul\":5688:5753   */\n              tag_162\n              jump\t// in\n            tag_254:\n                /* \"#utility.yul\":5550:5760   */\n              swap3\n              swap2\n              pop\n              pop\n              jump\t// out\n                /* \"#utility.yul\":5766:5883   */\n            tag_168:\n                /* \"#utility.yul\":5875:5876   */\n              0x00\n                /* \"#utility.yul\":5872:5873   */\n              dup1\n                /* \"#utility.yul\":5865:5877   */\n              revert\n                /* \"#utility.yul\":5889:6006   */\n            tag_169:\n                /* \"#utility.yul\":5998:5999   */\n              0x00\n                /* \"#utility.yul\":5995:5996   */\n              dup1\n                /* \"#utility.yul\":5988:6000   */\n              revert\n                /* \"#utility.yul\":6012:6192   */\n            tag_170:\n                /* \"#utility.yul\":6060:6137   */\n              0x4e487b7100000000000000000000000000000000000000000000000000000000\n                /* \"#utility.yul\":6057:6058   */\n              0x00\n                /* \"#utility.yul\":6050:6138   */\n              mstore\n                /* \"#utility.yul\":6157:6161   */\n              0x41\n                /* \"#utility.yul\":6154:6155   */\n              0x04\n                /* \"#utility.yul\":6147:6162   */\n              mstore\n                /* \"#utility.yul\":6181:6185   */\n              0x24\n                /* \"#utility.yul\":6178:6179   */\n              0x00\n                /* \"#utility.yul\":6171:6186   */\n              revert\n                /* \"#utility.yul\":6198:6479   */\n            tag_171:\n                /* \"#utility.yul\":6281:6308   */\n              tag_259\n                /* \"#utility.yul\":6303:6307   */\n              dup3\n                /* \"#utility.yul\":6281:6308   */\n              tag_159\n              jump\t// in\n            tag_259:\n                /* \"#utility.yul\":6273:6279   */\n              dup2\n                /* \"#utility.yul\":6269:6309   */\n              add\n                /* \"#utility.yul\":6411:6417   */\n              dup2\n                /* \"#utility.yul\":6399:6409   */\n              dup2\n                /* \"#utility.yul\":6396:6418   */\n              lt\n                /* \"#utility.yul\":6375:6393   */\n              0xffffffffffffffff\n                /* \"#utility.yul\":6363:6373   */\n              dup3\n                /* \"#utility.yul\":6360:6394   */\n              gt\n                /* \"#utility.yul\":6357:6419   */\n              or\n                /* \"#utility.yul\":6354:6442   */\n              iszero\n              tag_260\n              jumpi\n                /* \"#utility.yul\":6422:6440   */\n              tag_261\n              tag_170\n              jump\t// in\n            tag_261:\n                /* \"#utility.yul\":6354:6442   */\n            tag_260:\n                /* \"#utility.yul\":6462:6472   */\n              dup1\n                /* \"#utility.yul\":6458:6460   */\n              0x40\n                /* \"#utility.yul\":6451:6473   */\n              mstore\n                /* \"#utility.yul\":6241:6479   */\n              pop\n                /* \"#utility.yul\":6198:6479   */\n              pop\n              pop\n              jump\t// out\n                /* \"#utility.yul\":6485:6614   */\n            tag_172:\n                /* \"#utility.yul\":6519:6525   */\n              0x00\n                /* \"#utility.yul\":6546:6566   */\n              tag_263\n              tag_163\n              jump\t// in\n            tag_263:\n                /* \"#utility.yul\":6536:6566   */\n              swap1\n              pop\n                /* \"#utility.yul\":6575:6608   */\n              tag_264\n                /* \"#utility.yul\":6603:6607   */\n              dup3\n                /* \"#utility.yul\":6595:6601   */\n              dup3\n                /* \"#utility.yul\":6575:6608   */\n              tag_171\n              jump\t// in\n            tag_264:\n                /* \"#utility.yul\":6485:6614   */\n              swap2\n              swap1\n              pop\n              jump\t// out\n                /* \"#utility.yul\":6620:6928   */\n            tag_173:\n                /* \"#utility.yul\":6682:6686   */\n              0x00\n                /* \"#utility.yul\":6772:6790   */\n              0xffffffffffffffff\n                /* \"#utility.yul\":6764:6770   */\n              dup3\n                /* \"#utility.yul\":6761:6791   */\n              gt\n                /* \"#utility.yul\":6758:6814   */\n              iszero\n              tag_266\n              jumpi\n                /* \"#utility.yul\":6794:6812   */\n              tag_267\n              tag_170\n              jump\t// in\n            tag_267:\n                /* \"#utility.yul\":6758:6814   */\n            tag_266:\n                /* \"#utility.yul\":6832:6861   */\n              tag_268\n                /* \"#utility.yul\":6854:6860   */\n              dup3\n                /* \"#utility.yul\":6832:6861   */\n              tag_159\n              jump\t// in\n            tag_268:\n                /* \"#utility.yul\":6824:6861   */\n              swap1\n              pop\n                /* \"#utility.yul\":6916:6920   */\n              0x20\n                /* \"#utility.yul\":6910:6914   */\n              dup2\n                /* \"#utility.yul\":6906:6921   */\n              add\n                /* \"#utility.yul\":6898:6921   */\n              swap1\n              pop\n                /* \"#utility.yul\":6620:6928   */\n              swap2\n              swap1\n              pop\n              jump\t// out\n                /* \"#utility.yul\":6934:7080   */\n            tag_174:\n                /* \"#utility.yul\":7031:7037   */\n              dup3\n                /* \"#utility.yul\":7026:7029   */\n              dup2\n                /* \"#utility.yul\":7021:7024   */\n              dup4\n                /* \"#utility.yul\":7008:7038   */\n              calldatacopy\n                /* \"#utility.yul\":7072:7073   */\n              0x00\n                /* \"#utility.yul\":7063:7069   */\n              dup4\n                /* \"#utility.yul\":7058:7061   */\n              dup4\n                /* \"#utility.yul\":7054:7070   */\n              add\n                /* \"#utility.yul\":7047:7074   */\n              mstore\n                /* \"#utility.yul\":6934:7080   */\n              pop\n              pop\n              pop\n              jump\t// out\n                /* \"#utility.yul\":7086:7511   */\n            tag_175:\n                /* \"#utility.yul\":7164:7169   */\n              0x00\n                /* \"#utility.yul\":7189:7255   */\n              tag_271\n                /* \"#utility.yul\":7205:7254   */\n              tag_272\n                /* \"#utility.yul\":7247:7253   */\n              dup5\n                /* \"#utility.yul\":7205:7254   */\n              tag_173\n              jump\t// in\n            tag_272:\n                /* \"#utility.yul\":7189:7255   */\n              tag_172\n              jump\t// in\n            tag_271:\n                /* \"#utility.yul\":7180:7255   */\n              swap1\n              pop\n                /* \"#utility.yul\":7278:7284   */\n              dup3\n                /* \"#utility.yul\":7271:7276   */\n              dup2\n                /* \"#utility.yul\":7264:7285   */\n              mstore\n                /* \"#utility.yul\":7316:7320   */\n              0x20\n                /* \"#utility.yul\":7309:7314   */\n              dup2\n                /* \"#utility.yul\":7305:7321   */\n              add\n                /* \"#utility.yul\":7354:7357   */\n              dup5\n                /* \"#utility.yul\":7345:7351   */\n              dup5\n                /* \"#utility.yul\":7340:7343   */\n              dup5\n                /* \"#utility.yul\":7336:7352   */\n              add\n                /* \"#utility.yul\":7333:7358   */\n              gt\n                /* \"#utility.yul\":7330:7442   */\n              iszero\n              tag_273\n              jumpi\n                /* \"#utility.yul\":7361:7440   */\n              tag_274\n              tag_169\n              jump\t// in\n            tag_274:\n                /* \"#utility.yul\":7330:7442   */\n            tag_273:\n                /* \"#utility.yul\":7451:7505   */\n              tag_275\n                /* \"#utility.yul\":7498:7504   */\n              dup5\n                /* \"#utility.yul\":7493:7496   */\n              dup3\n                /* \"#utility.yul\":7488:7491   */\n              dup6\n                /* \"#utility.yul\":7451:7505   */\n              tag_174\n              jump\t// in\n            tag_275:\n                /* \"#utility.yul\":7170:7511   */\n              pop\n                /* \"#utility.yul\":7086:7511   */\n              swap4\n              swap3\n              pop\n              pop\n              pop\n              jump\t// out\n                /* \"#utility.yul\":7531:7871   */\n            tag_176:\n                /* \"#utility.yul\":7587:7592   */\n              0x00\n                /* \"#utility.yul\":7636:7639   */\n              dup3\n                /* \"#utility.yul\":7629:7633   */\n              0x1f\n                /* \"#utility.yul\":7621:7627   */\n              dup4\n                /* \"#utility.yul\":7617:7634   */\n              add\n                /* \"#utility.yul\":7613:7640   */\n              slt\n                /* \"#utility.yul\":7603:7725   */\n              tag_277\n              jumpi\n                /* \"#utility.yul\":7644:7723   */\n              tag_278\n              tag_168\n              jump\t// in\n            tag_278:\n                /* \"#utility.yul\":7603:7725   */\n            tag_277:\n                /* \"#utility.yul\":7761:7767   */\n              dup2\n                /* \"#utility.yul\":7748:7768   */\n              calldataload\n                /* \"#utility.yul\":7786:7865   */\n              tag_279\n                /* \"#utility.yul\":7861:7864   */\n              dup5\n                /* \"#utility.yul\":7853:7859   */\n              dup3\n                /* \"#utility.yul\":7846:7850   */\n              0x20\n                /* \"#utility.yul\":7838:7844   */\n              dup7\n                /* \"#utility.yul\":7834:7851   */\n              add\n                /* \"#utility.yul\":7786:7865   */\n              tag_175\n              jump\t// in\n            tag_279:\n                /* \"#utility.yul\":7777:7865   */\n              swap2\n              pop\n                /* \"#utility.yul\":7593:7871   */\n              pop\n                /* \"#utility.yul\":7531:7871   */\n              swap3\n              swap2\n              pop\n              pop\n              jump\t// out\n                /* \"#utility.yul\":7877:7999   */\n            tag_177:\n                /* \"#utility.yul\":7950:7974   */\n              tag_281\n                /* \"#utility.yul\":7968:7973   */\n              dup2\n                /* \"#utility.yul\":7950:7974   */\n              tag_154\n              jump\t// in\n            tag_281:\n                /* \"#utility.yul\":7943:7948   */\n              dup2\n                /* \"#utility.yul\":7940:7975   */\n              eq\n                /* \"#utility.yul\":7930:7993   */\n              tag_282\n              jumpi\n                /* \"#utility.yul\":7989:7990   */\n              0x00\n                /* \"#utility.yul\":7986:7987   */\n              dup1\n                /* \"#utility.yul\":7979:7991   */\n              revert\n                /* \"#utility.yul\":7930:7993   */\n            tag_282:\n                /* \"#utility.yul\":7877:7999   */\n              pop\n              jump\t// out\n                /* \"#utility.yul\":8005:8144   */\n            tag_178:\n                /* \"#utility.yul\":8051:8056   */\n              0x00\n                /* \"#utility.yul\":8089:8095   */\n              dup2\n                /* \"#utility.yul\":8076:8096   */\n              calldataload\n                /* \"#utility.yul\":8067:8096   */\n              swap1\n              pop\n                /* \"#utility.yul\":8105:8138   */\n              tag_284\n                /* \"#utility.yul\":8132:8137   */\n              dup2\n                /* \"#utility.yul\":8105:8138   */\n              tag_177\n              jump\t// in\n            tag_284:\n                /* \"#utility.yul\":8005:8144   */\n              swap3\n              swap2\n              pop\n              pop\n              jump\t// out\n                /* \"#utility.yul\":8150:8804   */\n            tag_41:\n                /* \"#utility.yul\":8228:8234   */\n              0x00\n                /* \"#utility.yul\":8236:8242   */\n              dup1\n                /* \"#utility.yul\":8285:8287   */\n              0x40\n                /* \"#utility.yul\":8273:8282   */\n              dup4\n                /* \"#utility.yul\":8264:8271   */\n              dup6\n                /* \"#utility.yul\":8260:8283   */\n              sub\n                /* \"#utility.yul\":8256:8288   */\n              slt\n                /* \"#utility.yul\":8253:8372   */\n              iszero\n              tag_286\n              jumpi\n                /* \"#utility.yul\":8291:8370   */\n              tag_287\n              tag_164\n              jump\t// in\n            tag_287:\n                /* \"#utility.yul\":8253:8372   */\n            tag_286:\n                /* \"#utility.yul\":8439:8440   */\n              0x00\n                /* \"#utility.yul\":8428:8437   */\n              dup4\n                /* \"#utility.yul\":8424:8441   */\n              add\n                /* \"#utility.yul\":8411:8442   */\n              calldataload\n                /* \"#utility.yul\":8469:8487   */\n              0xffffffffffffffff\n                /* \"#utility.yul\":8461:8467   */\n              dup2\n                /* \"#utility.yul\":8458:8488   */\n              gt\n                /* \"#utility.yul\":8455:8572   */\n              iszero\n              tag_288\n              jumpi\n                /* \"#utility.yul\":8491:8570   */\n              tag_289\n              tag_165\n              jump\t// in\n            tag_289:\n                /* \"#utility.yul\":8455:8572   */\n            tag_288:\n                /* \"#utility.yul\":8596:8659   */\n              tag_290\n                /* \"#utility.yul\":8651:8658   */\n              dup6\n                /* \"#utility.yul\":8642:8648   */\n              dup3\n                /* \"#utility.yul\":8631:8640   */\n              dup7\n                /* \"#utility.yul\":8627:8649   */\n              add\n                /* \"#utility.yul\":8596:8659   */\n              tag_176\n              jump\t// in\n            tag_290:\n                /* \"#utility.yul\":8586:8659   */\n              swap3\n              pop\n                /* \"#utility.yul\":8382:8669   */\n              pop\n                /* \"#utility.yul\":8708:8710   */\n              0x20\n                /* \"#utility.yul\":8734:8787   */\n              tag_291\n                /* \"#utility.yul\":8779:8786   */\n              dup6\n                /* \"#utility.yul\":8770:8776   */\n              dup3\n                /* \"#utility.yul\":8759:8768   */\n              dup7\n                /* \"#utility.yul\":8755:8777   */\n              add\n                /* \"#utility.yul\":8734:8787   */\n              tag_178\n              jump\t// in\n            tag_291:\n                /* \"#utility.yul\":8724:8787   */\n              swap2\n              pop\n                /* \"#utility.yul\":8679:8797   */\n              pop\n                /* \"#utility.yul\":8150:8804   */\n              swap3\n              pop\n              swap3\n              swap1\n              pop\n              jump\t// out\n                /* \"#utility.yul\":8810:8914   */\n            tag_179:\n                /* \"#utility.yul\":8855:8862   */\n              0x00\n                /* \"#utility.yul\":8884:8908   */\n              tag_293\n                /* \"#utility.yul\":8902:8907   */\n              dup3\n                /* \"#utility.yul\":8884:8908   */\n              tag_151\n              jump\t// in\n            tag_293:\n                /* \"#utility.yul\":8873:8908   */\n              swap1\n              pop\n                /* \"#utility.yul\":8810:8914   */\n              swap2\n              swap1\n              pop\n              jump\t// out\n                /* \"#utility.yul\":8920:9058   */\n            tag_180:\n                /* \"#utility.yul\":9001:9033   */\n              tag_295\n                /* \"#utility.yul\":9027:9032   */\n              dup2\n                /* \"#utility.yul\":9001:9033   */\n              tag_179\n              jump\t// in\n            tag_295:\n                /* \"#utility.yul\":8994:8999   */\n              dup2\n                /* \"#utility.yul\":8991:9034   */\n              eq\n                /* \"#utility.yul\":8981:9052   */\n              tag_296\n              jumpi\n                /* \"#utility.yul\":9048:9049   */\n              0x00\n                /* \"#utility.yul\":9045:9046   */\n              dup1\n                /* \"#utility.yul\":9038:9050   */\n              revert\n                /* \"#utility.yul\":8981:9052   */\n            tag_296:\n                /* \"#utility.yul\":8920:9058   */\n              pop\n              jump\t// out\n                /* \"#utility.yul\":9064:9219   */\n            tag_181:\n                /* \"#utility.yul\":9118:9123   */\n              0x00\n                /* \"#utility.yul\":9156:9162   */\n              dup2\n                /* \"#utility.yul\":9143:9163   */\n              calldataload\n                /* \"#utility.yul\":9134:9163   */\n              swap1\n              pop\n                /* \"#utility.yul\":9172:9213   */\n              tag_298\n                /* \"#utility.yul\":9207:9212   */\n              dup2\n                /* \"#utility.yul\":9172:9213   */\n              tag_180\n              jump\t// in\n            tag_298:\n                /* \"#utility.yul\":9064:9219   */\n              swap3\n              swap2\n              pop\n              pop\n              jump\t// out\n                /* \"#utility.yul\":9225:9892   */\n            tag_46:\n                /* \"#utility.yul\":9326:9332   */\n              0x00\n                /* \"#utility.yul\":9334:9340   */\n              dup1\n                /* \"#utility.yul\":9342:9348   */\n              0x00\n                /* \"#utility.yul\":9391:9393   */\n              0x60\n                /* \"#utility.yul\":9379:9388   */\n              dup5\n                /* \"#utility.yul\":9370:9377   */\n              dup7\n                /* \"#utility.yul\":9366:9389   */\n              sub\n                /* \"#utility.yul\":9362:9394   */\n              slt\n                /* \"#utility.yul\":9359:9478   */\n              iszero\n              tag_300\n              jumpi\n                /* \"#utility.yul\":9397:9476   */\n              tag_301\n              tag_164\n              jump\t// in\n            tag_301:\n                /* \"#utility.yul\":9359:9478   */\n            tag_300:\n                /* \"#utility.yul\":9517:9518   */\n              0x00\n                /* \"#utility.yul\":9542:9603   */\n              tag_302\n                /* \"#utility.yul\":9595:9602   */\n              dup7\n                /* \"#utility.yul\":9586:9592   */\n              dup3\n                /* \"#utility.yul\":9575:9584   */\n              dup8\n                /* \"#utility.yul\":9571:9593   */\n              add\n                /* \"#utility.yul\":9542:9603   */\n              tag_181\n              jump\t// in\n            tag_302:\n                /* \"#utility.yul\":9532:9603   */\n              swap4\n              pop\n                /* \"#utility.yul\":9488:9613   */\n              pop\n                /* \"#utility.yul\":9652:9654   */\n              0x20\n                /* \"#utility.yul\":9678:9739   */\n              tag_303\n                /* \"#utility.yul\":9731:9738   */\n              dup7\n                /* \"#utility.yul\":9722:9728   */\n              dup3\n                /* \"#utility.yul\":9711:9720   */\n              dup8\n                /* \"#utility.yul\":9707:9729   */\n              add\n                /* \"#utility.yul\":9678:9739   */\n              tag_181\n              jump\t// in\n            tag_303:\n                /* \"#utility.yul\":9668:9739   */\n              swap3\n              pop\n                /* \"#utility.yul\":9623:9749   */\n              pop\n                /* \"#utility.yul\":9788:9790   */\n              0x40\n                /* \"#utility.yul\":9814:9875   */\n              tag_304\n                /* \"#utility.yul\":9867:9874   */\n              dup7\n                /* \"#utility.yul\":9858:9864   */\n              dup3\n                /* \"#utility.yul\":9847:9856   */\n              dup8\n                /* \"#utility.yul\":9843:9865   */\n              add\n                /* \"#utility.yul\":9814:9875   */\n              tag_181\n              jump\t// in\n            tag_304:\n                /* \"#utility.yul\":9804:9875   */\n              swap2\n              pop\n                /* \"#utility.yul\":9759:9885   */\n              pop\n                /* \"#utility.yul\":9225:9892   */\n              swap3\n              pop\n              swap3\n              pop\n              swap3\n              jump\t// out\n                /* \"#utility.yul\":9898:10211   */\n            tag_52:\n                /* \"#utility.yul\":10011:10015   */\n              0x00\n                /* \"#utility.yul\":10049:10051   */\n              0x20\n                /* \"#utility.yul\":10038:10047   */\n              dup3\n                /* \"#utility.yul\":10034:10052   */\n              add\n                /* \"#utility.yul\":10026:10052   */\n              swap1\n              pop\n                /* \"#utility.yul\":10098:10107   */\n              dup2\n                /* \"#utility.yul\":10092:10096   */\n              dup2\n                /* \"#utility.yul\":10088:10108   */\n              sub\n                /* \"#utility.yul\":10084:10085   */\n              0x00\n                /* \"#utility.yul\":10073:10082   */\n              dup4\n                /* \"#utility.yul\":10069:10086   */\n              add\n                /* \"#utility.yul\":10062:10109   */\n              mstore\n                /* \"#utility.yul\":10126:10204   */\n              tag_306\n                /* \"#utility.yul\":10199:10203   */\n              dup2\n                /* \"#utility.yul\":10190:10196   */\n              dup5\n                /* \"#utility.yul\":10126:10204   */\n              tag_160\n              jump\t// in\n            tag_306:\n                /* \"#utility.yul\":10118:10204   */\n              swap1\n              pop\n                /* \"#utility.yul\":9898:10211   */\n              swap3\n              swap2\n              pop\n              pop\n              jump\t// out\n                /* \"#utility.yul\":10217:10397   */\n            tag_182:\n                /* \"#utility.yul\":10265:10342   */\n              0x4e487b7100000000000000000000000000000000000000000000000000000000\n                /* \"#utility.yul\":10262:10263   */\n              0x00\n                /* \"#utility.yul\":10255:10343   */\n              mstore\n                /* \"#utility.yul\":10362:10366   */\n              0x22\n                /* \"#utility.yul\":10359:10360   */\n              0x04\n                /* \"#utility.yul\":10352:10367   */\n              mstore\n                /* \"#utility.yul\":10386:10390   */\n              0x24\n                /* \"#utility.yul\":10383:10384   */\n              0x00\n                /* \"#utility.yul\":10376:10391   */\n              revert\n                /* \"#utility.yul\":10403:10723   */\n            tag_57:\n                /* \"#utility.yul\":10447:10453   */\n              0x00\n                /* \"#utility.yul\":10484:10485   */\n              0x02\n                /* \"#utility.yul\":10478:10482   */\n              dup3\n                /* \"#utility.yul\":10474:10486   */\n              div\n                /* \"#utility.yul\":10464:10486   */\n              swap1\n              pop\n                /* \"#utility.yul\":10531:10532   */\n              0x01\n                /* \"#utility.yul\":10525:10529   */\n              dup3\n                /* \"#utility.yul\":10521:10533   */\n              and\n                /* \"#utility.yul\":10552:10570   */\n              dup1\n                /* \"#utility.yul\":10542:10623   */\n              tag_309\n              jumpi\n                /* \"#utility.yul\":10608:10612   */\n              0x7f\n                /* \"#utility.yul\":10600:10606   */\n              dup3\n                /* \"#utility.yul\":10596:10613   */\n              and\n                /* \"#utility.yul\":10586:10613   */\n              swap2\n              pop\n                /* \"#utility.yul\":10542:10623   */\n            tag_309:\n                /* \"#utility.yul\":10670:10672   */\n              0x20\n                /* \"#utility.yul\":10662:10668   */\n              dup3\n                /* \"#utility.yul\":10659:10673   */\n              lt\n                /* \"#utility.yul\":10639:10657   */\n              dup2\n                /* \"#utility.yul\":10636:10674   */\n              sub\n                /* \"#utility.yul\":10633:10717   */\n              tag_310\n              jumpi\n                /* \"#utility.yul\":10689:10707   */\n              tag_311\n              tag_182\n              jump\t// in\n            tag_311:\n                /* \"#utility.yul\":10633:10717   */\n            tag_310:\n                /* \"#utility.yul\":10454:10723   */\n              pop\n                /* \"#utility.yul\":10403:10723   */\n              swap2\n              swap1\n              pop\n              jump\t// out\n                /* \"#utility.yul\":10729:10901   */\n            tag_183:\n                /* \"#utility.yul\":10869:10893   */\n              0x54686520746f75726e616d656e74206973206f76657200000000000000000000\n                /* \"#utility.yul\":10865:10866   */\n              0x00\n                /* \"#utility.yul\":10857:10863   */\n              dup3\n                /* \"#utility.yul\":10853:10867   */\n              add\n                /* \"#utility.yul\":10846:10894   */\n              mstore\n                /* \"#utility.yul\":10729:10901   */\n              pop\n              jump\t// out\n                /* \"#utility.yul\":10907:11273   */\n            tag_184:\n                /* \"#utility.yul\":11049:11052   */\n              0x00\n                /* \"#utility.yul\":11070:11137   */\n              tag_314\n                /* \"#utility.yul\":11134:11136   */\n              0x16\n                /* \"#utility.yul\":11129:11132   */\n              dup4\n                /* \"#utility.yul\":11070:11137   */\n              tag_157\n              jump\t// in\n            tag_314:\n                /* \"#utility.yul\":11063:11137   */\n              swap2\n              pop\n                /* \"#utility.yul\":11146:11239   */\n              tag_315\n                /* \"#utility.yul\":11235:11238   */\n              dup3\n                /* \"#utility.yul\":11146:11239   */\n              tag_183\n              jump\t// in\n            tag_315:\n                /* \"#utility.yul\":11264:11266   */\n              0x20\n                /* \"#utility.yul\":11259:11262   */\n              dup3\n                /* \"#utility.yul\":11255:11267   */\n              add\n                /* \"#utility.yul\":11248:11267   */\n              swap1\n              pop\n                /* \"#utility.yul\":10907:11273   */\n              swap2\n              swap1\n              pop\n              jump\t// out\n                /* \"#utility.yul\":11279:11698   */\n            tag_104:\n                /* \"#utility.yul\":11445:11449   */\n              0x00\n                /* \"#utility.yul\":11483:11485   */\n              0x20\n                /* \"#utility.yul\":11472:11481   */\n              dup3\n                /* \"#utility.yul\":11468:11486   */\n              add\n                /* \"#utility.yul\":11460:11486   */\n              swap1\n              pop\n                /* \"#utility.yul\":11532:11541   */\n              dup2\n                /* \"#utility.yul\":11526:11530   */\n              dup2\n                /* \"#utility.yul\":11522:11542   */\n              sub\n                /* \"#utility.yul\":11518:11519   */\n              0x00\n                /* \"#utility.yul\":11507:11516   */\n              dup4\n                /* \"#utility.yul\":11503:11520   */\n              add\n                /* \"#utility.yul\":11496:11543   */\n              mstore\n                /* \"#utility.yul\":11560:11691   */\n              tag_317\n                /* \"#utility.yul\":11686:11690   */\n              dup2\n                /* \"#utility.yul\":11560:11691   */\n              tag_184\n              jump\t// in\n            tag_317:\n                /* \"#utility.yul\":11552:11691   */\n              swap1\n              pop\n                /* \"#utility.yul\":11279:11698   */\n              swap2\n              swap1\n              pop\n              jump\t// out\n                /* \"#utility.yul\":11704:11926   */\n            tag_185:\n                /* \"#utility.yul\":11844:11878   */\n              0x5365742076616c7565203d20726567697374726174696f6e4665657320696e20\n                /* \"#utility.yul\":11840:11841   */\n              0x00\n                /* \"#utility.yul\":11832:11838   */\n              dup3\n                /* \"#utility.yul\":11828:11842   */\n              add\n                /* \"#utility.yul\":11821:11879   */\n              mstore\n                /* \"#utility.yul\":11913:11918   */\n              0x7765690000000000000000000000000000000000000000000000000000000000\n                /* \"#utility.yul\":11908:11910   */\n              0x20\n                /* \"#utility.yul\":11900:11906   */\n              dup3\n                /* \"#utility.yul\":11896:11911   */\n              add\n                /* \"#utility.yul\":11889:11919   */\n              mstore\n                /* \"#utility.yul\":11704:11926   */\n              pop\n              jump\t// out\n                /* \"#utility.yul\":11932:12298   */\n            tag_186:\n                /* \"#utility.yul\":12074:12077   */\n              0x00\n                /* \"#utility.yul\":12095:12162   */\n              tag_320\n                /* \"#utility.yul\":12159:12161   */\n              0x23\n                /* \"#utility.yul\":12154:12157   */\n              dup4\n                /* \"#utility.yul\":12095:12162   */\n              tag_157\n              jump\t// in\n            tag_320:\n                /* \"#utility.yul\":12088:12162   */\n              swap2\n              pop\n                /* \"#utility.yul\":12171:12264   */\n              tag_321\n                /* \"#utility.yul\":12260:12263   */\n              dup3\n                /* \"#utility.yul\":12171:12264   */\n              tag_185\n              jump\t// in\n            tag_321:\n                /* \"#utility.yul\":12289:12291   */\n              0x40\n                /* \"#utility.yul\":12284:12287   */\n              dup3\n                /* \"#utility.yul\":12280:12292   */\n              add\n                /* \"#utility.yul\":12273:12292   */\n              swap1\n              pop\n                /* \"#utility.yul\":11932:12298   */\n              swap2\n              swap1\n              pop\n              jump\t// out\n                /* \"#utility.yul\":12304:12723   */\n            tag_108:\n                /* \"#utility.yul\":12470:12474   */\n              0x00\n                /* \"#utility.yul\":12508:12510   */\n              0x20\n                /* \"#utility.yul\":12497:12506   */\n              dup3\n                /* \"#utility.yul\":12493:12511   */\n              add\n                /* \"#utility.yul\":12485:12511   */\n              swap1\n              pop\n                /* \"#utility.yul\":12557:12566   */\n              dup2\n                /* \"#utility.yul\":12551:12555   */\n              dup2\n                /* \"#utility.yul\":12547:12567   */\n              sub\n                /* \"#utility.yul\":12543:12544   */\n              0x00\n                /* \"#utility.yul\":12532:12541   */\n              dup4\n                /* \"#utility.yul\":12528:12545   */\n              add\n                /* \"#utility.yul\":12521:12568   */\n              mstore\n                /* \"#utility.yul\":12585:12716   */\n              tag_323\n                /* \"#utility.yul\":12711:12715   */\n              dup2\n                /* \"#utility.yul\":12585:12716   */\n              tag_186\n              jump\t// in\n            tag_323:\n                /* \"#utility.yul\":12577:12716   */\n              swap1\n              pop\n                /* \"#utility.yul\":12304:12723   */\n              swap2\n              swap1\n              pop\n              jump\t// out\n                /* \"#utility.yul\":12729:12896   */\n            tag_187:\n                /* \"#utility.yul\":12869:12888   */\n              0x596f752061726520726567697374726564000000000000000000000000000000\n                /* \"#utility.yul\":12865:12866   */\n              0x00\n                /* \"#utility.yul\":12857:12863   */\n              dup3\n                /* \"#utility.yul\":12853:12867   */\n              add\n                /* \"#utility.yul\":12846:12889   */\n              mstore\n                /* \"#utility.yul\":12729:12896   */\n              pop\n              jump\t// out\n                /* \"#utility.yul\":12902:13268   */\n            tag_188:\n                /* \"#utility.yul\":13044:13047   */\n              0x00\n                /* \"#utility.yul\":13065:13132   */\n              tag_326\n                /* \"#utility.yul\":13129:13131   */\n              0x11\n                /* \"#utility.yul\":13124:13127   */\n              dup4\n                /* \"#utility.yul\":13065:13132   */\n              tag_157\n              jump\t// in\n            tag_326:\n                /* \"#utility.yul\":13058:13132   */\n              swap2\n              pop\n                /* \"#utility.yul\":13141:13234   */\n              tag_327\n                /* \"#utility.yul\":13230:13233   */\n              dup3\n                /* \"#utility.yul\":13141:13234   */\n              tag_187\n              jump\t// in\n            tag_327:\n                /* \"#utility.yul\":13259:13261   */\n              0x20\n                /* \"#utility.yul\":13254:13257   */\n              dup3\n                /* \"#utility.yul\":13250:13262   */\n              add\n                /* \"#utility.yul\":13243:13262   */\n              swap1\n              pop\n                /* \"#utility.yul\":12902:13268   */\n              swap2\n              swap1\n              pop\n              jump\t// out\n                /* \"#utility.yul\":13274:13693   */\n            tag_111:\n                /* \"#utility.yul\":13440:13444   */\n              0x00\n                /* \"#utility.yul\":13478:13480   */\n              0x20\n                /* \"#utility.yul\":13467:13476   */\n              dup3\n                /* \"#utility.yul\":13463:13481   */\n              add\n                /* \"#utility.yul\":13455:13481   */\n              swap1\n              pop\n                /* \"#utility.yul\":13527:13536   */\n              dup2\n                /* \"#utility.yul\":13521:13525   */\n              dup2\n                /* \"#utility.yul\":13517:13537   */\n              sub\n                /* \"#utility.yul\":13513:13514   */\n              0x00\n                /* \"#utility.yul\":13502:13511   */\n              dup4\n                /* \"#utility.yul\":13498:13515   */\n              add\n                /* \"#utility.yul\":13491:13538   */\n              mstore\n                /* \"#utility.yul\":13555:13686   */\n              tag_329\n                /* \"#utility.yul\":13681:13685   */\n              dup2\n                /* \"#utility.yul\":13555:13686   */\n              tag_188\n              jump\t// in\n            tag_329:\n                /* \"#utility.yul\":13547:13686   */\n              swap1\n              pop\n                /* \"#utility.yul\":13274:13693   */\n              swap2\n              swap1\n              pop\n              jump\t// out\n                /* \"#utility.yul\":13699:14122   */\n            tag_113:\n                /* \"#utility.yul\":13840:13844   */\n              0x00\n                /* \"#utility.yul\":13878:13880   */\n              0x40\n                /* \"#utility.yul\":13867:13876   */\n              dup3\n                /* \"#utility.yul\":13863:13881   */\n              add\n                /* \"#utility.yul\":13855:13881   */\n              swap1\n              pop\n                /* \"#utility.yul\":13927:13936   */\n              dup2\n                /* \"#utility.yul\":13921:13925   */\n              dup2\n                /* \"#utility.yul\":13917:13937   */\n              sub\n                /* \"#utility.yul\":13913:13914   */\n              0x00\n                /* \"#utility.yul\":13902:13911   */\n              dup4\n                /* \"#utility.yul\":13898:13915   */\n              add\n                /* \"#utility.yul\":13891:13938   */\n              mstore\n                /* \"#utility.yul\":13955:14033   */\n              tag_331\n                /* \"#utility.yul\":14028:14032   */\n              dup2\n                /* \"#utility.yul\":14019:14025   */\n              dup6\n                /* \"#utility.yul\":13955:14033   */\n              tag_160\n              jump\t// in\n            tag_331:\n                /* \"#utility.yul\":13947:14033   */\n              swap1\n              pop\n                /* \"#utility.yul\":14043:14115   */\n              tag_332\n                /* \"#utility.yul\":14111:14113   */\n              0x20\n                /* \"#utility.yul\":14100:14109   */\n              dup4\n                /* \"#utility.yul\":14096:14114   */\n              add\n                /* \"#utility.yul\":14087:14093   */\n              dup5\n                /* \"#utility.yul\":14043:14115   */\n              tag_153\n              jump\t// in\n            tag_332:\n                /* \"#utility.yul\":13699:14122   */\n              swap4\n              swap3\n              pop\n              pop\n              pop\n              jump\t// out\n                /* \"#utility.yul\":14128:14308   */\n            tag_189:\n                /* \"#utility.yul\":14176:14253   */\n              0x4e487b7100000000000000000000000000000000000000000000000000000000\n                /* \"#utility.yul\":14173:14174   */\n              0x00\n                /* \"#utility.yul\":14166:14254   */\n              mstore\n                /* \"#utility.yul\":14273:14277   */\n              0x11\n                /* \"#utility.yul\":14270:14271   */\n              0x04\n                /* \"#utility.yul\":14263:14278   */\n              mstore\n                /* \"#utility.yul\":14297:14301   */\n              0x24\n                /* \"#utility.yul\":14294:14295   */\n              0x00\n                /* \"#utility.yul\":14287:14302   */\n              revert\n                /* \"#utility.yul\":14314:14547   */\n            tag_115:\n                /* \"#utility.yul\":14353:14356   */\n              0x00\n                /* \"#utility.yul\":14376:14400   */\n              tag_335\n                /* \"#utility.yul\":14394:14399   */\n              dup3\n                /* \"#utility.yul\":14376:14400   */\n              tag_154\n              jump\t// in\n            tag_335:\n                /* \"#utility.yul\":14367:14400   */\n              swap2\n              pop\n                /* \"#utility.yul\":14422:14488   */\n              0xffffffffffffffffffffffffffffffffffffffffffffffffffffffffffffffff\n                /* \"#utility.yul\":14415:14420   */\n              dup3\n                /* \"#utility.yul\":14412:14489   */\n              sub\n                /* \"#utility.yul\":14409:14512   */\n              tag_336\n              jumpi\n                /* \"#utility.yul\":14492:14510   */\n              tag_337\n              tag_189\n              jump\t// in\n            tag_337:\n                /* \"#utility.yul\":14409:14512   */\n            tag_336:\n                /* \"#utility.yul\":14539:14540   */\n              0x01\n                /* \"#utility.yul\":14532:14537   */\n              dup3\n                /* \"#utility.yul\":14528:14541   */\n              add\n                /* \"#utility.yul\":14521:14541   */\n              swap1\n              pop\n                /* \"#utility.yul\":14314:14547   */\n              swap2\n              swap1\n              pop\n              jump\t// out\n                /* \"#utility.yul\":14553:14714   */\n            tag_190:\n                /* \"#utility.yul\":14693:14706   */\n              0x4e6f7420612067616d6572000000000000000000000000000000000000000000\n                /* \"#utility.yul\":14689:14690   */\n              0x00\n                /* \"#utility.yul\":14681:14687   */\n              dup3\n                /* \"#utility.yul\":14677:14691   */\n              add\n                /* \"#utility.yul\":14670:14707   */\n              mstore\n                /* \"#utility.yul\":14553:14714   */\n              pop\n              jump\t// out\n                /* \"#utility.yul\":14720:15086   */\n            tag_191:\n                /* \"#utility.yul\":14862:14865   */\n              0x00\n                /* \"#utility.yul\":14883:14950   */\n              tag_340\n                /* \"#utility.yul\":14947:14949   */\n              0x0b\n                /* \"#utility.yul\":14942:14945   */\n              dup4\n                /* \"#utility.yul\":14883:14950   */\n              tag_157\n              jump\t// in\n            tag_340:\n                /* \"#utility.yul\":14876:14950   */\n              swap2\n              pop\n                /* \"#utility.yul\":14959:15052   */\n              tag_341\n                /* \"#utility.yul\":15048:15051   */\n              dup3\n                /* \"#utility.yul\":14959:15052   */\n              tag_190\n              jump\t// in\n            tag_341:\n                /* \"#utility.yul\":15077:15079   */\n              0x20\n                /* \"#utility.yul\":15072:15075   */\n              dup3\n                /* \"#utility.yul\":15068:15080   */\n              add\n                /* \"#utility.yul\":15061:15080   */\n              swap1\n              pop\n                /* \"#utility.yul\":14720:15086   */\n              swap2\n              swap1\n              pop\n              jump\t// out\n                /* \"#utility.yul\":15092:15511   */\n            tag_121:\n                /* \"#utility.yul\":15258:15262   */\n              0x00\n                /* \"#utility.yul\":15296:15298   */\n              0x20\n                /* \"#utility.yul\":15285:15294   */\n              dup3\n                /* \"#utility.yul\":15281:15299   */\n              add\n                /* \"#utility.yul\":15273:15299   */\n              swap1\n              pop\n                /* \"#utility.yul\":15345:15354   */\n              dup2\n                /* \"#utility.yul\":15339:15343   */\n              dup2\n                /* \"#utility.yul\":15335:15355   */\n              sub\n                /* \"#utility.yul\":15331:15332   */\n              0x00\n                /* \"#utility.yul\":15320:15329   */\n              dup4\n                /* \"#utility.yul\":15316:15333   */\n              add\n                /* \"#utility.yul\":15309:15356   */\n              mstore\n                /* \"#utility.yul\":15373:15504   */\n              tag_343\n                /* \"#utility.yul\":15499:15503   */\n              dup2\n                /* \"#utility.yul\":15373:15504   */\n              tag_191\n              jump\t// in\n            tag_343:\n                /* \"#utility.yul\":15365:15504   */\n              swap1\n              pop\n                /* \"#utility.yul\":15092:15511   */\n              swap2\n              swap1\n              pop\n              jump\t// out\n                /* \"#utility.yul\":15517:15927   */\n            tag_127:\n                /* \"#utility.yul\":15557:15564   */\n              0x00\n                /* \"#utility.yul\":15580:15600   */\n              tag_345\n                /* \"#utility.yul\":15598:15599   */\n              dup3\n                /* \"#utility.yul\":15580:15600   */\n              tag_154\n              jump\t// in\n            tag_345:\n                /* \"#utility.yul\":15575:15600   */\n              swap2\n              pop\n                /* \"#utility.yul\":15614:15634   */\n              tag_346\n                /* \"#utility.yul\":15632:15633   */\n              dup4\n                /* \"#utility.yul\":15614:15634   */\n              tag_154\n              jump\t// in\n            tag_346:\n                /* \"#utility.yul\":15609:15634   */\n              swap3\n              pop\n                /* \"#utility.yul\":15669:15670   */\n              dup3\n                /* \"#utility.yul\":15666:15667   */\n              dup3\n                /* \"#utility.yul\":15662:15671   */\n              mul\n                /* \"#utility.yul\":15691:15721   */\n              tag_347\n                /* \"#utility.yul\":15709:15720   */\n              dup2\n                /* \"#utility.yul\":15691:15721   */\n              tag_154\n              jump\t// in\n            tag_347:\n                /* \"#utility.yul\":15680:15721   */\n              swap2\n              pop\n                /* \"#utility.yul\":15870:15871   */\n              dup3\n                /* \"#utility.yul\":15861:15868   */\n              dup3\n                /* \"#utility.yul\":15857:15872   */\n              div\n                /* \"#utility.yul\":15854:15855   */\n              dup5\n                /* \"#utility.yul\":15851:15873   */\n              eq\n                /* \"#utility.yul\":15831:15832   */\n              dup4\n                /* \"#utility.yul\":15824:15833   */\n              iszero\n                /* \"#utility.yul\":15804:15887   */\n              or\n                /* \"#utility.yul\":15781:15920   */\n              tag_348\n              jumpi\n                /* \"#utility.yul\":15900:15918   */\n              tag_349\n              tag_189\n              jump\t// in\n            tag_349:\n                /* \"#utility.yul\":15781:15920   */\n            tag_348:\n                /* \"#utility.yul\":15565:15927   */\n              pop\n                /* \"#utility.yul\":15517:15927   */\n              swap3\n              swap2\n              pop\n              pop\n              jump\t// out\n                /* \"#utility.yul\":15933:16113   */\n            tag_192:\n                /* \"#utility.yul\":15981:16058   */\n              0x4e487b7100000000000000000000000000000000000000000000000000000000\n                /* \"#utility.yul\":15978:15979   */\n              0x00\n                /* \"#utility.yul\":15971:16059   */\n              mstore\n                /* \"#utility.yul\":16078:16082   */\n              0x12\n                /* \"#utility.yul\":16075:16076   */\n              0x04\n                /* \"#utility.yul\":16068:16083   */\n              mstore\n                /* \"#utility.yul\":16102:16106   */\n              0x24\n                /* \"#utility.yul\":16099:16100   */\n              0x00\n                /* \"#utility.yul\":16092:16107   */\n              revert\n                /* \"#utility.yul\":16119:16304   */\n            tag_129:\n                /* \"#utility.yul\":16159:16160   */\n              0x00\n                /* \"#utility.yul\":16176:16196   */\n              tag_352\n                /* \"#utility.yul\":16194:16195   */\n              dup3\n                /* \"#utility.yul\":16176:16196   */\n              tag_154\n              jump\t// in\n            tag_352:\n                /* \"#utility.yul\":16171:16196   */\n              swap2\n              pop\n                /* \"#utility.yul\":16210:16230   */\n              tag_353\n                /* \"#utility.yul\":16228:16229   */\n              dup4\n                /* \"#utility.yul\":16210:16230   */\n              tag_154\n              jump\t// in\n            tag_353:\n                /* \"#utility.yul\":16205:16230   */\n              swap3\n              pop\n                /* \"#utility.yul\":16249:16250   */\n              dup3\n                /* \"#utility.yul\":16239:16274   */\n              tag_354\n              jumpi\n                /* \"#utility.yul\":16254:16272   */\n              tag_355\n              tag_192\n              jump\t// in\n            tag_355:\n                /* \"#utility.yul\":16239:16274   */\n            tag_354:\n                /* \"#utility.yul\":16296:16297   */\n              dup3\n                /* \"#utility.yul\":16293:16294   */\n              dup3\n                /* \"#utility.yul\":16289:16298   */\n              div\n                /* \"#utility.yul\":16284:16298   */\n              swap1\n              pop\n                /* \"#utility.yul\":16119:16304   */\n              swap3\n              swap2\n              pop\n              pop\n              jump\t// out\n                /* \"#utility.yul\":16310:16504   */\n            tag_134:\n                /* \"#utility.yul\":16350:16354   */\n              0x00\n                /* \"#utility.yul\":16370:16390   */\n              tag_357\n                /* \"#utility.yul\":16388:16389   */\n              dup3\n                /* \"#utility.yul\":16370:16390   */\n              tag_154\n              jump\t// in\n            tag_357:\n                /* \"#utility.yul\":16365:16390   */\n              swap2\n              pop\n                /* \"#utility.yul\":16404:16424   */\n              tag_358\n                /* \"#utility.yul\":16422:16423   */\n              dup4\n                /* \"#utility.yul\":16404:16424   */\n              tag_154\n              jump\t// in\n            tag_358:\n                /* \"#utility.yul\":16399:16424   */\n              swap3\n              pop\n                /* \"#utility.yul\":16448:16449   */\n              dup3\n                /* \"#utility.yul\":16445:16446   */\n              dup3\n                /* \"#utility.yul\":16441:16450   */\n              sub\n                /* \"#utility.yul\":16433:16450   */\n              swap1\n              pop\n                /* \"#utility.yul\":16472:16473   */\n              dup2\n                /* \"#utility.yul\":16466:16470   */\n              dup2\n                /* \"#utility.yul\":16463:16474   */\n              gt\n                /* \"#utility.yul\":16460:16497   */\n              iszero\n              tag_359\n              jumpi\n                /* \"#utility.yul\":16477:16495   */\n              tag_360\n              tag_189\n              jump\t// in\n            tag_360:\n                /* \"#utility.yul\":16460:16497   */\n            tag_359:\n                /* \"#utility.yul\":16310:16504   */\n              swap3\n              swap2\n              pop\n              pop\n              jump\t// out\n                /* \"#utility.yul\":16510:16570   */\n            tag_193:\n                /* \"#utility.yul\":16538:16541   */\n              0x00\n                /* \"#utility.yul\":16559:16564   */\n              dup2\n                /* \"#utility.yul\":16552:16564   */\n              swap1\n              pop\n                /* \"#utility.yul\":16510:16570   */\n              swap2\n              swap1\n              pop\n              jump\t// out\n                /* \"#utility.yul\":16576:16718   */\n            tag_194:\n                /* \"#utility.yul\":16626:16635   */\n              0x00\n                /* \"#utility.yul\":16659:16712   */\n              tag_363\n                /* \"#utility.yul\":16677:16711   */\n              tag_364\n                /* \"#utility.yul\":16686:16710   */\n              tag_365\n                /* \"#utility.yul\":16704:16709   */\n              dup5\n                /* \"#utility.yul\":16686:16710   */\n              tag_151\n              jump\t// in\n            tag_365:\n                /* \"#utility.yul\":16677:16711   */\n              tag_193\n              jump\t// in\n            tag_364:\n                /* \"#utility.yul\":16659:16712   */\n              tag_151\n              jump\t// in\n            tag_363:\n                /* \"#utility.yul\":16646:16712   */\n              swap1\n              pop\n                /* \"#utility.yul\":16576:16718   */\n              swap2\n              swap1\n              pop\n              jump\t// out\n                /* \"#utility.yul\":16724:16850   */\n            tag_195:\n                /* \"#utility.yul\":16774:16783   */\n              0x00\n                /* \"#utility.yul\":16807:16844   */\n              tag_367\n                /* \"#utility.yul\":16838:16843   */\n              dup3\n                /* \"#utility.yul\":16807:16844   */\n              tag_194\n              jump\t// in\n            tag_367:\n                /* \"#utility.yul\":16794:16844   */\n              swap1\n              pop\n                /* \"#utility.yul\":16724:16850   */\n              swap2\n              swap1\n              pop\n              jump\t// out\n                /* \"#utility.yul\":16856:16990   */\n            tag_196:\n                /* \"#utility.yul\":16914:16923   */\n              0x00\n                /* \"#utility.yul\":16947:16984   */\n              tag_369\n                /* \"#utility.yul\":16978:16983   */\n              dup3\n                /* \"#utility.yul\":16947:16984   */\n              tag_195\n              jump\t// in\n            tag_369:\n                /* \"#utility.yul\":16934:16984   */\n              swap1\n              pop\n                /* \"#utility.yul\":16856:16990   */\n              swap2\n              swap1\n              pop\n              jump\t// out\n                /* \"#utility.yul\":16996:17143   */\n            tag_197:\n                /* \"#utility.yul\":17091:17136   */\n              tag_371\n                /* \"#utility.yul\":17130:17135   */\n              dup2\n                /* \"#utility.yul\":17091:17136   */\n              tag_196\n              jump\t// in\n            tag_371:\n                /* \"#utility.yul\":17086:17089   */\n              dup3\n                /* \"#utility.yul\":17079:17137   */\n              mstore\n                /* \"#utility.yul\":16996:17143   */\n              pop\n              pop\n              jump\t// out\n                /* \"#utility.yul\":17149:17639   */\n            tag_144:\n                /* \"#utility.yul\":17322:17326   */\n              0x00\n                /* \"#utility.yul\":17360:17362   */\n              0x60\n                /* \"#utility.yul\":17349:17358   */\n              dup3\n                /* \"#utility.yul\":17345:17363   */\n              add\n                /* \"#utility.yul\":17337:17363   */\n              swap1\n              pop\n                /* \"#utility.yul\":17373:17452   */\n              tag_373\n                /* \"#utility.yul\":17449:17450   */\n              0x00\n                /* \"#utility.yul\":17438:17447   */\n              dup4\n                /* \"#utility.yul\":17434:17451   */\n              add\n                /* \"#utility.yul\":17425:17431   */\n              dup7\n                /* \"#utility.yul\":17373:17452   */\n              tag_197\n              jump\t// in\n            tag_373:\n                /* \"#utility.yul\":17462:17542   */\n              tag_374\n                /* \"#utility.yul\":17538:17540   */\n              0x20\n                /* \"#utility.yul\":17527:17536   */\n              dup4\n                /* \"#utility.yul\":17523:17541   */\n              add\n                /* \"#utility.yul\":17514:17520   */\n              dup6\n                /* \"#utility.yul\":17462:17542   */\n              tag_197\n              jump\t// in\n            tag_374:\n                /* \"#utility.yul\":17552:17632   */\n              tag_375\n                /* \"#utility.yul\":17628:17630   */\n              0x40\n                /* \"#utility.yul\":17617:17626   */\n              dup4\n                /* \"#utility.yul\":17613:17631   */\n              add\n                /* \"#utility.yul\":17604:17610   */\n              dup5\n                /* \"#utility.yul\":17552:17632   */\n              tag_197\n              jump\t// in\n            tag_375:\n                /* \"#utility.yul\":17149:17639   */\n              swap5\n              swap4\n              pop\n              pop\n              pop\n              pop\n              jump\t// out\n\n            auxdata: 0xa26469706673582212203eead5a54de46eaa4588086b2af0ff940e51313a5c436776f61d54b847b5c50364736f6c63430008110033\n        }\n    }\n\n    auxdata: 0xa2646970667358221220726d44bb5c2971da1679ff1a8785e515619c4b1c9f0c2e9b490895fe018f811564736f6c63430008110033\n}\n","bytecode":{"linkReferences":{},"object":"608060405234801561001057600080fd5b506127d2806100206000396000f3fe60806040523480156200001157600080fd5b5060043610620000465760003560e01c80632e9e1e93146200004b578063b69626fe146200006d578063dac622b5146200008d575b600080fd5b62000055620000c3565b60405162000064919062000355565b60405180910390f35b6200008b60048036038101906200008591906200052a565b62000153565b005b620000ab6004803603810190620000a591906200062e565b62000205565b604051620000ba919062000671565b60405180910390f35b606060008054806020026020016040519081016040528092919081815260200182805480156200014957602002820191906000526020600020905b8160009054906101000a900473ffffffffffffffffffffffffffffffffffffffff1673ffffffffffffffffffffffffffffffffffffffff1681526020019060010190808311620000fe575b5050505050905090565b6000858585853386604051620001699062000245565b6200017a9695949392919062000728565b604051809103906000f08015801562000197573d6000803e3d6000fd5b5090506000819080600181540180825580915050600190039060005260206000200160009091909190916101000a81548173ffffffffffffffffffffffffffffffffffffffff021916908373ffffffffffffffffffffffffffffffffffffffff160217905550505050505050565b600081815481106200021657600080fd5b906000526020600020016000915054906101000a900473ffffffffffffffffffffffffffffffffffffffff1681565b611feb80620007b283390190565b600081519050919050565b600082825260208201905092915050565b6000819050602082019050919050565b600073ffffffffffffffffffffffffffffffffffffffff82169050919050565b6000620002ac826200027f565b9050919050565b620002be816200029f565b82525050565b6000620002d28383620002b3565b60208301905092915050565b6000602082019050919050565b6000620002f88262000253565b6200030481856200025e565b935062000311836200026f565b8060005b83811015620003485781516200032c8882620002c4565b97506200033983620002de565b92505060018101905062000315565b5085935050505092915050565b60006020820190508181036000830152620003718184620002eb565b905092915050565b6000604051905090565b600080fd5b600080fd5b600080fd5b600080fd5b6000601f19601f8301169050919050565b7f4e487b7100000000000000000000000000000000000000000000000000000000600052604160045260246000fd5b620003e28262000397565b810181811067ffffffffffffffff82111715620004045762000403620003a8565b5b80604052505050565b60006200041962000379565b9050620004278282620003d7565b919050565b600067ffffffffffffffff8211156200044a5762000449620003a8565b5b620004558262000397565b9050602081019050919050565b82818337600083830152505050565b60006200048862000482846200042c565b6200040d565b905082815260208101848484011115620004a757620004a662000392565b5b620004b484828562000462565b509392505050565b600082601f830112620004d457620004d36200038d565b5b8135620004e684826020860162000471565b91505092915050565b6000819050919050565b6200050481620004ef565b81146200051057600080fd5b50565b6000813590506200052481620004f9565b92915050565b600080600080600060a0868803121562000549576200054862000383565b5b600086013567ffffffffffffffff8111156200056a576200056962000388565b5b6200057888828901620004bc565b955050602086013567ffffffffffffffff8111156200059c576200059b62000388565b5b620005aa88828901620004bc565b945050604086013567ffffffffffffffff811115620005ce57620005cd62000388565b5b620005dc88828901620004bc565b935050606086013567ffffffffffffffff8111156200060057620005ff62000388565b5b6200060e88828901620004bc565b9250506080620006218882890162000513565b9150509295509295909350565b60006020828403121562000647576200064662000383565b5b6000620006578482850162000513565b91505092915050565b6200066b816200029f565b82525050565b600060208201905062000688600083018462000660565b92915050565b600081519050919050565b600082825260208201905092915050565b60005b83811015620006ca578082015181840152602081019050620006ad565b60008484015250505050565b6000620006e3826200068e565b620006ef818562000699565b935062000701818560208601620006aa565b6200070c8162000397565b840191505092915050565b6200072281620004ef565b82525050565b600060c0820190508181036000830152620007448189620006d6565b905081810360208301526200075a8188620006d6565b90508181036040830152620007708187620006d6565b90508181036060830152620007868186620006d6565b905062000797608083018562000660565b620007a660a083018462000717565b97965050505050505056fe608060405273c5e9ddebb09cd64dfacab4011a0d5cedaf7c9bdb600a60006101000a81548173ffffffffffffffffffffffffffffffffffffffff021916908373ffffffffffffffffffffffffffffffffffffffff1602179055503480156200006657600080fd5b5060405162001feb38038062001feb83398181016040528101906200008c91906200036c565b8560006002019081620000a09190620006c5565b508460006003019081620000b59190620006c5565b508360006004019081620000ca9190620006c5565b508260006005019081620000df9190620006c5565b50816000800160006101000a81548173ffffffffffffffffffffffffffffffffffffffff021916908373ffffffffffffffffffffffffffffffffffffffff16021790555080600060010181905550505050505050620007ac565b6000604051905090565b600080fd5b600080fd5b600080fd5b600080fd5b6000601f19601f8301169050919050565b7f4e487b7100000000000000000000000000000000000000000000000000000000600052604160045260246000fd5b620001a28262000157565b810181811067ffffffffffffffff82111715620001c457620001c362000168565b5b80604052505050565b6000620001d962000139565b9050620001e7828262000197565b919050565b600067ffffffffffffffff8211156200020a576200020962000168565b5b620002158262000157565b9050602081019050919050565b60005b838110156200024257808201518184015260208101905062000225565b60008484015250505050565b6000620002656200025f84620001ec565b620001cd565b90508281526020810184848401111562000284576200028362000152565b5b6200029184828562000222565b509392505050565b600082601f830112620002b157620002b06200014d565b5b8151620002c38482602086016200024e565b91505092915050565b600073ffffffffffffffffffffffffffffffffffffffff82169050919050565b6000620002f982620002cc565b9050919050565b6200030b81620002ec565b81146200031757600080fd5b50565b6000815190506200032b8162000300565b92915050565b6000819050919050565b620003468162000331565b81146200035257600080fd5b50565b60008151905062000366816200033b565b92915050565b60008060008060008060c087890312156200038c576200038b62000143565b5b600087015167ffffffffffffffff811115620003ad57620003ac62000148565b5b620003bb89828a0162000299565b965050602087015167ffffffffffffffff811115620003df57620003de62000148565b5b620003ed89828a0162000299565b955050604087015167ffffffffffffffff81111562000411576200041062000148565b5b6200041f89828a0162000299565b945050606087015167ffffffffffffffff81111562000443576200044262000148565b5b6200045189828a0162000299565b93505060806200046489828a016200031a565b92505060a06200047789828a0162000355565b9150509295509295509295565b600081519050919050565b7f4e487b7100000000000000000000000000000000000000000000000000000000600052602260045260246000fd5b60006002820490506001821680620004d757607f821691505b602082108103620004ed57620004ec6200048f565b5b50919050565b60008190508160005260206000209050919050565b60006020601f8301049050919050565b600082821b905092915050565b600060088302620005577fffffffffffffffffffffffffffffffffffffffffffffffffffffffffffffffff8262000518565b62000563868362000518565b95508019841693508086168417925050509392505050565b6000819050919050565b6000620005a6620005a06200059a8462000331565b6200057b565b62000331565b9050919050565b6000819050919050565b620005c28362000585565b620005da620005d182620005ad565b84845462000525565b825550505050565b600090565b620005f1620005e2565b620005fe818484620005b7565b505050565b5b8181101562000626576200061a600082620005e7565b60018101905062000604565b5050565b601f82111562000675576200063f81620004f3565b6200064a8462000508565b810160208510156200065a578190505b62000672620006698562000508565b83018262000603565b50505b505050565b600082821c905092915050565b60006200069a600019846008026200067a565b1980831691505092915050565b6000620006b5838362000687565b9150826002028217905092915050565b620006d08262000484565b67ffffffffffffffff811115620006ec57620006eb62000168565b5b620006f88254620004be565b620007058282856200062a565b600060209050601f8311600181146200073d576000841562000728578287015190505b620007348582620006a7565b865550620007a4565b601f1984166200074d86620004f3565b60005b82811015620007775784890151825560018201915060208501945060208101905062000750565b8683101562000797578489015162000793601f89168262000687565b8355505b6001600288020188555050505b505050505050565b61182f80620007bc6000396000f3fe6080604052600436106100865760003560e01c80636f129a2a116100595780636f129a2a146101375780637cbaf0f9146101625780638ee1d3041461018d57806392666a28146101a9578063b59fa296146101d257610086565b806304f6fac41461008b578063338cdca1146100955780634051ddac146100c857806368bd3d44146100fa575b600080fd5b6100936101fd565b005b3480156100a157600080fd5b506100aa610279565b6040516100bf99989796959493929190610f75565b60405180910390f35b3480156100d457600080fd5b506100dd61050f565b6040516100f198979695949392919061101e565b60405180910390f35b34801561010657600080fd5b50610121600480360381019061011c91906110f8565b6107bd565b60405161012e9190611125565b60405180910390f35b34801561014357600080fd5b5061014c610815565b6040516101599190611125565b60405180910390f35b34801561016e57600080fd5b5061017761082e565b6040516101849190611125565b60405180910390f35b6101a760048036038101906101a291906112a1565b610847565b005b3480156101b557600080fd5b506101d060048036038101906101cb919061133b565b610a24565b005b3480156101de57600080fd5b506101e7610ddb565b6040516101f4919061138e565b60405180910390f35b6000800160009054906101000a900473ffffffffffffffffffffffffffffffffffffffff1673ffffffffffffffffffffffffffffffffffffffff163373ffffffffffffffffffffffffffffffffffffffff161461025957600080fd5b6001600060080160006101000a81548160ff021916908315150217905550565b60008060000160009054906101000a900473ffffffffffffffffffffffffffffffffffffffff16908060010154908060020180546102b6906113df565b80601f01602080910402602001604051908101604052809291908181526020018280546102e2906113df565b801561032f5780601f106103045761010080835404028352916020019161032f565b820191906000526020600020905b81548152906001019060200180831161031257829003601f168201915b505050505090806003018054610344906113df565b80601f0160208091040260200160405190810160405280929190818152602001828054610370906113df565b80156103bd5780601f10610392576101008083540402835291602001916103bd565b820191906000526020600020905b8154815290600101906020018083116103a057829003601f168201915b5050505050908060040180546103d2906113df565b80601f01602080910402602001604051908101604052809291908181526020018280546103fe906113df565b801561044b5780601f106104205761010080835404028352916020019161044b565b820191906000526020600020905b81548152906001019060200180831161042e57829003601f168201915b505050505090806005018054610460906113df565b80601f016020809104026020016040519081016040528092919081815260200182805461048c906113df565b80156104d95780601f106104ae576101008083540402835291602001916104d9565b820191906000526020600020905b8154815290600101906020018083116104bc57829003601f168201915b5050505050908060070154908060080160009054906101000a900460ff16908060080160019054906101000a900460ff16905089565b6000806060806060806000806000800160009054906101000a900473ffffffffffffffffffffffffffffffffffffffff166000600101546000600201600060030160006004016000600501600060070154600060080160019054906101000a900460ff1685805461057f906113df565b80601f01602080910402602001604051908101604052809291908181526020018280546105ab906113df565b80156105f85780601f106105cd576101008083540402835291602001916105f8565b820191906000526020600020905b8154815290600101906020018083116105db57829003601f168201915b5050505050955084805461060b906113df565b80601f0160208091040260200160405190810160405280929190818152602001828054610637906113df565b80156106845780601f1061065957610100808354040283529160200191610684565b820191906000526020600020905b81548152906001019060200180831161066757829003601f168201915b50505050509450838054610697906113df565b80601f01602080910402602001604051908101604052809291908181526020018280546106c3906113df565b80156107105780601f106106e557610100808354040283529160200191610710565b820191906000526020600020905b8154815290600101906020018083116106f357829003601f168201915b50505050509350828054610723906113df565b80601f016020809104026020016040519081016040528092919081815260200182805461074f906113df565b801561079c5780601f106107715761010080835404028352916020019161079c565b820191906000526020600020905b81548152906001019060200180831161077f57829003601f168201915b50505050509250975097509750975097509750975097509091929394959697565b60008060060160008373ffffffffffffffffffffffffffffffffffffffff1673ffffffffffffffffffffffffffffffffffffffff16815260200190815260200160002060009054906101000a900460ff169050919050565b60008060080160009054906101000a900460ff16905090565b60008060080160019054906101000a900460ff16905090565b600060080160019054906101000a900460ff161561089a576040517f08c379a00000000000000000000000000000000000000000000000000000000081526004016108919061145c565b60405180910390fd5b60006001015481146108e1576040517f08c379a00000000000000000000000000000000000000000000000000000000081526004016108d8906114ee565b60405180910390fd5b600060060160003373ffffffffffffffffffffffffffffffffffffffff1673ffffffffffffffffffffffffffffffffffffffff16815260200190815260200160002060009054906101000a900460ff1615610971576040517f08c379a00000000000000000000000000000000000000000000000000000000081526004016109689061155a565b60405180910390fd5b6001600060060160003373ffffffffffffffffffffffffffffffffffffffff1673ffffffffffffffffffffffffffffffffffffffff16815260200190815260200160002060006101000a81548160ff0219169083151502179055507f0fe063f9d0b8f6d449c36cd6b457da071c72930d7b819a2c1418d40c5eb1315482336040516109fd92919061157a565b60405180910390a160006007016000815480929190610a1b906115d9565b91905055505050565b6000800160009054906101000a900473ffffffffffffffffffffffffffffffffffffffff1673ffffffffffffffffffffffffffffffffffffffff163373ffffffffffffffffffffffffffffffffffffffff1614610a8057600080fd5b600060060160008473ffffffffffffffffffffffffffffffffffffffff1673ffffffffffffffffffffffffffffffffffffffff16815260200190815260200160002060009054906101000a900460ff16610b0f576040517f08c379a0000000000000000000000000000000000000000000000000000000008152600401610b069061166d565b60405180910390fd5b600060060160008373ffffffffffffffffffffffffffffffffffffffff1673ffffffffffffffffffffffffffffffffffffffff16815260200190815260200160002060009054906101000a900460ff16610b9e576040517f08c379a0000000000000000000000000000000000000000000000000000000008152600401610b959061166d565b60405180910390fd5b600060060160008273ffffffffffffffffffffffffffffffffffffffff1673ffffffffffffffffffffffffffffffffffffffff16815260200190815260200160002060009054906101000a900460ff16610c2d576040517f08c379a0000000000000000000000000000000000000000000000000000000008152600401610c249061166d565b60405180910390fd5b600047905060006064601983610c43919061168d565b610c4d91906116fe565b905060006064600f84610c60919061168d565b610c6a91906116fe565b90506000600a84610c7b91906116fe565b9050600081838587610c8d919061172f565b610c97919061172f565b610ca1919061172f565b90508773ffffffffffffffffffffffffffffffffffffffff166108fc859081150290604051600060405180830381858888f19350505050158015610ce9573d6000803e3d6000fd5b508673ffffffffffffffffffffffffffffffffffffffff166108fc849081150290604051600060405180830381858888f19350505050158015610d30573d6000803e3d6000fd5b508573ffffffffffffffffffffffffffffffffffffffff166108fc839081150290604051600060405180830381858888f19350505050158015610d77573d6000803e3d6000fd5b506001600060080160016101000a81548160ff0219169083151502179055507f7511a34e9b3f23fe8e01fe2ab113d7906109124765d598f46d95220981280b87888888604051610dc9939291906117c2565b60405180910390a15050505050505050565b606060006002018054610ded906113df565b80601f0160208091040260200160405190810160405280929190818152602001828054610e19906113df565b8015610e665780601f10610e3b57610100808354040283529160200191610e66565b820191906000526020600020905b815481529060010190602001808311610e4957829003601f168201915b5050505050905090565b600073ffffffffffffffffffffffffffffffffffffffff82169050919050565b6000610e9b82610e70565b9050919050565b610eab81610e90565b82525050565b6000819050919050565b610ec481610eb1565b82525050565b600081519050919050565b600082825260208201905092915050565b60005b83811015610f04578082015181840152602081019050610ee9565b60008484015250505050565b6000601f19601f8301169050919050565b6000610f2c82610eca565b610f368185610ed5565b9350610f46818560208601610ee6565b610f4f81610f10565b840191505092915050565b60008115159050919050565b610f6f81610f5a565b82525050565b600061012082019050610f8b600083018c610ea2565b610f98602083018b610ebb565b8181036040830152610faa818a610f21565b90508181036060830152610fbe8189610f21565b90508181036080830152610fd28188610f21565b905081810360a0830152610fe68187610f21565b9050610ff560c0830186610ebb565b61100260e0830185610f66565b611010610100830184610f66565b9a9950505050505050505050565b600061010082019050611034600083018b610ea2565b611041602083018a610ebb565b81810360408301526110538189610f21565b905081810360608301526110678188610f21565b9050818103608083015261107b8187610f21565b905081810360a083015261108f8186610f21565b905061109e60c0830185610ebb565b6110ab60e0830184610f66565b9998505050505050505050565b6000604051905090565b600080fd5b600080fd5b6110d581610e90565b81146110e057600080fd5b50565b6000813590506110f2816110cc565b92915050565b60006020828403121561110e5761110d6110c2565b5b600061111c848285016110e3565b91505092915050565b600060208201905061113a6000830184610f66565b92915050565b600080fd5b600080fd5b7f4e487b7100000000000000000000000000000000000000000000000000000000600052604160045260246000fd5b61118282610f10565b810181811067ffffffffffffffff821117156111a1576111a061114a565b5b80604052505050565b60006111b46110b8565b90506111c08282611179565b919050565b600067ffffffffffffffff8211156111e0576111df61114a565b5b6111e982610f10565b9050602081019050919050565b82818337600083830152505050565b6000611218611213846111c5565b6111aa565b90508281526020810184848401111561123457611233611145565b5b61123f8482856111f6565b509392505050565b600082601f83011261125c5761125b611140565b5b813561126c848260208601611205565b91505092915050565b61127e81610eb1565b811461128957600080fd5b50565b60008135905061129b81611275565b92915050565b600080604083850312156112b8576112b76110c2565b5b600083013567ffffffffffffffff8111156112d6576112d56110c7565b5b6112e285828601611247565b92505060206112f38582860161128c565b9150509250929050565b600061130882610e70565b9050919050565b611318816112fd565b811461132357600080fd5b50565b6000813590506113358161130f565b92915050565b600080600060608486031215611354576113536110c2565b5b600061136286828701611326565b935050602061137386828701611326565b925050604061138486828701611326565b9150509250925092565b600060208201905081810360008301526113a88184610f21565b905092915050565b7f4e487b7100000000000000000000000000000000000000000000000000000000600052602260045260246000fd5b600060028204905060018216806113f757607f821691505b60208210810361140a576114096113b0565b5b50919050565b7f54686520746f75726e616d656e74206973206f76657200000000000000000000600082015250565b6000611446601683610ed5565b915061145182611410565b602082019050919050565b6000602082019050818103600083015261147581611439565b9050919050565b7f5365742076616c7565203d20726567697374726174696f6e4665657320696e2060008201527f7765690000000000000000000000000000000000000000000000000000000000602082015250565b60006114d8602383610ed5565b91506114e38261147c565b604082019050919050565b60006020820190508181036000830152611507816114cb565b9050919050565b7f596f752061726520726567697374726564000000000000000000000000000000600082015250565b6000611544601183610ed5565b915061154f8261150e565b602082019050919050565b6000602082019050818103600083015261157381611537565b9050919050565b600060408201905081810360008301526115948185610f21565b90506115a36020830184610ea2565b9392505050565b7f4e487b7100000000000000000000000000000000000000000000000000000000600052601160045260246000fd5b60006115e482610eb1565b91507fffffffffffffffffffffffffffffffffffffffffffffffffffffffffffffffff8203611616576116156115aa565b5b600182019050919050565b7f4e6f7420612067616d6572000000000000000000000000000000000000000000600082015250565b6000611657600b83610ed5565b915061166282611621565b602082019050919050565b600060208201905081810360008301526116868161164a565b9050919050565b600061169882610eb1565b91506116a383610eb1565b92508282026116b181610eb1565b915082820484148315176116c8576116c76115aa565b5b5092915050565b7f4e487b7100000000000000000000000000000000000000000000000000000000600052601260045260246000fd5b600061170982610eb1565b915061171483610eb1565b925082611724576117236116cf565b5b828204905092915050565b600061173a82610eb1565b915061174583610eb1565b925082820390508181111561175d5761175c6115aa565b5b92915050565b6000819050919050565b600061178861178361177e84610e70565b611763565b610e70565b9050919050565b600061179a8261176d565b9050919050565b60006117ac8261178f565b9050919050565b6117bc816117a1565b82525050565b60006060820190506117d760008301866117b3565b6117e460208301856117b3565b6117f160408301846117b3565b94935050505056fea26469706673582212203eead5a54de46eaa4588086b2af0ff940e51313a5c436776f61d54b847b5c50364736f6c63430008110033a2646970667358221220726d44bb5c2971da1679ff1a8785e515619c4b1c9f0c2e9b490895fe018f811564736f6c63430008110033","opcodes":"PUSH1 0x80 PUSH1 0x40 MSTORE CALLVALUE DUP1 ISZERO PUSH2 0x10 JUMPI PUSH1 0x0 DUP1 REVERT JUMPDEST POP PUSH2 0x27D2 DUP1 PUSH2 0x20 PUSH1 0x0 CODECOPY PUSH1 0x0 RETURN INVALID PUSH1 0x80 PUSH1 0x40 MSTORE CALLVALUE DUP1 ISZERO PUSH3 0x11 JUMPI PUSH1 0x0 DUP1 REVERT JUMPDEST POP PUSH1 0x4 CALLDATASIZE LT PUSH3 0x46 JUMPI PUSH1 0x0 CALLDATALOAD PUSH1 0xE0 SHR DUP1 PUSH4 0x2E9E1E93 EQ PUSH3 0x4B JUMPI DUP1 PUSH4 0xB69626FE EQ PUSH3 0x6D JUMPI DUP1 PUSH4 0xDAC622B5 EQ PUSH3 0x8D JUMPI JUMPDEST PUSH1 0x0 DUP1 REVERT JUMPDEST PUSH3 0x55 PUSH3 0xC3 JUMP JUMPDEST PUSH1 0x40 MLOAD PUSH3 0x64 SWAP2 SWAP1 PUSH3 0x355 JUMP JUMPDEST PUSH1 0x40 MLOAD DUP1 SWAP2 SUB SWAP1 RETURN JUMPDEST PUSH3 0x8B PUSH1 0x4 DUP1 CALLDATASIZE SUB DUP2 ADD SWAP1 PUSH3 0x85 SWAP2 SWAP1 PUSH3 0x52A JUMP JUMPDEST PUSH3 0x153 JUMP JUMPDEST STOP JUMPDEST PUSH3 0xAB PUSH1 0x4 DUP1 CALLDATASIZE SUB DUP2 ADD SWAP1 PUSH3 0xA5 SWAP2 SWAP1 PUSH3 0x62E JUMP JUMPDEST PUSH3 0x205 JUMP JUMPDEST PUSH1 0x40 MLOAD PUSH3 0xBA SWAP2 SWAP1 PUSH3 0x671 JUMP JUMPDEST PUSH1 0x40 MLOAD DUP1 SWAP2 SUB SWAP1 RETURN JUMPDEST PUSH1 0x60 PUSH1 0x0 DUP1 SLOAD DUP1 PUSH1 0x20 MUL PUSH1 0x20 ADD PUSH1 0x40 MLOAD SWAP1 DUP2 ADD PUSH1 0x40 MSTORE DUP1 SWAP3 SWAP2 SWAP1 DUP2 DUP2 MSTORE PUSH1 0x20 ADD DUP3 DUP1 SLOAD DUP1 ISZERO PUSH3 0x149 JUMPI PUSH1 0x20 MUL DUP3 ADD SWAP2 SWAP1 PUSH1 0x0 MSTORE PUSH1 0x20 PUSH1 0x0 KECCAK256 SWAP1 JUMPDEST DUP2 PUSH1 0x0 SWAP1 SLOAD SWAP1 PUSH2 0x100 EXP SWAP1 DIV PUSH20 0xFFFFFFFFFFFFFFFFFFFFFFFFFFFFFFFFFFFFFFFF AND PUSH20 0xFFFFFFFFFFFFFFFFFFFFFFFFFFFFFFFFFFFFFFFF AND DUP2 MSTORE PUSH1 0x20 ADD SWAP1 PUSH1 0x1 ADD SWAP1 DUP1 DUP4 GT PUSH3 0xFE JUMPI JUMPDEST POP POP POP POP POP SWAP1 POP SWAP1 JUMP JUMPDEST PUSH1 0x0 DUP6 DUP6 DUP6 DUP6 CALLER DUP7 PUSH1 0x40 MLOAD PUSH3 0x169 SWAP1 PUSH3 0x245 JUMP JUMPDEST PUSH3 0x17A SWAP7 SWAP6 SWAP5 SWAP4 SWAP3 SWAP2 SWAP1 PUSH3 0x728 JUMP JUMPDEST PUSH1 0x40 MLOAD DUP1 SWAP2 SUB SWAP1 PUSH1 0x0 CREATE DUP1 ISZERO DUP1 ISZERO PUSH3 0x197 JUMPI RETURNDATASIZE PUSH1 0x0 DUP1 RETURNDATACOPY RETURNDATASIZE PUSH1 0x0 REVERT JUMPDEST POP SWAP1 POP PUSH1 0x0 DUP2 SWAP1 DUP1 PUSH1 0x1 DUP2 SLOAD ADD DUP1 DUP3 SSTORE DUP1 SWAP2 POP POP PUSH1 0x1 SWAP1 SUB SWAP1 PUSH1 0x0 MSTORE PUSH1 0x20 PUSH1 0x0 KECCAK256 ADD PUSH1 0x0 SWAP1 SWAP2 SWAP1 SWAP2 SWAP1 SWAP2 PUSH2 0x100 EXP DUP2 SLOAD DUP2 PUSH20 0xFFFFFFFFFFFFFFFFFFFFFFFFFFFFFFFFFFFFFFFF MUL NOT AND SWAP1 DUP4 PUSH20 0xFFFFFFFFFFFFFFFFFFFFFFFFFFFFFFFFFFFFFFFF AND MUL OR SWAP1 SSTORE POP POP POP POP POP POP POP JUMP JUMPDEST PUSH1 0x0 DUP2 DUP2 SLOAD DUP2 LT PUSH3 0x216 JUMPI PUSH1 0x0 DUP1 REVERT JUMPDEST SWAP1 PUSH1 0x0 MSTORE PUSH1 0x20 PUSH1 0x0 KECCAK256 ADD PUSH1 0x0 SWAP2 POP SLOAD SWAP1 PUSH2 0x100 EXP SWAP1 DIV PUSH20 0xFFFFFFFFFFFFFFFFFFFFFFFFFFFFFFFFFFFFFFFF AND DUP2 JUMP JUMPDEST PUSH2 0x1FEB DUP1 PUSH3 0x7B2 DUP4 CODECOPY ADD SWAP1 JUMP JUMPDEST PUSH1 0x0 DUP2 MLOAD SWAP1 POP SWAP2 SWAP1 POP JUMP JUMPDEST PUSH1 0x0 DUP3 DUP3 MSTORE PUSH1 0x20 DUP3 ADD SWAP1 POP SWAP3 SWAP2 POP POP JUMP JUMPDEST PUSH1 0x0 DUP2 SWAP1 POP PUSH1 0x20 DUP3 ADD SWAP1 POP SWAP2 SWAP1 POP JUMP JUMPDEST PUSH1 0x0 PUSH20 0xFFFFFFFFFFFFFFFFFFFFFFFFFFFFFFFFFFFFFFFF DUP3 AND SWAP1 POP SWAP2 SWAP1 POP JUMP JUMPDEST PUSH1 0x0 PUSH3 0x2AC DUP3 PUSH3 0x27F JUMP JUMPDEST SWAP1 POP SWAP2 SWAP1 POP JUMP JUMPDEST PUSH3 0x2BE DUP2 PUSH3 0x29F JUMP JUMPDEST DUP3 MSTORE POP POP JUMP JUMPDEST PUSH1 0x0 PUSH3 0x2D2 DUP4 DUP4 PUSH3 0x2B3 JUMP JUMPDEST PUSH1 0x20 DUP4 ADD SWAP1 POP SWAP3 SWAP2 POP POP JUMP JUMPDEST PUSH1 0x0 PUSH1 0x20 DUP3 ADD SWAP1 POP SWAP2 SWAP1 POP JUMP JUMPDEST PUSH1 0x0 PUSH3 0x2F8 DUP3 PUSH3 0x253 JUMP JUMPDEST PUSH3 0x304 DUP2 DUP6 PUSH3 0x25E JUMP JUMPDEST SWAP4 POP PUSH3 0x311 DUP4 PUSH3 0x26F JUMP JUMPDEST DUP1 PUSH1 0x0 JUMPDEST DUP4 DUP2 LT ISZERO PUSH3 0x348 JUMPI DUP2 MLOAD PUSH3 0x32C DUP9 DUP3 PUSH3 0x2C4 JUMP JUMPDEST SWAP8 POP PUSH3 0x339 DUP4 PUSH3 0x2DE JUMP JUMPDEST SWAP3 POP POP PUSH1 0x1 DUP2 ADD SWAP1 POP PUSH3 0x315 JUMP JUMPDEST POP DUP6 SWAP4 POP POP POP POP SWAP3 SWAP2 POP POP JUMP JUMPDEST PUSH1 0x0 PUSH1 0x20 DUP3 ADD SWAP1 POP DUP2 DUP2 SUB PUSH1 0x0 DUP4 ADD MSTORE PUSH3 0x371 DUP2 DUP5 PUSH3 0x2EB JUMP JUMPDEST SWAP1 POP SWAP3 SWAP2 POP POP JUMP JUMPDEST PUSH1 0x0 PUSH1 0x40 MLOAD SWAP1 POP SWAP1 JUMP JUMPDEST PUSH1 0x0 DUP1 REVERT JUMPDEST PUSH1 0x0 DUP1 REVERT JUMPDEST PUSH1 0x0 DUP1 REVERT JUMPDEST PUSH1 0x0 DUP1 REVERT JUMPDEST PUSH1 0x0 PUSH1 0x1F NOT PUSH1 0x1F DUP4 ADD AND SWAP1 POP SWAP2 SWAP1 POP JUMP JUMPDEST PUSH32 0x4E487B7100000000000000000000000000000000000000000000000000000000 PUSH1 0x0 MSTORE PUSH1 0x41 PUSH1 0x4 MSTORE PUSH1 0x24 PUSH1 0x0 REVERT JUMPDEST PUSH3 0x3E2 DUP3 PUSH3 0x397 JUMP JUMPDEST DUP2 ADD DUP2 DUP2 LT PUSH8 0xFFFFFFFFFFFFFFFF DUP3 GT OR ISZERO PUSH3 0x404 JUMPI PUSH3 0x403 PUSH3 0x3A8 JUMP JUMPDEST JUMPDEST DUP1 PUSH1 0x40 MSTORE POP POP POP JUMP JUMPDEST PUSH1 0x0 PUSH3 0x419 PUSH3 0x379 JUMP JUMPDEST SWAP1 POP PUSH3 0x427 DUP3 DUP3 PUSH3 0x3D7 JUMP JUMPDEST SWAP2 SWAP1 POP JUMP JUMPDEST PUSH1 0x0 PUSH8 0xFFFFFFFFFFFFFFFF DUP3 GT ISZERO PUSH3 0x44A JUMPI PUSH3 0x449 PUSH3 0x3A8 JUMP JUMPDEST JUMPDEST PUSH3 0x455 DUP3 PUSH3 0x397 JUMP JUMPDEST SWAP1 POP PUSH1 0x20 DUP2 ADD SWAP1 POP SWAP2 SWAP1 POP JUMP JUMPDEST DUP3 DUP2 DUP4 CALLDATACOPY PUSH1 0x0 DUP4 DUP4 ADD MSTORE POP POP POP JUMP JUMPDEST PUSH1 0x0 PUSH3 0x488 PUSH3 0x482 DUP5 PUSH3 0x42C JUMP JUMPDEST PUSH3 0x40D JUMP JUMPDEST SWAP1 POP DUP3 DUP2 MSTORE PUSH1 0x20 DUP2 ADD DUP5 DUP5 DUP5 ADD GT ISZERO PUSH3 0x4A7 JUMPI PUSH3 0x4A6 PUSH3 0x392 JUMP JUMPDEST JUMPDEST PUSH3 0x4B4 DUP5 DUP3 DUP6 PUSH3 0x462 JUMP JUMPDEST POP SWAP4 SWAP3 POP POP POP JUMP JUMPDEST PUSH1 0x0 DUP3 PUSH1 0x1F DUP4 ADD SLT PUSH3 0x4D4 JUMPI PUSH3 0x4D3 PUSH3 0x38D JUMP JUMPDEST JUMPDEST DUP2 CALLDATALOAD PUSH3 0x4E6 DUP5 DUP3 PUSH1 0x20 DUP7 ADD PUSH3 0x471 JUMP JUMPDEST SWAP2 POP POP SWAP3 SWAP2 POP POP JUMP JUMPDEST PUSH1 0x0 DUP2 SWAP1 POP SWAP2 SWAP1 POP JUMP JUMPDEST PUSH3 0x504 DUP2 PUSH3 0x4EF JUMP JUMPDEST DUP2 EQ PUSH3 0x510 JUMPI PUSH1 0x0 DUP1 REVERT JUMPDEST POP JUMP JUMPDEST PUSH1 0x0 DUP2 CALLDATALOAD SWAP1 POP PUSH3 0x524 DUP2 PUSH3 0x4F9 JUMP JUMPDEST SWAP3 SWAP2 POP POP JUMP JUMPDEST PUSH1 0x0 DUP1 PUSH1 0x0 DUP1 PUSH1 0x0 PUSH1 0xA0 DUP7 DUP9 SUB SLT ISZERO PUSH3 0x549 JUMPI PUSH3 0x548 PUSH3 0x383 JUMP JUMPDEST JUMPDEST PUSH1 0x0 DUP7 ADD CALLDATALOAD PUSH8 0xFFFFFFFFFFFFFFFF DUP2 GT ISZERO PUSH3 0x56A JUMPI PUSH3 0x569 PUSH3 0x388 JUMP JUMPDEST JUMPDEST PUSH3 0x578 DUP9 DUP3 DUP10 ADD PUSH3 0x4BC JUMP JUMPDEST SWAP6 POP POP PUSH1 0x20 DUP7 ADD CALLDATALOAD PUSH8 0xFFFFFFFFFFFFFFFF DUP2 GT ISZERO PUSH3 0x59C JUMPI PUSH3 0x59B PUSH3 0x388 JUMP JUMPDEST JUMPDEST PUSH3 0x5AA DUP9 DUP3 DUP10 ADD PUSH3 0x4BC JUMP JUMPDEST SWAP5 POP POP PUSH1 0x40 DUP7 ADD CALLDATALOAD PUSH8 0xFFFFFFFFFFFFFFFF DUP2 GT ISZERO PUSH3 0x5CE JUMPI PUSH3 0x5CD PUSH3 0x388 JUMP JUMPDEST JUMPDEST PUSH3 0x5DC DUP9 DUP3 DUP10 ADD PUSH3 0x4BC JUMP JUMPDEST SWAP4 POP POP PUSH1 0x60 DUP7 ADD CALLDATALOAD PUSH8 0xFFFFFFFFFFFFFFFF DUP2 GT ISZERO PUSH3 0x600 JUMPI PUSH3 0x5FF PUSH3 0x388 JUMP JUMPDEST JUMPDEST PUSH3 0x60E DUP9 DUP3 DUP10 ADD PUSH3 0x4BC JUMP JUMPDEST SWAP3 POP POP PUSH1 0x80 PUSH3 0x621 DUP9 DUP3 DUP10 ADD PUSH3 0x513 JUMP JUMPDEST SWAP2 POP POP SWAP3 SWAP6 POP SWAP3 SWAP6 SWAP1 SWAP4 POP JUMP JUMPDEST PUSH1 0x0 PUSH1 0x20 DUP3 DUP5 SUB SLT ISZERO PUSH3 0x647 JUMPI PUSH3 0x646 PUSH3 0x383 JUMP JUMPDEST JUMPDEST PUSH1 0x0 PUSH3 0x657 DUP5 DUP3 DUP6 ADD PUSH3 0x513 JUMP JUMPDEST SWAP2 POP POP SWAP3 SWAP2 POP POP JUMP JUMPDEST PUSH3 0x66B DUP2 PUSH3 0x29F JUMP JUMPDEST DUP3 MSTORE POP POP JUMP JUMPDEST PUSH1 0x0 PUSH1 0x20 DUP3 ADD SWAP1 POP PUSH3 0x688 PUSH1 0x0 DUP4 ADD DUP5 PUSH3 0x660 JUMP JUMPDEST SWAP3 SWAP2 POP POP JUMP JUMPDEST PUSH1 0x0 DUP2 MLOAD SWAP1 POP SWAP2 SWAP1 POP JUMP JUMPDEST PUSH1 0x0 DUP3 DUP3 MSTORE PUSH1 0x20 DUP3 ADD SWAP1 POP SWAP3 SWAP2 POP POP JUMP JUMPDEST PUSH1 0x0 JUMPDEST DUP4 DUP2 LT ISZERO PUSH3 0x6CA JUMPI DUP1 DUP3 ADD MLOAD DUP2 DUP5 ADD MSTORE PUSH1 0x20 DUP2 ADD SWAP1 POP PUSH3 0x6AD JUMP JUMPDEST PUSH1 0x0 DUP5 DUP5 ADD MSTORE POP POP POP POP JUMP JUMPDEST PUSH1 0x0 PUSH3 0x6E3 DUP3 PUSH3 0x68E JUMP JUMPDEST PUSH3 0x6EF DUP2 DUP6 PUSH3 0x699 JUMP JUMPDEST SWAP4 POP PUSH3 0x701 DUP2 DUP6 PUSH1 0x20 DUP7 ADD PUSH3 0x6AA JUMP JUMPDEST PUSH3 0x70C DUP2 PUSH3 0x397 JUMP JUMPDEST DUP5 ADD SWAP2 POP POP SWAP3 SWAP2 POP POP JUMP JUMPDEST PUSH3 0x722 DUP2 PUSH3 0x4EF JUMP JUMPDEST DUP3 MSTORE POP POP JUMP JUMPDEST PUSH1 0x0 PUSH1 0xC0 DUP3 ADD SWAP1 POP DUP2 DUP2 SUB PUSH1 0x0 DUP4 ADD MSTORE PUSH3 0x744 DUP2 DUP10 PUSH3 0x6D6 JUMP JUMPDEST SWAP1 POP DUP2 DUP2 SUB PUSH1 0x20 DUP4 ADD MSTORE PUSH3 0x75A DUP2 DUP9 PUSH3 0x6D6 JUMP JUMPDEST SWAP1 POP DUP2 DUP2 SUB PUSH1 0x40 DUP4 ADD MSTORE PUSH3 0x770 DUP2 DUP8 PUSH3 0x6D6 JUMP JUMPDEST SWAP1 POP DUP2 DUP2 SUB PUSH1 0x60 DUP4 ADD MSTORE PUSH3 0x786 DUP2 DUP7 PUSH3 0x6D6 JUMP JUMPDEST SWAP1 POP PUSH3 0x797 PUSH1 0x80 DUP4 ADD DUP6 PUSH3 0x660 JUMP JUMPDEST PUSH3 0x7A6 PUSH1 0xA0 DUP4 ADD DUP5 PUSH3 0x717 JUMP JUMPDEST SWAP8 SWAP7 POP POP POP POP POP POP POP JUMP INVALID PUSH1 0x80 PUSH1 0x40 MSTORE PUSH20 0xC5E9DDEBB09CD64DFACAB4011A0D5CEDAF7C9BDB PUSH1 0xA PUSH1 0x0 PUSH2 0x100 EXP DUP2 SLOAD DUP2 PUSH20 0xFFFFFFFFFFFFFFFFFFFFFFFFFFFFFFFFFFFFFFFF MUL NOT AND SWAP1 DUP4 PUSH20 0xFFFFFFFFFFFFFFFFFFFFFFFFFFFFFFFFFFFFFFFF AND MUL OR SWAP1 SSTORE POP CALLVALUE DUP1 ISZERO PUSH3 0x66 JUMPI PUSH1 0x0 DUP1 REVERT JUMPDEST POP PUSH1 0x40 MLOAD PUSH3 0x1FEB CODESIZE SUB DUP1 PUSH3 0x1FEB DUP4 CODECOPY DUP2 DUP2 ADD PUSH1 0x40 MSTORE DUP2 ADD SWAP1 PUSH3 0x8C SWAP2 SWAP1 PUSH3 0x36C JUMP JUMPDEST DUP6 PUSH1 0x0 PUSH1 0x2 ADD SWAP1 DUP2 PUSH3 0xA0 SWAP2 SWAP1 PUSH3 0x6C5 JUMP JUMPDEST POP DUP5 PUSH1 0x0 PUSH1 0x3 ADD SWAP1 DUP2 PUSH3 0xB5 SWAP2 SWAP1 PUSH3 0x6C5 JUMP JUMPDEST POP DUP4 PUSH1 0x0 PUSH1 0x4 ADD SWAP1 DUP2 PUSH3 0xCA SWAP2 SWAP1 PUSH3 0x6C5 JUMP JUMPDEST POP DUP3 PUSH1 0x0 PUSH1 0x5 ADD SWAP1 DUP2 PUSH3 0xDF SWAP2 SWAP1 PUSH3 0x6C5 JUMP JUMPDEST POP DUP2 PUSH1 0x0 DUP1 ADD PUSH1 0x0 PUSH2 0x100 EXP DUP2 SLOAD DUP2 PUSH20 0xFFFFFFFFFFFFFFFFFFFFFFFFFFFFFFFFFFFFFFFF MUL NOT AND SWAP1 DUP4 PUSH20 0xFFFFFFFFFFFFFFFFFFFFFFFFFFFFFFFFFFFFFFFF AND MUL OR SWAP1 SSTORE POP DUP1 PUSH1 0x0 PUSH1 0x1 ADD DUP2 SWAP1 SSTORE POP POP POP POP POP POP POP PUSH3 0x7AC JUMP JUMPDEST PUSH1 0x0 PUSH1 0x40 MLOAD SWAP1 POP SWAP1 JUMP JUMPDEST PUSH1 0x0 DUP1 REVERT JUMPDEST PUSH1 0x0 DUP1 REVERT JUMPDEST PUSH1 0x0 DUP1 REVERT JUMPDEST PUSH1 0x0 DUP1 REVERT JUMPDEST PUSH1 0x0 PUSH1 0x1F NOT PUSH1 0x1F DUP4 ADD AND SWAP1 POP SWAP2 SWAP1 POP JUMP JUMPDEST PUSH32 0x4E487B7100000000000000000000000000000000000000000000000000000000 PUSH1 0x0 MSTORE PUSH1 0x41 PUSH1 0x4 MSTORE PUSH1 0x24 PUSH1 0x0 REVERT JUMPDEST PUSH3 0x1A2 DUP3 PUSH3 0x157 JUMP JUMPDEST DUP2 ADD DUP2 DUP2 LT PUSH8 0xFFFFFFFFFFFFFFFF DUP3 GT OR ISZERO PUSH3 0x1C4 JUMPI PUSH3 0x1C3 PUSH3 0x168 JUMP JUMPDEST JUMPDEST DUP1 PUSH1 0x40 MSTORE POP POP POP JUMP JUMPDEST PUSH1 0x0 PUSH3 0x1D9 PUSH3 0x139 JUMP JUMPDEST SWAP1 POP PUSH3 0x1E7 DUP3 DUP3 PUSH3 0x197 JUMP JUMPDEST SWAP2 SWAP1 POP JUMP JUMPDEST PUSH1 0x0 PUSH8 0xFFFFFFFFFFFFFFFF DUP3 GT ISZERO PUSH3 0x20A JUMPI PUSH3 0x209 PUSH3 0x168 JUMP JUMPDEST JUMPDEST PUSH3 0x215 DUP3 PUSH3 0x157 JUMP JUMPDEST SWAP1 POP PUSH1 0x20 DUP2 ADD SWAP1 POP SWAP2 SWAP1 POP JUMP JUMPDEST PUSH1 0x0 JUMPDEST DUP4 DUP2 LT ISZERO PUSH3 0x242 JUMPI DUP1 DUP3 ADD MLOAD DUP2 DUP5 ADD MSTORE PUSH1 0x20 DUP2 ADD SWAP1 POP PUSH3 0x225 JUMP JUMPDEST PUSH1 0x0 DUP5 DUP5 ADD MSTORE POP POP POP POP JUMP JUMPDEST PUSH1 0x0 PUSH3 0x265 PUSH3 0x25F DUP5 PUSH3 0x1EC JUMP JUMPDEST PUSH3 0x1CD JUMP JUMPDEST SWAP1 POP DUP3 DUP2 MSTORE PUSH1 0x20 DUP2 ADD DUP5 DUP5 DUP5 ADD GT ISZERO PUSH3 0x284 JUMPI PUSH3 0x283 PUSH3 0x152 JUMP JUMPDEST JUMPDEST PUSH3 0x291 DUP5 DUP3 DUP6 PUSH3 0x222 JUMP JUMPDEST POP SWAP4 SWAP3 POP POP POP JUMP JUMPDEST PUSH1 0x0 DUP3 PUSH1 0x1F DUP4 ADD SLT PUSH3 0x2B1 JUMPI PUSH3 0x2B0 PUSH3 0x14D JUMP JUMPDEST JUMPDEST DUP2 MLOAD PUSH3 0x2C3 DUP5 DUP3 PUSH1 0x20 DUP7 ADD PUSH3 0x24E JUMP JUMPDEST SWAP2 POP POP SWAP3 SWAP2 POP POP JUMP JUMPDEST PUSH1 0x0 PUSH20 0xFFFFFFFFFFFFFFFFFFFFFFFFFFFFFFFFFFFFFFFF DUP3 AND SWAP1 POP SWAP2 SWAP1 POP JUMP JUMPDEST PUSH1 0x0 PUSH3 0x2F9 DUP3 PUSH3 0x2CC JUMP JUMPDEST SWAP1 POP SWAP2 SWAP1 POP JUMP JUMPDEST PUSH3 0x30B DUP2 PUSH3 0x2EC JUMP JUMPDEST DUP2 EQ PUSH3 0x317 JUMPI PUSH1 0x0 DUP1 REVERT JUMPDEST POP JUMP JUMPDEST PUSH1 0x0 DUP2 MLOAD SWAP1 POP PUSH3 0x32B DUP2 PUSH3 0x300 JUMP JUMPDEST SWAP3 SWAP2 POP POP JUMP JUMPDEST PUSH1 0x0 DUP2 SWAP1 POP SWAP2 SWAP1 POP JUMP JUMPDEST PUSH3 0x346 DUP2 PUSH3 0x331 JUMP JUMPDEST DUP2 EQ PUSH3 0x352 JUMPI PUSH1 0x0 DUP1 REVERT JUMPDEST POP JUMP JUMPDEST PUSH1 0x0 DUP2 MLOAD SWAP1 POP PUSH3 0x366 DUP2 PUSH3 0x33B JUMP JUMPDEST SWAP3 SWAP2 POP POP JUMP JUMPDEST PUSH1 0x0 DUP1 PUSH1 0x0 DUP1 PUSH1 0x0 DUP1 PUSH1 0xC0 DUP8 DUP10 SUB SLT ISZERO PUSH3 0x38C JUMPI PUSH3 0x38B PUSH3 0x143 JUMP JUMPDEST JUMPDEST PUSH1 0x0 DUP8 ADD MLOAD PUSH8 0xFFFFFFFFFFFFFFFF DUP2 GT ISZERO PUSH3 0x3AD JUMPI PUSH3 0x3AC PUSH3 0x148 JUMP JUMPDEST JUMPDEST PUSH3 0x3BB DUP10 DUP3 DUP11 ADD PUSH3 0x299 JUMP JUMPDEST SWAP7 POP POP PUSH1 0x20 DUP8 ADD MLOAD PUSH8 0xFFFFFFFFFFFFFFFF DUP2 GT ISZERO PUSH3 0x3DF JUMPI PUSH3 0x3DE PUSH3 0x148 JUMP JUMPDEST JUMPDEST PUSH3 0x3ED DUP10 DUP3 DUP11 ADD PUSH3 0x299 JUMP JUMPDEST SWAP6 POP POP PUSH1 0x40 DUP8 ADD MLOAD PUSH8 0xFFFFFFFFFFFFFFFF DUP2 GT ISZERO PUSH3 0x411 JUMPI PUSH3 0x410 PUSH3 0x148 JUMP JUMPDEST JUMPDEST PUSH3 0x41F DUP10 DUP3 DUP11 ADD PUSH3 0x299 JUMP JUMPDEST SWAP5 POP POP PUSH1 0x60 DUP8 ADD MLOAD PUSH8 0xFFFFFFFFFFFFFFFF DUP2 GT ISZERO PUSH3 0x443 JUMPI PUSH3 0x442 PUSH3 0x148 JUMP JUMPDEST JUMPDEST PUSH3 0x451 DUP10 DUP3 DUP11 ADD PUSH3 0x299 JUMP JUMPDEST SWAP4 POP POP PUSH1 0x80 PUSH3 0x464 DUP10 DUP3 DUP11 ADD PUSH3 0x31A JUMP JUMPDEST SWAP3 POP POP PUSH1 0xA0 PUSH3 0x477 DUP10 DUP3 DUP11 ADD PUSH3 0x355 JUMP JUMPDEST SWAP2 POP POP SWAP3 SWAP6 POP SWAP3 SWAP6 POP SWAP3 SWAP6 JUMP JUMPDEST PUSH1 0x0 DUP2 MLOAD SWAP1 POP SWAP2 SWAP1 POP JUMP JUMPDEST PUSH32 0x4E487B7100000000000000000000000000000000000000000000000000000000 PUSH1 0x0 MSTORE PUSH1 0x22 PUSH1 0x4 MSTORE PUSH1 0x24 PUSH1 0x0 REVERT JUMPDEST PUSH1 0x0 PUSH1 0x2 DUP3 DIV SWAP1 POP PUSH1 0x1 DUP3 AND DUP1 PUSH3 0x4D7 JUMPI PUSH1 0x7F DUP3 AND SWAP2 POP JUMPDEST PUSH1 0x20 DUP3 LT DUP2 SUB PUSH3 0x4ED JUMPI PUSH3 0x4EC PUSH3 0x48F JUMP JUMPDEST JUMPDEST POP SWAP2 SWAP1 POP JUMP JUMPDEST PUSH1 0x0 DUP2 SWAP1 POP DUP2 PUSH1 0x0 MSTORE PUSH1 0x20 PUSH1 0x0 KECCAK256 SWAP1 POP SWAP2 SWAP1 POP JUMP JUMPDEST PUSH1 0x0 PUSH1 0x20 PUSH1 0x1F DUP4 ADD DIV SWAP1 POP SWAP2 SWAP1 POP JUMP JUMPDEST PUSH1 0x0 DUP3 DUP3 SHL SWAP1 POP SWAP3 SWAP2 POP POP JUMP JUMPDEST PUSH1 0x0 PUSH1 0x8 DUP4 MUL PUSH3 0x557 PUSH32 0xFFFFFFFFFFFFFFFFFFFFFFFFFFFFFFFFFFFFFFFFFFFFFFFFFFFFFFFFFFFFFFFF DUP3 PUSH3 0x518 JUMP JUMPDEST PUSH3 0x563 DUP7 DUP4 PUSH3 0x518 JUMP JUMPDEST SWAP6 POP DUP1 NOT DUP5 AND SWAP4 POP DUP1 DUP7 AND DUP5 OR SWAP3 POP POP POP SWAP4 SWAP3 POP POP POP JUMP JUMPDEST PUSH1 0x0 DUP2 SWAP1 POP SWAP2 SWAP1 POP JUMP JUMPDEST PUSH1 0x0 PUSH3 0x5A6 PUSH3 0x5A0 PUSH3 0x59A DUP5 PUSH3 0x331 JUMP JUMPDEST PUSH3 0x57B JUMP JUMPDEST PUSH3 0x331 JUMP JUMPDEST SWAP1 POP SWAP2 SWAP1 POP JUMP JUMPDEST PUSH1 0x0 DUP2 SWAP1 POP SWAP2 SWAP1 POP JUMP JUMPDEST PUSH3 0x5C2 DUP4 PUSH3 0x585 JUMP JUMPDEST PUSH3 0x5DA PUSH3 0x5D1 DUP3 PUSH3 0x5AD JUMP JUMPDEST DUP5 DUP5 SLOAD PUSH3 0x525 JUMP JUMPDEST DUP3 SSTORE POP POP POP POP JUMP JUMPDEST PUSH1 0x0 SWAP1 JUMP JUMPDEST PUSH3 0x5F1 PUSH3 0x5E2 JUMP JUMPDEST PUSH3 0x5FE DUP2 DUP5 DUP5 PUSH3 0x5B7 JUMP JUMPDEST POP POP POP JUMP JUMPDEST JUMPDEST DUP2 DUP2 LT ISZERO PUSH3 0x626 JUMPI PUSH3 0x61A PUSH1 0x0 DUP3 PUSH3 0x5E7 JUMP JUMPDEST PUSH1 0x1 DUP2 ADD SWAP1 POP PUSH3 0x604 JUMP JUMPDEST POP POP JUMP JUMPDEST PUSH1 0x1F DUP3 GT ISZERO PUSH3 0x675 JUMPI PUSH3 0x63F DUP2 PUSH3 0x4F3 JUMP JUMPDEST PUSH3 0x64A DUP5 PUSH3 0x508 JUMP JUMPDEST DUP2 ADD PUSH1 0x20 DUP6 LT ISZERO PUSH3 0x65A JUMPI DUP2 SWAP1 POP JUMPDEST PUSH3 0x672 PUSH3 0x669 DUP6 PUSH3 0x508 JUMP JUMPDEST DUP4 ADD DUP3 PUSH3 0x603 JUMP JUMPDEST POP POP JUMPDEST POP POP POP JUMP JUMPDEST PUSH1 0x0 DUP3 DUP3 SHR SWAP1 POP SWAP3 SWAP2 POP POP JUMP JUMPDEST PUSH1 0x0 PUSH3 0x69A PUSH1 0x0 NOT DUP5 PUSH1 0x8 MUL PUSH3 0x67A JUMP JUMPDEST NOT DUP1 DUP4 AND SWAP2 POP POP SWAP3 SWAP2 POP POP JUMP JUMPDEST PUSH1 0x0 PUSH3 0x6B5 DUP4 DUP4 PUSH3 0x687 JUMP JUMPDEST SWAP2 POP DUP3 PUSH1 0x2 MUL DUP3 OR SWAP1 POP SWAP3 SWAP2 POP POP JUMP JUMPDEST PUSH3 0x6D0 DUP3 PUSH3 0x484 JUMP JUMPDEST PUSH8 0xFFFFFFFFFFFFFFFF DUP2 GT ISZERO PUSH3 0x6EC JUMPI PUSH3 0x6EB PUSH3 0x168 JUMP JUMPDEST JUMPDEST PUSH3 0x6F8 DUP3 SLOAD PUSH3 0x4BE JUMP JUMPDEST PUSH3 0x705 DUP3 DUP3 DUP6 PUSH3 0x62A JUMP JUMPDEST PUSH1 0x0 PUSH1 0x20 SWAP1 POP PUSH1 0x1F DUP4 GT PUSH1 0x1 DUP2 EQ PUSH3 0x73D JUMPI PUSH1 0x0 DUP5 ISZERO PUSH3 0x728 JUMPI DUP3 DUP8 ADD MLOAD SWAP1 POP JUMPDEST PUSH3 0x734 DUP6 DUP3 PUSH3 0x6A7 JUMP JUMPDEST DUP7 SSTORE POP PUSH3 0x7A4 JUMP JUMPDEST PUSH1 0x1F NOT DUP5 AND PUSH3 0x74D DUP7 PUSH3 0x4F3 JUMP JUMPDEST PUSH1 0x0 JUMPDEST DUP3 DUP2 LT ISZERO PUSH3 0x777 JUMPI DUP5 DUP10 ADD MLOAD DUP3 SSTORE PUSH1 0x1 DUP3 ADD SWAP2 POP PUSH1 0x20 DUP6 ADD SWAP5 POP PUSH1 0x20 DUP2 ADD SWAP1 POP PUSH3 0x750 JUMP JUMPDEST DUP7 DUP4 LT ISZERO PUSH3 0x797 JUMPI DUP5 DUP10 ADD MLOAD PUSH3 0x793 PUSH1 0x1F DUP10 AND DUP3 PUSH3 0x687 JUMP JUMPDEST DUP4 SSTORE POP JUMPDEST PUSH1 0x1 PUSH1 0x2 DUP9 MUL ADD DUP9 SSTORE POP POP POP JUMPDEST POP POP POP POP POP POP JUMP JUMPDEST PUSH2 0x182F DUP1 PUSH3 0x7BC PUSH1 0x0 CODECOPY PUSH1 0x0 RETURN INVALID PUSH1 0x80 PUSH1 0x40 MSTORE PUSH1 0x4 CALLDATASIZE LT PUSH2 0x86 JUMPI PUSH1 0x0 CALLDATALOAD PUSH1 0xE0 SHR DUP1 PUSH4 0x6F129A2A GT PUSH2 0x59 JUMPI DUP1 PUSH4 0x6F129A2A EQ PUSH2 0x137 JUMPI DUP1 PUSH4 0x7CBAF0F9 EQ PUSH2 0x162 JUMPI DUP1 PUSH4 0x8EE1D304 EQ PUSH2 0x18D JUMPI DUP1 PUSH4 0x92666A28 EQ PUSH2 0x1A9 JUMPI DUP1 PUSH4 0xB59FA296 EQ PUSH2 0x1D2 JUMPI PUSH2 0x86 JUMP JUMPDEST DUP1 PUSH4 0x4F6FAC4 EQ PUSH2 0x8B JUMPI DUP1 PUSH4 0x338CDCA1 EQ PUSH2 0x95 JUMPI DUP1 PUSH4 0x4051DDAC EQ PUSH2 0xC8 JUMPI DUP1 PUSH4 0x68BD3D44 EQ PUSH2 0xFA JUMPI JUMPDEST PUSH1 0x0 DUP1 REVERT JUMPDEST PUSH2 0x93 PUSH2 0x1FD JUMP JUMPDEST STOP JUMPDEST CALLVALUE DUP1 ISZERO PUSH2 0xA1 JUMPI PUSH1 0x0 DUP1 REVERT JUMPDEST POP PUSH2 0xAA PUSH2 0x279 JUMP JUMPDEST PUSH1 0x40 MLOAD PUSH2 0xBF SWAP10 SWAP9 SWAP8 SWAP7 SWAP6 SWAP5 SWAP4 SWAP3 SWAP2 SWAP1 PUSH2 0xF75 JUMP JUMPDEST PUSH1 0x40 MLOAD DUP1 SWAP2 SUB SWAP1 RETURN JUMPDEST CALLVALUE DUP1 ISZERO PUSH2 0xD4 JUMPI PUSH1 0x0 DUP1 REVERT JUMPDEST POP PUSH2 0xDD PUSH2 0x50F JUMP JUMPDEST PUSH1 0x40 MLOAD PUSH2 0xF1 SWAP9 SWAP8 SWAP7 SWAP6 SWAP5 SWAP4 SWAP3 SWAP2 SWAP1 PUSH2 0x101E JUMP JUMPDEST PUSH1 0x40 MLOAD DUP1 SWAP2 SUB SWAP1 RETURN JUMPDEST CALLVALUE DUP1 ISZERO PUSH2 0x106 JUMPI PUSH1 0x0 DUP1 REVERT JUMPDEST POP PUSH2 0x121 PUSH1 0x4 DUP1 CALLDATASIZE SUB DUP2 ADD SWAP1 PUSH2 0x11C SWAP2 SWAP1 PUSH2 0x10F8 JUMP JUMPDEST PUSH2 0x7BD JUMP JUMPDEST PUSH1 0x40 MLOAD PUSH2 0x12E SWAP2 SWAP1 PUSH2 0x1125 JUMP JUMPDEST PUSH1 0x40 MLOAD DUP1 SWAP2 SUB SWAP1 RETURN JUMPDEST CALLVALUE DUP1 ISZERO PUSH2 0x143 JUMPI PUSH1 0x0 DUP1 REVERT JUMPDEST POP PUSH2 0x14C PUSH2 0x815 JUMP JUMPDEST PUSH1 0x40 MLOAD PUSH2 0x159 SWAP2 SWAP1 PUSH2 0x1125 JUMP JUMPDEST PUSH1 0x40 MLOAD DUP1 SWAP2 SUB SWAP1 RETURN JUMPDEST CALLVALUE DUP1 ISZERO PUSH2 0x16E JUMPI PUSH1 0x0 DUP1 REVERT JUMPDEST POP PUSH2 0x177 PUSH2 0x82E JUMP JUMPDEST PUSH1 0x40 MLOAD PUSH2 0x184 SWAP2 SWAP1 PUSH2 0x1125 JUMP JUMPDEST PUSH1 0x40 MLOAD DUP1 SWAP2 SUB SWAP1 RETURN JUMPDEST PUSH2 0x1A7 PUSH1 0x4 DUP1 CALLDATASIZE SUB DUP2 ADD SWAP1 PUSH2 0x1A2 SWAP2 SWAP1 PUSH2 0x12A1 JUMP JUMPDEST PUSH2 0x847 JUMP JUMPDEST STOP JUMPDEST CALLVALUE DUP1 ISZERO PUSH2 0x1B5 JUMPI PUSH1 0x0 DUP1 REVERT JUMPDEST POP PUSH2 0x1D0 PUSH1 0x4 DUP1 CALLDATASIZE SUB DUP2 ADD SWAP1 PUSH2 0x1CB SWAP2 SWAP1 PUSH2 0x133B JUMP JUMPDEST PUSH2 0xA24 JUMP JUMPDEST STOP JUMPDEST CALLVALUE DUP1 ISZERO PUSH2 0x1DE JUMPI PUSH1 0x0 DUP1 REVERT JUMPDEST POP PUSH2 0x1E7 PUSH2 0xDDB JUMP JUMPDEST PUSH1 0x40 MLOAD PUSH2 0x1F4 SWAP2 SWAP1 PUSH2 0x138E JUMP JUMPDEST PUSH1 0x40 MLOAD DUP1 SWAP2 SUB SWAP1 RETURN JUMPDEST PUSH1 0x0 DUP1 ADD PUSH1 0x0 SWAP1 SLOAD SWAP1 PUSH2 0x100 EXP SWAP1 DIV PUSH20 0xFFFFFFFFFFFFFFFFFFFFFFFFFFFFFFFFFFFFFFFF AND PUSH20 0xFFFFFFFFFFFFFFFFFFFFFFFFFFFFFFFFFFFFFFFF AND CALLER PUSH20 0xFFFFFFFFFFFFFFFFFFFFFFFFFFFFFFFFFFFFFFFF AND EQ PUSH2 0x259 JUMPI PUSH1 0x0 DUP1 REVERT JUMPDEST PUSH1 0x1 PUSH1 0x0 PUSH1 0x8 ADD PUSH1 0x0 PUSH2 0x100 EXP DUP2 SLOAD DUP2 PUSH1 0xFF MUL NOT AND SWAP1 DUP4 ISZERO ISZERO MUL OR SWAP1 SSTORE POP JUMP JUMPDEST PUSH1 0x0 DUP1 PUSH1 0x0 ADD PUSH1 0x0 SWAP1 SLOAD SWAP1 PUSH2 0x100 EXP SWAP1 DIV PUSH20 0xFFFFFFFFFFFFFFFFFFFFFFFFFFFFFFFFFFFFFFFF AND SWAP1 DUP1 PUSH1 0x1 ADD SLOAD SWAP1 DUP1 PUSH1 0x2 ADD DUP1 SLOAD PUSH2 0x2B6 SWAP1 PUSH2 0x13DF JUMP JUMPDEST DUP1 PUSH1 0x1F ADD PUSH1 0x20 DUP1 SWAP2 DIV MUL PUSH1 0x20 ADD PUSH1 0x40 MLOAD SWAP1 DUP2 ADD PUSH1 0x40 MSTORE DUP1 SWAP3 SWAP2 SWAP1 DUP2 DUP2 MSTORE PUSH1 0x20 ADD DUP3 DUP1 SLOAD PUSH2 0x2E2 SWAP1 PUSH2 0x13DF JUMP JUMPDEST DUP1 ISZERO PUSH2 0x32F JUMPI DUP1 PUSH1 0x1F LT PUSH2 0x304 JUMPI PUSH2 0x100 DUP1 DUP4 SLOAD DIV MUL DUP4 MSTORE SWAP2 PUSH1 0x20 ADD SWAP2 PUSH2 0x32F JUMP JUMPDEST DUP3 ADD SWAP2 SWAP1 PUSH1 0x0 MSTORE PUSH1 0x20 PUSH1 0x0 KECCAK256 SWAP1 JUMPDEST DUP2 SLOAD DUP2 MSTORE SWAP1 PUSH1 0x1 ADD SWAP1 PUSH1 0x20 ADD DUP1 DUP4 GT PUSH2 0x312 JUMPI DUP3 SWAP1 SUB PUSH1 0x1F AND DUP3 ADD SWAP2 JUMPDEST POP POP POP POP POP SWAP1 DUP1 PUSH1 0x3 ADD DUP1 SLOAD PUSH2 0x344 SWAP1 PUSH2 0x13DF JUMP JUMPDEST DUP1 PUSH1 0x1F ADD PUSH1 0x20 DUP1 SWAP2 DIV MUL PUSH1 0x20 ADD PUSH1 0x40 MLOAD SWAP1 DUP2 ADD PUSH1 0x40 MSTORE DUP1 SWAP3 SWAP2 SWAP1 DUP2 DUP2 MSTORE PUSH1 0x20 ADD DUP3 DUP1 SLOAD PUSH2 0x370 SWAP1 PUSH2 0x13DF JUMP JUMPDEST DUP1 ISZERO PUSH2 0x3BD JUMPI DUP1 PUSH1 0x1F LT PUSH2 0x392 JUMPI PUSH2 0x100 DUP1 DUP4 SLOAD DIV MUL DUP4 MSTORE SWAP2 PUSH1 0x20 ADD SWAP2 PUSH2 0x3BD JUMP JUMPDEST DUP3 ADD SWAP2 SWAP1 PUSH1 0x0 MSTORE PUSH1 0x20 PUSH1 0x0 KECCAK256 SWAP1 JUMPDEST DUP2 SLOAD DUP2 MSTORE SWAP1 PUSH1 0x1 ADD SWAP1 PUSH1 0x20 ADD DUP1 DUP4 GT PUSH2 0x3A0 JUMPI DUP3 SWAP1 SUB PUSH1 0x1F AND DUP3 ADD SWAP2 JUMPDEST POP POP POP POP POP SWAP1 DUP1 PUSH1 0x4 ADD DUP1 SLOAD PUSH2 0x3D2 SWAP1 PUSH2 0x13DF JUMP JUMPDEST DUP1 PUSH1 0x1F ADD PUSH1 0x20 DUP1 SWAP2 DIV MUL PUSH1 0x20 ADD PUSH1 0x40 MLOAD SWAP1 DUP2 ADD PUSH1 0x40 MSTORE DUP1 SWAP3 SWAP2 SWAP1 DUP2 DUP2 MSTORE PUSH1 0x20 ADD DUP3 DUP1 SLOAD PUSH2 0x3FE SWAP1 PUSH2 0x13DF JUMP JUMPDEST DUP1 ISZERO PUSH2 0x44B JUMPI DUP1 PUSH1 0x1F LT PUSH2 0x420 JUMPI PUSH2 0x100 DUP1 DUP4 SLOAD DIV MUL DUP4 MSTORE SWAP2 PUSH1 0x20 ADD SWAP2 PUSH2 0x44B JUMP JUMPDEST DUP3 ADD SWAP2 SWAP1 PUSH1 0x0 MSTORE PUSH1 0x20 PUSH1 0x0 KECCAK256 SWAP1 JUMPDEST DUP2 SLOAD DUP2 MSTORE SWAP1 PUSH1 0x1 ADD SWAP1 PUSH1 0x20 ADD DUP1 DUP4 GT PUSH2 0x42E JUMPI DUP3 SWAP1 SUB PUSH1 0x1F AND DUP3 ADD SWAP2 JUMPDEST POP POP POP POP POP SWAP1 DUP1 PUSH1 0x5 ADD DUP1 SLOAD PUSH2 0x460 SWAP1 PUSH2 0x13DF JUMP JUMPDEST DUP1 PUSH1 0x1F ADD PUSH1 0x20 DUP1 SWAP2 DIV MUL PUSH1 0x20 ADD PUSH1 0x40 MLOAD SWAP1 DUP2 ADD PUSH1 0x40 MSTORE DUP1 SWAP3 SWAP2 SWAP1 DUP2 DUP2 MSTORE PUSH1 0x20 ADD DUP3 DUP1 SLOAD PUSH2 0x48C SWAP1 PUSH2 0x13DF JUMP JUMPDEST DUP1 ISZERO PUSH2 0x4D9 JUMPI DUP1 PUSH1 0x1F LT PUSH2 0x4AE JUMPI PUSH2 0x100 DUP1 DUP4 SLOAD DIV MUL DUP4 MSTORE SWAP2 PUSH1 0x20 ADD SWAP2 PUSH2 0x4D9 JUMP JUMPDEST DUP3 ADD SWAP2 SWAP1 PUSH1 0x0 MSTORE PUSH1 0x20 PUSH1 0x0 KECCAK256 SWAP1 JUMPDEST DUP2 SLOAD DUP2 MSTORE SWAP1 PUSH1 0x1 ADD SWAP1 PUSH1 0x20 ADD DUP1 DUP4 GT PUSH2 0x4BC JUMPI DUP3 SWAP1 SUB PUSH1 0x1F AND DUP3 ADD SWAP2 JUMPDEST POP POP POP POP POP SWAP1 DUP1 PUSH1 0x7 ADD SLOAD SWAP1 DUP1 PUSH1 0x8 ADD PUSH1 0x0 SWAP1 SLOAD SWAP1 PUSH2 0x100 EXP SWAP1 DIV PUSH1 0xFF AND SWAP1 DUP1 PUSH1 0x8 ADD PUSH1 0x1 SWAP1 SLOAD SWAP1 PUSH2 0x100 EXP SWAP1 DIV PUSH1 0xFF AND SWAP1 POP DUP10 JUMP JUMPDEST PUSH1 0x0 DUP1 PUSH1 0x60 DUP1 PUSH1 0x60 DUP1 PUSH1 0x0 DUP1 PUSH1 0x0 DUP1 ADD PUSH1 0x0 SWAP1 SLOAD SWAP1 PUSH2 0x100 EXP SWAP1 DIV PUSH20 0xFFFFFFFFFFFFFFFFFFFFFFFFFFFFFFFFFFFFFFFF AND PUSH1 0x0 PUSH1 0x1 ADD SLOAD PUSH1 0x0 PUSH1 0x2 ADD PUSH1 0x0 PUSH1 0x3 ADD PUSH1 0x0 PUSH1 0x4 ADD PUSH1 0x0 PUSH1 0x5 ADD PUSH1 0x0 PUSH1 0x7 ADD SLOAD PUSH1 0x0 PUSH1 0x8 ADD PUSH1 0x1 SWAP1 SLOAD SWAP1 PUSH2 0x100 EXP SWAP1 DIV PUSH1 0xFF AND DUP6 DUP1 SLOAD PUSH2 0x57F SWAP1 PUSH2 0x13DF JUMP JUMPDEST DUP1 PUSH1 0x1F ADD PUSH1 0x20 DUP1 SWAP2 DIV MUL PUSH1 0x20 ADD PUSH1 0x40 MLOAD SWAP1 DUP2 ADD PUSH1 0x40 MSTORE DUP1 SWAP3 SWAP2 SWAP1 DUP2 DUP2 MSTORE PUSH1 0x20 ADD DUP3 DUP1 SLOAD PUSH2 0x5AB SWAP1 PUSH2 0x13DF JUMP JUMPDEST DUP1 ISZERO PUSH2 0x5F8 JUMPI DUP1 PUSH1 0x1F LT PUSH2 0x5CD JUMPI PUSH2 0x100 DUP1 DUP4 SLOAD DIV MUL DUP4 MSTORE SWAP2 PUSH1 0x20 ADD SWAP2 PUSH2 0x5F8 JUMP JUMPDEST DUP3 ADD SWAP2 SWAP1 PUSH1 0x0 MSTORE PUSH1 0x20 PUSH1 0x0 KECCAK256 SWAP1 JUMPDEST DUP2 SLOAD DUP2 MSTORE SWAP1 PUSH1 0x1 ADD SWAP1 PUSH1 0x20 ADD DUP1 DUP4 GT PUSH2 0x5DB JUMPI DUP3 SWAP1 SUB PUSH1 0x1F AND DUP3 ADD SWAP2 JUMPDEST POP POP POP POP POP SWAP6 POP DUP5 DUP1 SLOAD PUSH2 0x60B SWAP1 PUSH2 0x13DF JUMP JUMPDEST DUP1 PUSH1 0x1F ADD PUSH1 0x20 DUP1 SWAP2 DIV MUL PUSH1 0x20 ADD PUSH1 0x40 MLOAD SWAP1 DUP2 ADD PUSH1 0x40 MSTORE DUP1 SWAP3 SWAP2 SWAP1 DUP2 DUP2 MSTORE PUSH1 0x20 ADD DUP3 DUP1 SLOAD PUSH2 0x637 SWAP1 PUSH2 0x13DF JUMP JUMPDEST DUP1 ISZERO PUSH2 0x684 JUMPI DUP1 PUSH1 0x1F LT PUSH2 0x659 JUMPI PUSH2 0x100 DUP1 DUP4 SLOAD DIV MUL DUP4 MSTORE SWAP2 PUSH1 0x20 ADD SWAP2 PUSH2 0x684 JUMP JUMPDEST DUP3 ADD SWAP2 SWAP1 PUSH1 0x0 MSTORE PUSH1 0x20 PUSH1 0x0 KECCAK256 SWAP1 JUMPDEST DUP2 SLOAD DUP2 MSTORE SWAP1 PUSH1 0x1 ADD SWAP1 PUSH1 0x20 ADD DUP1 DUP4 GT PUSH2 0x667 JUMPI DUP3 SWAP1 SUB PUSH1 0x1F AND DUP3 ADD SWAP2 JUMPDEST POP POP POP POP POP SWAP5 POP DUP4 DUP1 SLOAD PUSH2 0x697 SWAP1 PUSH2 0x13DF JUMP JUMPDEST DUP1 PUSH1 0x1F ADD PUSH1 0x20 DUP1 SWAP2 DIV MUL PUSH1 0x20 ADD PUSH1 0x40 MLOAD SWAP1 DUP2 ADD PUSH1 0x40 MSTORE DUP1 SWAP3 SWAP2 SWAP1 DUP2 DUP2 MSTORE PUSH1 0x20 ADD DUP3 DUP1 SLOAD PUSH2 0x6C3 SWAP1 PUSH2 0x13DF JUMP JUMPDEST DUP1 ISZERO PUSH2 0x710 JUMPI DUP1 PUSH1 0x1F LT PUSH2 0x6E5 JUMPI PUSH2 0x100 DUP1 DUP4 SLOAD DIV MUL DUP4 MSTORE SWAP2 PUSH1 0x20 ADD SWAP2 PUSH2 0x710 JUMP JUMPDEST DUP3 ADD SWAP2 SWAP1 PUSH1 0x0 MSTORE PUSH1 0x20 PUSH1 0x0 KECCAK256 SWAP1 JUMPDEST DUP2 SLOAD DUP2 MSTORE SWAP1 PUSH1 0x1 ADD SWAP1 PUSH1 0x20 ADD DUP1 DUP4 GT PUSH2 0x6F3 JUMPI DUP3 SWAP1 SUB PUSH1 0x1F AND DUP3 ADD SWAP2 JUMPDEST POP POP POP POP POP SWAP4 POP DUP3 DUP1 SLOAD PUSH2 0x723 SWAP1 PUSH2 0x13DF JUMP JUMPDEST DUP1 PUSH1 0x1F ADD PUSH1 0x20 DUP1 SWAP2 DIV MUL PUSH1 0x20 ADD PUSH1 0x40 MLOAD SWAP1 DUP2 ADD PUSH1 0x40 MSTORE DUP1 SWAP3 SWAP2 SWAP1 DUP2 DUP2 MSTORE PUSH1 0x20 ADD DUP3 DUP1 SLOAD PUSH2 0x74F SWAP1 PUSH2 0x13DF JUMP JUMPDEST DUP1 ISZERO PUSH2 0x79C JUMPI DUP1 PUSH1 0x1F LT PUSH2 0x771 JUMPI PUSH2 0x100 DUP1 DUP4 SLOAD DIV MUL DUP4 MSTORE SWAP2 PUSH1 0x20 ADD SWAP2 PUSH2 0x79C JUMP JUMPDEST DUP3 ADD SWAP2 SWAP1 PUSH1 0x0 MSTORE PUSH1 0x20 PUSH1 0x0 KECCAK256 SWAP1 JUMPDEST DUP2 SLOAD DUP2 MSTORE SWAP1 PUSH1 0x1 ADD SWAP1 PUSH1 0x20 ADD DUP1 DUP4 GT PUSH2 0x77F JUMPI DUP3 SWAP1 SUB PUSH1 0x1F AND DUP3 ADD SWAP2 JUMPDEST POP POP POP POP POP SWAP3 POP SWAP8 POP SWAP8 POP SWAP8 POP SWAP8 POP SWAP8 POP SWAP8 POP SWAP8 POP SWAP8 POP SWAP1 SWAP2 SWAP3 SWAP4 SWAP5 SWAP6 SWAP7 SWAP8 JUMP JUMPDEST PUSH1 0x0 DUP1 PUSH1 0x6 ADD PUSH1 0x0 DUP4 PUSH20 0xFFFFFFFFFFFFFFFFFFFFFFFFFFFFFFFFFFFFFFFF AND PUSH20 0xFFFFFFFFFFFFFFFFFFFFFFFFFFFFFFFFFFFFFFFF AND DUP2 MSTORE PUSH1 0x20 ADD SWAP1 DUP2 MSTORE PUSH1 0x20 ADD PUSH1 0x0 KECCAK256 PUSH1 0x0 SWAP1 SLOAD SWAP1 PUSH2 0x100 EXP SWAP1 DIV PUSH1 0xFF AND SWAP1 POP SWAP2 SWAP1 POP JUMP JUMPDEST PUSH1 0x0 DUP1 PUSH1 0x8 ADD PUSH1 0x0 SWAP1 SLOAD SWAP1 PUSH2 0x100 EXP SWAP1 DIV PUSH1 0xFF AND SWAP1 POP SWAP1 JUMP JUMPDEST PUSH1 0x0 DUP1 PUSH1 0x8 ADD PUSH1 0x1 SWAP1 SLOAD SWAP1 PUSH2 0x100 EXP SWAP1 DIV PUSH1 0xFF AND SWAP1 POP SWAP1 JUMP JUMPDEST PUSH1 0x0 PUSH1 0x8 ADD PUSH1 0x1 SWAP1 SLOAD SWAP1 PUSH2 0x100 EXP SWAP1 DIV PUSH1 0xFF AND ISZERO PUSH2 0x89A JUMPI PUSH1 0x40 MLOAD PUSH32 0x8C379A000000000000000000000000000000000000000000000000000000000 DUP2 MSTORE PUSH1 0x4 ADD PUSH2 0x891 SWAP1 PUSH2 0x145C JUMP JUMPDEST PUSH1 0x40 MLOAD DUP1 SWAP2 SUB SWAP1 REVERT JUMPDEST PUSH1 0x0 PUSH1 0x1 ADD SLOAD DUP2 EQ PUSH2 0x8E1 JUMPI PUSH1 0x40 MLOAD PUSH32 0x8C379A000000000000000000000000000000000000000000000000000000000 DUP2 MSTORE PUSH1 0x4 ADD PUSH2 0x8D8 SWAP1 PUSH2 0x14EE JUMP JUMPDEST PUSH1 0x40 MLOAD DUP1 SWAP2 SUB SWAP1 REVERT JUMPDEST PUSH1 0x0 PUSH1 0x6 ADD PUSH1 0x0 CALLER PUSH20 0xFFFFFFFFFFFFFFFFFFFFFFFFFFFFFFFFFFFFFFFF AND PUSH20 0xFFFFFFFFFFFFFFFFFFFFFFFFFFFFFFFFFFFFFFFF AND DUP2 MSTORE PUSH1 0x20 ADD SWAP1 DUP2 MSTORE PUSH1 0x20 ADD PUSH1 0x0 KECCAK256 PUSH1 0x0 SWAP1 SLOAD SWAP1 PUSH2 0x100 EXP SWAP1 DIV PUSH1 0xFF AND ISZERO PUSH2 0x971 JUMPI PUSH1 0x40 MLOAD PUSH32 0x8C379A000000000000000000000000000000000000000000000000000000000 DUP2 MSTORE PUSH1 0x4 ADD PUSH2 0x968 SWAP1 PUSH2 0x155A JUMP JUMPDEST PUSH1 0x40 MLOAD DUP1 SWAP2 SUB SWAP1 REVERT JUMPDEST PUSH1 0x1 PUSH1 0x0 PUSH1 0x6 ADD PUSH1 0x0 CALLER PUSH20 0xFFFFFFFFFFFFFFFFFFFFFFFFFFFFFFFFFFFFFFFF AND PUSH20 0xFFFFFFFFFFFFFFFFFFFFFFFFFFFFFFFFFFFFFFFF AND DUP2 MSTORE PUSH1 0x20 ADD SWAP1 DUP2 MSTORE PUSH1 0x20 ADD PUSH1 0x0 KECCAK256 PUSH1 0x0 PUSH2 0x100 EXP DUP2 SLOAD DUP2 PUSH1 0xFF MUL NOT AND SWAP1 DUP4 ISZERO ISZERO MUL OR SWAP1 SSTORE POP PUSH32 0xFE063F9D0B8F6D449C36CD6B457DA071C72930D7B819A2C1418D40C5EB13154 DUP3 CALLER PUSH1 0x40 MLOAD PUSH2 0x9FD SWAP3 SWAP2 SWAP1 PUSH2 0x157A JUMP JUMPDEST PUSH1 0x40 MLOAD DUP1 SWAP2 SUB SWAP1 LOG1 PUSH1 0x0 PUSH1 0x7 ADD PUSH1 0x0 DUP2 SLOAD DUP1 SWAP3 SWAP2 SWAP1 PUSH2 0xA1B SWAP1 PUSH2 0x15D9 JUMP JUMPDEST SWAP2 SWAP1 POP SSTORE POP POP POP JUMP JUMPDEST PUSH1 0x0 DUP1 ADD PUSH1 0x0 SWAP1 SLOAD SWAP1 PUSH2 0x100 EXP SWAP1 DIV PUSH20 0xFFFFFFFFFFFFFFFFFFFFFFFFFFFFFFFFFFFFFFFF AND PUSH20 0xFFFFFFFFFFFFFFFFFFFFFFFFFFFFFFFFFFFFFFFF AND CALLER PUSH20 0xFFFFFFFFFFFFFFFFFFFFFFFFFFFFFFFFFFFFFFFF AND EQ PUSH2 0xA80 JUMPI PUSH1 0x0 DUP1 REVERT JUMPDEST PUSH1 0x0 PUSH1 0x6 ADD PUSH1 0x0 DUP5 PUSH20 0xFFFFFFFFFFFFFFFFFFFFFFFFFFFFFFFFFFFFFFFF AND PUSH20 0xFFFFFFFFFFFFFFFFFFFFFFFFFFFFFFFFFFFFFFFF AND DUP2 MSTORE PUSH1 0x20 ADD SWAP1 DUP2 MSTORE PUSH1 0x20 ADD PUSH1 0x0 KECCAK256 PUSH1 0x0 SWAP1 SLOAD SWAP1 PUSH2 0x100 EXP SWAP1 DIV PUSH1 0xFF AND PUSH2 0xB0F JUMPI PUSH1 0x40 MLOAD PUSH32 0x8C379A000000000000000000000000000000000000000000000000000000000 DUP2 MSTORE PUSH1 0x4 ADD PUSH2 0xB06 SWAP1 PUSH2 0x166D JUMP JUMPDEST PUSH1 0x40 MLOAD DUP1 SWAP2 SUB SWAP1 REVERT JUMPDEST PUSH1 0x0 PUSH1 0x6 ADD PUSH1 0x0 DUP4 PUSH20 0xFFFFFFFFFFFFFFFFFFFFFFFFFFFFFFFFFFFFFFFF AND PUSH20 0xFFFFFFFFFFFFFFFFFFFFFFFFFFFFFFFFFFFFFFFF AND DUP2 MSTORE PUSH1 0x20 ADD SWAP1 DUP2 MSTORE PUSH1 0x20 ADD PUSH1 0x0 KECCAK256 PUSH1 0x0 SWAP1 SLOAD SWAP1 PUSH2 0x100 EXP SWAP1 DIV PUSH1 0xFF AND PUSH2 0xB9E JUMPI PUSH1 0x40 MLOAD PUSH32 0x8C379A000000000000000000000000000000000000000000000000000000000 DUP2 MSTORE PUSH1 0x4 ADD PUSH2 0xB95 SWAP1 PUSH2 0x166D JUMP JUMPDEST PUSH1 0x40 MLOAD DUP1 SWAP2 SUB SWAP1 REVERT JUMPDEST PUSH1 0x0 PUSH1 0x6 ADD PUSH1 0x0 DUP3 PUSH20 0xFFFFFFFFFFFFFFFFFFFFFFFFFFFFFFFFFFFFFFFF AND PUSH20 0xFFFFFFFFFFFFFFFFFFFFFFFFFFFFFFFFFFFFFFFF AND DUP2 MSTORE PUSH1 0x20 ADD SWAP1 DUP2 MSTORE PUSH1 0x20 ADD PUSH1 0x0 KECCAK256 PUSH1 0x0 SWAP1 SLOAD SWAP1 PUSH2 0x100 EXP SWAP1 DIV PUSH1 0xFF AND PUSH2 0xC2D JUMPI PUSH1 0x40 MLOAD PUSH32 0x8C379A000000000000000000000000000000000000000000000000000000000 DUP2 MSTORE PUSH1 0x4 ADD PUSH2 0xC24 SWAP1 PUSH2 0x166D JUMP JUMPDEST PUSH1 0x40 MLOAD DUP1 SWAP2 SUB SWAP1 REVERT JUMPDEST PUSH1 0x0 SELFBALANCE SWAP1 POP PUSH1 0x0 PUSH1 0x64 PUSH1 0x19 DUP4 PUSH2 0xC43 SWAP2 SWAP1 PUSH2 0x168D JUMP JUMPDEST PUSH2 0xC4D SWAP2 SWAP1 PUSH2 0x16FE JUMP JUMPDEST SWAP1 POP PUSH1 0x0 PUSH1 0x64 PUSH1 0xF DUP5 PUSH2 0xC60 SWAP2 SWAP1 PUSH2 0x168D JUMP JUMPDEST PUSH2 0xC6A SWAP2 SWAP1 PUSH2 0x16FE JUMP JUMPDEST SWAP1 POP PUSH1 0x0 PUSH1 0xA DUP5 PUSH2 0xC7B SWAP2 SWAP1 PUSH2 0x16FE JUMP JUMPDEST SWAP1 POP PUSH1 0x0 DUP2 DUP4 DUP6 DUP8 PUSH2 0xC8D SWAP2 SWAP1 PUSH2 0x172F JUMP JUMPDEST PUSH2 0xC97 SWAP2 SWAP1 PUSH2 0x172F JUMP JUMPDEST PUSH2 0xCA1 SWAP2 SWAP1 PUSH2 0x172F JUMP JUMPDEST SWAP1 POP DUP8 PUSH20 0xFFFFFFFFFFFFFFFFFFFFFFFFFFFFFFFFFFFFFFFF AND PUSH2 0x8FC DUP6 SWAP1 DUP2 ISZERO MUL SWAP1 PUSH1 0x40 MLOAD PUSH1 0x0 PUSH1 0x40 MLOAD DUP1 DUP4 SUB DUP2 DUP6 DUP9 DUP9 CALL SWAP4 POP POP POP POP ISZERO DUP1 ISZERO PUSH2 0xCE9 JUMPI RETURNDATASIZE PUSH1 0x0 DUP1 RETURNDATACOPY RETURNDATASIZE PUSH1 0x0 REVERT JUMPDEST POP DUP7 PUSH20 0xFFFFFFFFFFFFFFFFFFFFFFFFFFFFFFFFFFFFFFFF AND PUSH2 0x8FC DUP5 SWAP1 DUP2 ISZERO MUL SWAP1 PUSH1 0x40 MLOAD PUSH1 0x0 PUSH1 0x40 MLOAD DUP1 DUP4 SUB DUP2 DUP6 DUP9 DUP9 CALL SWAP4 POP POP POP POP ISZERO DUP1 ISZERO PUSH2 0xD30 JUMPI RETURNDATASIZE PUSH1 0x0 DUP1 RETURNDATACOPY RETURNDATASIZE PUSH1 0x0 REVERT JUMPDEST POP DUP6 PUSH20 0xFFFFFFFFFFFFFFFFFFFFFFFFFFFFFFFFFFFFFFFF AND PUSH2 0x8FC DUP4 SWAP1 DUP2 ISZERO MUL SWAP1 PUSH1 0x40 MLOAD PUSH1 0x0 PUSH1 0x40 MLOAD DUP1 DUP4 SUB DUP2 DUP6 DUP9 DUP9 CALL SWAP4 POP POP POP POP ISZERO DUP1 ISZERO PUSH2 0xD77 JUMPI RETURNDATASIZE PUSH1 0x0 DUP1 RETURNDATACOPY RETURNDATASIZE PUSH1 0x0 REVERT JUMPDEST POP PUSH1 0x1 PUSH1 0x0 PUSH1 0x8 ADD PUSH1 0x1 PUSH2 0x100 EXP DUP2 SLOAD DUP2 PUSH1 0xFF MUL NOT AND SWAP1 DUP4 ISZERO ISZERO MUL OR SWAP1 SSTORE POP PUSH32 0x7511A34E9B3F23FE8E01FE2AB113D7906109124765D598F46D95220981280B87 DUP9 DUP9 DUP9 PUSH1 0x40 MLOAD PUSH2 0xDC9 SWAP4 SWAP3 SWAP2 SWAP1 PUSH2 0x17C2 JUMP JUMPDEST PUSH1 0x40 MLOAD DUP1 SWAP2 SUB SWAP1 LOG1 POP POP POP POP POP POP POP POP JUMP JUMPDEST PUSH1 0x60 PUSH1 0x0 PUSH1 0x2 ADD DUP1 SLOAD PUSH2 0xDED SWAP1 PUSH2 0x13DF JUMP JUMPDEST DUP1 PUSH1 0x1F ADD PUSH1 0x20 DUP1 SWAP2 DIV MUL PUSH1 0x20 ADD PUSH1 0x40 MLOAD SWAP1 DUP2 ADD PUSH1 0x40 MSTORE DUP1 SWAP3 SWAP2 SWAP1 DUP2 DUP2 MSTORE PUSH1 0x20 ADD DUP3 DUP1 SLOAD PUSH2 0xE19 SWAP1 PUSH2 0x13DF JUMP JUMPDEST DUP1 ISZERO PUSH2 0xE66 JUMPI DUP1 PUSH1 0x1F LT PUSH2 0xE3B JUMPI PUSH2 0x100 DUP1 DUP4 SLOAD DIV MUL DUP4 MSTORE SWAP2 PUSH1 0x20 ADD SWAP2 PUSH2 0xE66 JUMP JUMPDEST DUP3 ADD SWAP2 SWAP1 PUSH1 0x0 MSTORE PUSH1 0x20 PUSH1 0x0 KECCAK256 SWAP1 JUMPDEST DUP2 SLOAD DUP2 MSTORE SWAP1 PUSH1 0x1 ADD SWAP1 PUSH1 0x20 ADD DUP1 DUP4 GT PUSH2 0xE49 JUMPI DUP3 SWAP1 SUB PUSH1 0x1F AND DUP3 ADD SWAP2 JUMPDEST POP POP POP POP POP SWAP1 POP SWAP1 JUMP JUMPDEST PUSH1 0x0 PUSH20 0xFFFFFFFFFFFFFFFFFFFFFFFFFFFFFFFFFFFFFFFF DUP3 AND SWAP1 POP SWAP2 SWAP1 POP JUMP JUMPDEST PUSH1 0x0 PUSH2 0xE9B DUP3 PUSH2 0xE70 JUMP JUMPDEST SWAP1 POP SWAP2 SWAP1 POP JUMP JUMPDEST PUSH2 0xEAB DUP2 PUSH2 0xE90 JUMP JUMPDEST DUP3 MSTORE POP POP JUMP JUMPDEST PUSH1 0x0 DUP2 SWAP1 POP SWAP2 SWAP1 POP JUMP JUMPDEST PUSH2 0xEC4 DUP2 PUSH2 0xEB1 JUMP JUMPDEST DUP3 MSTORE POP POP JUMP JUMPDEST PUSH1 0x0 DUP2 MLOAD SWAP1 POP SWAP2 SWAP1 POP JUMP JUMPDEST PUSH1 0x0 DUP3 DUP3 MSTORE PUSH1 0x20 DUP3 ADD SWAP1 POP SWAP3 SWAP2 POP POP JUMP JUMPDEST PUSH1 0x0 JUMPDEST DUP4 DUP2 LT ISZERO PUSH2 0xF04 JUMPI DUP1 DUP3 ADD MLOAD DUP2 DUP5 ADD MSTORE PUSH1 0x20 DUP2 ADD SWAP1 POP PUSH2 0xEE9 JUMP JUMPDEST PUSH1 0x0 DUP5 DUP5 ADD MSTORE POP POP POP POP JUMP JUMPDEST PUSH1 0x0 PUSH1 0x1F NOT PUSH1 0x1F DUP4 ADD AND SWAP1 POP SWAP2 SWAP1 POP JUMP JUMPDEST PUSH1 0x0 PUSH2 0xF2C DUP3 PUSH2 0xECA JUMP JUMPDEST PUSH2 0xF36 DUP2 DUP6 PUSH2 0xED5 JUMP JUMPDEST SWAP4 POP PUSH2 0xF46 DUP2 DUP6 PUSH1 0x20 DUP7 ADD PUSH2 0xEE6 JUMP JUMPDEST PUSH2 0xF4F DUP2 PUSH2 0xF10 JUMP JUMPDEST DUP5 ADD SWAP2 POP POP SWAP3 SWAP2 POP POP JUMP JUMPDEST PUSH1 0x0 DUP2 ISZERO ISZERO SWAP1 POP SWAP2 SWAP1 POP JUMP JUMPDEST PUSH2 0xF6F DUP2 PUSH2 0xF5A JUMP JUMPDEST DUP3 MSTORE POP POP JUMP JUMPDEST PUSH1 0x0 PUSH2 0x120 DUP3 ADD SWAP1 POP PUSH2 0xF8B PUSH1 0x0 DUP4 ADD DUP13 PUSH2 0xEA2 JUMP JUMPDEST PUSH2 0xF98 PUSH1 0x20 DUP4 ADD DUP12 PUSH2 0xEBB JUMP JUMPDEST DUP2 DUP2 SUB PUSH1 0x40 DUP4 ADD MSTORE PUSH2 0xFAA DUP2 DUP11 PUSH2 0xF21 JUMP JUMPDEST SWAP1 POP DUP2 DUP2 SUB PUSH1 0x60 DUP4 ADD MSTORE PUSH2 0xFBE DUP2 DUP10 PUSH2 0xF21 JUMP JUMPDEST SWAP1 POP DUP2 DUP2 SUB PUSH1 0x80 DUP4 ADD MSTORE PUSH2 0xFD2 DUP2 DUP9 PUSH2 0xF21 JUMP JUMPDEST SWAP1 POP DUP2 DUP2 SUB PUSH1 0xA0 DUP4 ADD MSTORE PUSH2 0xFE6 DUP2 DUP8 PUSH2 0xF21 JUMP JUMPDEST SWAP1 POP PUSH2 0xFF5 PUSH1 0xC0 DUP4 ADD DUP7 PUSH2 0xEBB JUMP JUMPDEST PUSH2 0x1002 PUSH1 0xE0 DUP4 ADD DUP6 PUSH2 0xF66 JUMP JUMPDEST PUSH2 0x1010 PUSH2 0x100 DUP4 ADD DUP5 PUSH2 0xF66 JUMP JUMPDEST SWAP11 SWAP10 POP POP POP POP POP POP POP POP POP POP JUMP JUMPDEST PUSH1 0x0 PUSH2 0x100 DUP3 ADD SWAP1 POP PUSH2 0x1034 PUSH1 0x0 DUP4 ADD DUP12 PUSH2 0xEA2 JUMP JUMPDEST PUSH2 0x1041 PUSH1 0x20 DUP4 ADD DUP11 PUSH2 0xEBB JUMP JUMPDEST DUP2 DUP2 SUB PUSH1 0x40 DUP4 ADD MSTORE PUSH2 0x1053 DUP2 DUP10 PUSH2 0xF21 JUMP JUMPDEST SWAP1 POP DUP2 DUP2 SUB PUSH1 0x60 DUP4 ADD MSTORE PUSH2 0x1067 DUP2 DUP9 PUSH2 0xF21 JUMP JUMPDEST SWAP1 POP DUP2 DUP2 SUB PUSH1 0x80 DUP4 ADD MSTORE PUSH2 0x107B DUP2 DUP8 PUSH2 0xF21 JUMP JUMPDEST SWAP1 POP DUP2 DUP2 SUB PUSH1 0xA0 DUP4 ADD MSTORE PUSH2 0x108F DUP2 DUP7 PUSH2 0xF21 JUMP JUMPDEST SWAP1 POP PUSH2 0x109E PUSH1 0xC0 DUP4 ADD DUP6 PUSH2 0xEBB JUMP JUMPDEST PUSH2 0x10AB PUSH1 0xE0 DUP4 ADD DUP5 PUSH2 0xF66 JUMP JUMPDEST SWAP10 SWAP9 POP POP POP POP POP POP POP POP POP JUMP JUMPDEST PUSH1 0x0 PUSH1 0x40 MLOAD SWAP1 POP SWAP1 JUMP JUMPDEST PUSH1 0x0 DUP1 REVERT JUMPDEST PUSH1 0x0 DUP1 REVERT JUMPDEST PUSH2 0x10D5 DUP2 PUSH2 0xE90 JUMP JUMPDEST DUP2 EQ PUSH2 0x10E0 JUMPI PUSH1 0x0 DUP1 REVERT JUMPDEST POP JUMP JUMPDEST PUSH1 0x0 DUP2 CALLDATALOAD SWAP1 POP PUSH2 0x10F2 DUP2 PUSH2 0x10CC JUMP JUMPDEST SWAP3 SWAP2 POP POP JUMP JUMPDEST PUSH1 0x0 PUSH1 0x20 DUP3 DUP5 SUB SLT ISZERO PUSH2 0x110E JUMPI PUSH2 0x110D PUSH2 0x10C2 JUMP JUMPDEST JUMPDEST PUSH1 0x0 PUSH2 0x111C DUP5 DUP3 DUP6 ADD PUSH2 0x10E3 JUMP JUMPDEST SWAP2 POP POP SWAP3 SWAP2 POP POP JUMP JUMPDEST PUSH1 0x0 PUSH1 0x20 DUP3 ADD SWAP1 POP PUSH2 0x113A PUSH1 0x0 DUP4 ADD DUP5 PUSH2 0xF66 JUMP JUMPDEST SWAP3 SWAP2 POP POP JUMP JUMPDEST PUSH1 0x0 DUP1 REVERT JUMPDEST PUSH1 0x0 DUP1 REVERT JUMPDEST PUSH32 0x4E487B7100000000000000000000000000000000000000000000000000000000 PUSH1 0x0 MSTORE PUSH1 0x41 PUSH1 0x4 MSTORE PUSH1 0x24 PUSH1 0x0 REVERT JUMPDEST PUSH2 0x1182 DUP3 PUSH2 0xF10 JUMP JUMPDEST DUP2 ADD DUP2 DUP2 LT PUSH8 0xFFFFFFFFFFFFFFFF DUP3 GT OR ISZERO PUSH2 0x11A1 JUMPI PUSH2 0x11A0 PUSH2 0x114A JUMP JUMPDEST JUMPDEST DUP1 PUSH1 0x40 MSTORE POP POP POP JUMP JUMPDEST PUSH1 0x0 PUSH2 0x11B4 PUSH2 0x10B8 JUMP JUMPDEST SWAP1 POP PUSH2 0x11C0 DUP3 DUP3 PUSH2 0x1179 JUMP JUMPDEST SWAP2 SWAP1 POP JUMP JUMPDEST PUSH1 0x0 PUSH8 0xFFFFFFFFFFFFFFFF DUP3 GT ISZERO PUSH2 0x11E0 JUMPI PUSH2 0x11DF PUSH2 0x114A JUMP JUMPDEST JUMPDEST PUSH2 0x11E9 DUP3 PUSH2 0xF10 JUMP JUMPDEST SWAP1 POP PUSH1 0x20 DUP2 ADD SWAP1 POP SWAP2 SWAP1 POP JUMP JUMPDEST DUP3 DUP2 DUP4 CALLDATACOPY PUSH1 0x0 DUP4 DUP4 ADD MSTORE POP POP POP JUMP JUMPDEST PUSH1 0x0 PUSH2 0x1218 PUSH2 0x1213 DUP5 PUSH2 0x11C5 JUMP JUMPDEST PUSH2 0x11AA JUMP JUMPDEST SWAP1 POP DUP3 DUP2 MSTORE PUSH1 0x20 DUP2 ADD DUP5 DUP5 DUP5 ADD GT ISZERO PUSH2 0x1234 JUMPI PUSH2 0x1233 PUSH2 0x1145 JUMP JUMPDEST JUMPDEST PUSH2 0x123F DUP5 DUP3 DUP6 PUSH2 0x11F6 JUMP JUMPDEST POP SWAP4 SWAP3 POP POP POP JUMP JUMPDEST PUSH1 0x0 DUP3 PUSH1 0x1F DUP4 ADD SLT PUSH2 0x125C JUMPI PUSH2 0x125B PUSH2 0x1140 JUMP JUMPDEST JUMPDEST DUP2 CALLDATALOAD PUSH2 0x126C DUP5 DUP3 PUSH1 0x20 DUP7 ADD PUSH2 0x1205 JUMP JUMPDEST SWAP2 POP POP SWAP3 SWAP2 POP POP JUMP JUMPDEST PUSH2 0x127E DUP2 PUSH2 0xEB1 JUMP JUMPDEST DUP2 EQ PUSH2 0x1289 JUMPI PUSH1 0x0 DUP1 REVERT JUMPDEST POP JUMP JUMPDEST PUSH1 0x0 DUP2 CALLDATALOAD SWAP1 POP PUSH2 0x129B DUP2 PUSH2 0x1275 JUMP JUMPDEST SWAP3 SWAP2 POP POP JUMP JUMPDEST PUSH1 0x0 DUP1 PUSH1 0x40 DUP4 DUP6 SUB SLT ISZERO PUSH2 0x12B8 JUMPI PUSH2 0x12B7 PUSH2 0x10C2 JUMP JUMPDEST JUMPDEST PUSH1 0x0 DUP4 ADD CALLDATALOAD PUSH8 0xFFFFFFFFFFFFFFFF DUP2 GT ISZERO PUSH2 0x12D6 JUMPI PUSH2 0x12D5 PUSH2 0x10C7 JUMP JUMPDEST JUMPDEST PUSH2 0x12E2 DUP6 DUP3 DUP7 ADD PUSH2 0x1247 JUMP JUMPDEST SWAP3 POP POP PUSH1 0x20 PUSH2 0x12F3 DUP6 DUP3 DUP7 ADD PUSH2 0x128C JUMP JUMPDEST SWAP2 POP POP SWAP3 POP SWAP3 SWAP1 POP JUMP JUMPDEST PUSH1 0x0 PUSH2 0x1308 DUP3 PUSH2 0xE70 JUMP JUMPDEST SWAP1 POP SWAP2 SWAP1 POP JUMP JUMPDEST PUSH2 0x1318 DUP2 PUSH2 0x12FD JUMP JUMPDEST DUP2 EQ PUSH2 0x1323 JUMPI PUSH1 0x0 DUP1 REVERT JUMPDEST POP JUMP JUMPDEST PUSH1 0x0 DUP2 CALLDATALOAD SWAP1 POP PUSH2 0x1335 DUP2 PUSH2 0x130F JUMP JUMPDEST SWAP3 SWAP2 POP POP JUMP JUMPDEST PUSH1 0x0 DUP1 PUSH1 0x0 PUSH1 0x60 DUP5 DUP7 SUB SLT ISZERO PUSH2 0x1354 JUMPI PUSH2 0x1353 PUSH2 0x10C2 JUMP JUMPDEST JUMPDEST PUSH1 0x0 PUSH2 0x1362 DUP7 DUP3 DUP8 ADD PUSH2 0x1326 JUMP JUMPDEST SWAP4 POP POP PUSH1 0x20 PUSH2 0x1373 DUP7 DUP3 DUP8 ADD PUSH2 0x1326 JUMP JUMPDEST SWAP3 POP POP PUSH1 0x40 PUSH2 0x1384 DUP7 DUP3 DUP8 ADD PUSH2 0x1326 JUMP JUMPDEST SWAP2 POP POP SWAP3 POP SWAP3 POP SWAP3 JUMP JUMPDEST PUSH1 0x0 PUSH1 0x20 DUP3 ADD SWAP1 POP DUP2 DUP2 SUB PUSH1 0x0 DUP4 ADD MSTORE PUSH2 0x13A8 DUP2 DUP5 PUSH2 0xF21 JUMP JUMPDEST SWAP1 POP SWAP3 SWAP2 POP POP JUMP JUMPDEST PUSH32 0x4E487B7100000000000000000000000000000000000000000000000000000000 PUSH1 0x0 MSTORE PUSH1 0x22 PUSH1 0x4 MSTORE PUSH1 0x24 PUSH1 0x0 REVERT JUMPDEST PUSH1 0x0 PUSH1 0x2 DUP3 DIV SWAP1 POP PUSH1 0x1 DUP3 AND DUP1 PUSH2 0x13F7 JUMPI PUSH1 0x7F DUP3 AND SWAP2 POP JUMPDEST PUSH1 0x20 DUP3 LT DUP2 SUB PUSH2 0x140A JUMPI PUSH2 0x1409 PUSH2 0x13B0 JUMP JUMPDEST JUMPDEST POP SWAP2 SWAP1 POP JUMP JUMPDEST PUSH32 0x54686520746F75726E616D656E74206973206F76657200000000000000000000 PUSH1 0x0 DUP3 ADD MSTORE POP JUMP JUMPDEST PUSH1 0x0 PUSH2 0x1446 PUSH1 0x16 DUP4 PUSH2 0xED5 JUMP JUMPDEST SWAP2 POP PUSH2 0x1451 DUP3 PUSH2 0x1410 JUMP JUMPDEST PUSH1 0x20 DUP3 ADD SWAP1 POP SWAP2 SWAP1 POP JUMP JUMPDEST PUSH1 0x0 PUSH1 0x20 DUP3 ADD SWAP1 POP DUP2 DUP2 SUB PUSH1 0x0 DUP4 ADD MSTORE PUSH2 0x1475 DUP2 PUSH2 0x1439 JUMP JUMPDEST SWAP1 POP SWAP2 SWAP1 POP JUMP JUMPDEST PUSH32 0x5365742076616C7565203D20726567697374726174696F6E4665657320696E20 PUSH1 0x0 DUP3 ADD MSTORE PUSH32 0x7765690000000000000000000000000000000000000000000000000000000000 PUSH1 0x20 DUP3 ADD MSTORE POP JUMP JUMPDEST PUSH1 0x0 PUSH2 0x14D8 PUSH1 0x23 DUP4 PUSH2 0xED5 JUMP JUMPDEST SWAP2 POP PUSH2 0x14E3 DUP3 PUSH2 0x147C JUMP JUMPDEST PUSH1 0x40 DUP3 ADD SWAP1 POP SWAP2 SWAP1 POP JUMP JUMPDEST PUSH1 0x0 PUSH1 0x20 DUP3 ADD SWAP1 POP DUP2 DUP2 SUB PUSH1 0x0 DUP4 ADD MSTORE PUSH2 0x1507 DUP2 PUSH2 0x14CB JUMP JUMPDEST SWAP1 POP SWAP2 SWAP1 POP JUMP JUMPDEST PUSH32 0x596F752061726520726567697374726564000000000000000000000000000000 PUSH1 0x0 DUP3 ADD MSTORE POP JUMP JUMPDEST PUSH1 0x0 PUSH2 0x1544 PUSH1 0x11 DUP4 PUSH2 0xED5 JUMP JUMPDEST SWAP2 POP PUSH2 0x154F DUP3 PUSH2 0x150E JUMP JUMPDEST PUSH1 0x20 DUP3 ADD SWAP1 POP SWAP2 SWAP1 POP JUMP JUMPDEST PUSH1 0x0 PUSH1 0x20 DUP3 ADD SWAP1 POP DUP2 DUP2 SUB PUSH1 0x0 DUP4 ADD MSTORE PUSH2 0x1573 DUP2 PUSH2 0x1537 JUMP JUMPDEST SWAP1 POP SWAP2 SWAP1 POP JUMP JUMPDEST PUSH1 0x0 PUSH1 0x40 DUP3 ADD SWAP1 POP DUP2 DUP2 SUB PUSH1 0x0 DUP4 ADD MSTORE PUSH2 0x1594 DUP2 DUP6 PUSH2 0xF21 JUMP JUMPDEST SWAP1 POP PUSH2 0x15A3 PUSH1 0x20 DUP4 ADD DUP5 PUSH2 0xEA2 JUMP JUMPDEST SWAP4 SWAP3 POP POP POP JUMP JUMPDEST PUSH32 0x4E487B7100000000000000000000000000000000000000000000000000000000 PUSH1 0x0 MSTORE PUSH1 0x11 PUSH1 0x4 MSTORE PUSH1 0x24 PUSH1 0x0 REVERT JUMPDEST PUSH1 0x0 PUSH2 0x15E4 DUP3 PUSH2 0xEB1 JUMP JUMPDEST SWAP2 POP PUSH32 0xFFFFFFFFFFFFFFFFFFFFFFFFFFFFFFFFFFFFFFFFFFFFFFFFFFFFFFFFFFFFFFFF DUP3 SUB PUSH2 0x1616 JUMPI PUSH2 0x1615 PUSH2 0x15AA JUMP JUMPDEST JUMPDEST PUSH1 0x1 DUP3 ADD SWAP1 POP SWAP2 SWAP1 POP JUMP JUMPDEST PUSH32 0x4E6F7420612067616D6572000000000000000000000000000000000000000000 PUSH1 0x0 DUP3 ADD MSTORE POP JUMP JUMPDEST PUSH1 0x0 PUSH2 0x1657 PUSH1 0xB DUP4 PUSH2 0xED5 JUMP JUMPDEST SWAP2 POP PUSH2 0x1662 DUP3 PUSH2 0x1621 JUMP JUMPDEST PUSH1 0x20 DUP3 ADD SWAP1 POP SWAP2 SWAP1 POP JUMP JUMPDEST PUSH1 0x0 PUSH1 0x20 DUP3 ADD SWAP1 POP DUP2 DUP2 SUB PUSH1 0x0 DUP4 ADD MSTORE PUSH2 0x1686 DUP2 PUSH2 0x164A JUMP JUMPDEST SWAP1 POP SWAP2 SWAP1 POP JUMP JUMPDEST PUSH1 0x0 PUSH2 0x1698 DUP3 PUSH2 0xEB1 JUMP JUMPDEST SWAP2 POP PUSH2 0x16A3 DUP4 PUSH2 0xEB1 JUMP JUMPDEST SWAP3 POP DUP3 DUP3 MUL PUSH2 0x16B1 DUP2 PUSH2 0xEB1 JUMP JUMPDEST SWAP2 POP DUP3 DUP3 DIV DUP5 EQ DUP4 ISZERO OR PUSH2 0x16C8 JUMPI PUSH2 0x16C7 PUSH2 0x15AA JUMP JUMPDEST JUMPDEST POP SWAP3 SWAP2 POP POP JUMP JUMPDEST PUSH32 0x4E487B7100000000000000000000000000000000000000000000000000000000 PUSH1 0x0 MSTORE PUSH1 0x12 PUSH1 0x4 MSTORE PUSH1 0x24 PUSH1 0x0 REVERT JUMPDEST PUSH1 0x0 PUSH2 0x1709 DUP3 PUSH2 0xEB1 JUMP JUMPDEST SWAP2 POP PUSH2 0x1714 DUP4 PUSH2 0xEB1 JUMP JUMPDEST SWAP3 POP DUP3 PUSH2 0x1724 JUMPI PUSH2 0x1723 PUSH2 0x16CF JUMP JUMPDEST JUMPDEST DUP3 DUP3 DIV SWAP1 POP SWAP3 SWAP2 POP POP JUMP JUMPDEST PUSH1 0x0 PUSH2 0x173A DUP3 PUSH2 0xEB1 JUMP JUMPDEST SWAP2 POP PUSH2 0x1745 DUP4 PUSH2 0xEB1 JUMP JUMPDEST SWAP3 POP DUP3 DUP3 SUB SWAP1 POP DUP2 DUP2 GT ISZERO PUSH2 0x175D JUMPI PUSH2 0x175C PUSH2 0x15AA JUMP JUMPDEST JUMPDEST SWAP3 SWAP2 POP POP JUMP JUMPDEST PUSH1 0x0 DUP2 SWAP1 POP SWAP2 SWAP1 POP JUMP JUMPDEST PUSH1 0x0 PUSH2 0x1788 PUSH2 0x1783 PUSH2 0x177E DUP5 PUSH2 0xE70 JUMP JUMPDEST PUSH2 0x1763 JUMP JUMPDEST PUSH2 0xE70 JUMP JUMPDEST SWAP1 POP SWAP2 SWAP1 POP JUMP JUMPDEST PUSH1 0x0 PUSH2 0x179A DUP3 PUSH2 0x176D JUMP JUMPDEST SWAP1 POP SWAP2 SWAP1 POP JUMP JUMPDEST PUSH1 0x0 PUSH2 0x17AC DUP3 PUSH2 0x178F JUMP JUMPDEST SWAP1 POP SWAP2 SWAP1 POP JUMP JUMPDEST PUSH2 0x17BC DUP2 PUSH2 0x17A1 JUMP JUMPDEST DUP3 MSTORE POP POP JUMP JUMPDEST PUSH1 0x0 PUSH1 0x60 DUP3 ADD SWAP1 POP PUSH2 0x17D7 PUSH1 0x0 DUP4 ADD DUP7 PUSH2 0x17B3 JUMP JUMPDEST PUSH2 0x17E4 PUSH1 0x20 DUP4 ADD DUP6 PUSH2 0x17B3 JUMP JUMPDEST PUSH2 0x17F1 PUSH1 0x40 DUP4 ADD DUP5 PUSH2 0x17B3 JUMP JUMPDEST SWAP5 SWAP4 POP POP POP POP JUMP INVALID LOG2 PUSH5 0x6970667358 0x22 SLT KECCAK256 RETURNDATACOPY 0xEA 0xD5 0xA5 0x4D 0xE4 PUSH15 0xAA4588086B2AF0FF940E51313A5C43 PUSH8 0x76F61D54B847B5C5 SUB PUSH5 0x736F6C6343 STOP ADDMOD GT STOP CALLER LOG2 PUSH5 0x6970667358 0x22 SLT KECCAK256 PUSH19 0x6D44BB5C2971DA1679FF1A8785E515619C4B1C SWAP16 0xC 0x2E SWAP12 0x49 ADDMOD SWAP6 INVALID ADD DUP16 DUP2 ISZERO PUSH5 0x736F6C6343 STOP ADDMOD GT STOP CALLER "},"gasEstimates":{"creation":{"codeDepositCost":"2038800","executionCost":"2163","totalCost":"2040963"},"external":{"createTournament(string,string,string,string,uint256)":"infinite","deployedTournament(uint256)":"4978","getDeployedTournaments()":"infinite"}},"methodIdentifiers":{"createTournament(string,string,string,string,uint256)":"b69626fe","deployedTournament(uint256)":"dac622b5","getDeployedTournaments()":"2e9e1e93"}},"storageLayout":{"storage":[{"astId":13,"contract":"PoHGames.sol:PoHGames","label":"deployedTournament","offset":0,"slot":"0","type":"t_array(t_address)dyn_storage"}],"types":{"t_address":{"encoding":"inplace","label":"address","numberOfBytes":"20"},"t_array(t_address)dyn_storage":{"base":"t_address","encoding":"dynamic_array","label":"address[]","numberOfBytes":"32"}}},"userdoc":{"kind":"user","methods":{},"version":1}}